:020000040800F2
:10000000C83A0020D5000008114F000845470008F5
:1000100000000000000000000000000000000000E0
:100020000000000000000000000000003D5A000831
:1000300000000000000000005D530008095F000898
:10004000E7000008E7000008D5530008E7000008B3
:10005000E7000008091600081D1600083116000800
:10006000E7000008E700000851130008E700000857
:10007000E7000008E7000008E7000008E7000008C4
:10008000E7000008FD610008E7000008000000002C
:10009000E7000008E7000008E7000008E7000008A4
:1000A000E7000008E7000008E7000008B16C00085E
:1000B000416D0008E700000800000000118F0008F3
:1000C0000348854600F01EFD0048004769A100086E
:1000D000C83A00200448804704480047FEE7FEE78E
:1000E000FEE7FEE7FEE7FEE74D600008C1000008FE
:1000F00030B50B46014600202022012409E00D46C0
:10010000D5409D4205D31D469540491B2546954047
:1001100040191546521E002DF1DC30BD70B500248B
:100120002546002801DA01244042002901DA012590
:100130004942FFF7DDFFAC4200D04042002C00D026
:10014000494270BDF0B51FB40646002082B0054696
:100150004024019100901BE0019922460F46304651
:1001600000F0E0FA049A059B801A994110D31046DA
:100170001946224600F0C6FA361A8F4101972246E8
:1001800001200021009F00F0BDFA38184D41009079
:100190002046641E0028DFDC019B00982946324679
:1001A00007B0F0BD03460B439B0703D009E008C925
:1001B000121F08C0042AFAD203E00B780370401C17
:1001C000491C521EF9D27047D2B201E00270401CA5
:1001D000491EFBD270470022F6E710B513460A46C7
:1001E00004461946FFF7F0FF204610BD421E537823
:1001F000521C002BFBD10B781370491C521C002B96
:10020000F9D1704730B505462A460B4610781C7860
:10021000521C5B1C002801D0A042F7D0002C03D058
:10022000002802D06D1CEFE7284630BD421C017843
:10023000401C0029FBD1801A704730B504460020CD
:10024000034600E05B1C934203D2E05CCD5C401BA4
:10025000F8D030BD03460A780270401C491C002AC1
:10026000F9D1184670470321001D401E0378120281
:100270001A43491EF9D51046704700000FB400B567
:100280008DB009900B9010A900200091C0430A90F6
:1002900000200C9006480690064807906A4609A878
:1002A0000F9900F065FA0DB008BC04B018470000C3
:1002B00091070008B1070008FFB50027FF4383B08E
:1002C00000205C6801909E681D46A9697F1C049807
:1002D00088470090296A88470028F6D10098401C7A
:1002E0000CD0032040028443002E19DD600614D593
:1002F00000982B2809D02D280FD103E00020C043FF
:1003000007B0F0BD012080020443A9697F1C049856
:100310008847761E0090002E02DD0098302803D01A
:100320000598002825D035E0012040020443A96942
:10033000761E7F1C049888470090002E03DD7828E5
:1003400005D0582803D00598002810D022E0059841
:10035000002801D010281DD1012040028443A96942
:10036000761E7F1C049888470090102002E0082029
:1003700000E00A2005900DE0012149020C43059A96
:100380000199761E514308180190A9697F1C0498B1
:1003900088470090002E05DD0599009800F0D3F9FC
:1003A0000028E9DAE96904988847A00502D4012009
:1003B000C043A5E7E00722D1600611D5600501988A
:1003C00000D5404229680A1D2A600968220501D526
:1003D000087014E0220701D5088010E008600EE0E4
:1003E0002868011D29600068210502D50199017066
:1003F00005E02107019901D5018000E00160384640
:100400007EE7FFB5002083B00090506801909169AD
:100410001446002697680498884705460C99069864
:10042000084305D009E0A169761C04988847054671
:10043000216A284688470028F5D1681C03D0019816
:10044000C00704D017E00020C04307B0F0BD20680B
:10045000011D2160006800900DE00198C00704D1E3
:10046000009805700098401C0090A169761C7F1EC2
:10047000049888470546002F1CDD681C1AD0069892
:1004800000280FD0E817C00E401941118A000699C4
:100490004009511840012A1A096801209040014280
:1004A000DBD107E00C980028D7D1216A284688477D
:1004B0000028D2D0E169049888470C98002807D119
:1004C000002E05DD0198C00702D1009800210170BF
:1004D000A068B84204DD0C98002804D0002F02D098
:1004E0000120C043B1E73046AFE70000F0B51FB4CC
:1004F00088B00B990998002448400999C00F490019
:1005000049080991C0070B990090490049080B91CF
:1005100009990898A64608431CD00B990A980843E5
:1005200018D0099801244000420D4800410D099857
:1005300024050003000B204309900B980003000BD7
:1005400020430B9050181C4940180022019014467B
:10055000104605E0002001460DB0F0BD032801DA89
:10056000034600E003239C46C11A0AAE0AE05F007E
:1005700008ADED5B4F00F75B7D430027AA187C4177
:10058000491C5B1E6145F2DD410004AB5A52210457
:10059000120C0A43240C401C0828DFDB019802904F
:1005A0000099704601910090059B049A079906985E
:1005B00000F01DF9D0E700000DFCFFFFF0B50C4680
:1005C0005C4085B0E40FE40703944C000026640807
:1005D00059009446490802460296224321D06246B9
:1005E0000A431ED06200570D4A000E032303550D27
:1005F000012402462C492405781B1B0B360B40189E
:1006000023432643614600901C46501AB44103D34D
:100610000098401C009002E0921800985B4100286E
:1006200003DA0020014605B0F0BD002001210905D4
:100630000746864611E064461D46141BB54106D3A5
:100640006546521BB341744607430C43A646CD078B
:1006500040084908284392185B4105460D43EAD1FA
:100660001046184313D06046194650407140084365
:1006700006D06046101AB34106D20122002306E0DC
:1006800000220123DB0702E00122D243531000982D
:1006900074460105381C6141029C039D00196941A3
:1006A00000F098F8BFE70000FD0300000EB5054913
:1006B0000291002100910A460B46019100F097F843
:1006C00003B000BD330400004A0009030123090BF5
:1006D0001B051943094B10B5520D9A4201DA00204F
:1006E00010BD064B34339A4203DC9A1A00F01AF814
:1006F00010BD03495118884010BD0000FF030000E1
:10070000CDFBFFFF10B5202A04DB0146203A9140C3
:10071000002010BD914020239C1A0346E34019435A
:10072000904010BD10B5202A04DB0846203AD04086
:10073000002110BD0B46D340D0402024A21A914086
:100740000843194610BD3A2800D23038202302460B
:100750009A43412A01D310463738884201D30020FA
:10076000C0437047026813785118016018467047FB
:1007700010B5D16004495161044911620021116131
:10078000114600F0F3F910BD65070008590B000889
:100790004268002A08D001680B78491C002B03D05E
:1007A000521E06C0184670470121C160881E70475E
:1007B0004268002A0BD0C3680168002B07D1836808
:1007C0008B4204D0491E521C06C0002070470020F6
:1007D000C043704710B5002B08DA0024401C61416B
:1007E00092185B411A4301D14008400010BDF0B59A
:1007F0001FB482B005460C0003D0084608F0FEFC8A
:1008000002E008F0FBFC203002460090214628461A
:10081000FFF778FF049B059A04460F4618431143DF
:10082000084314D0184610431BD0009840210A1AE0
:1008300018460599FFF776FF05460E46009A05997A
:100840000498FFF75FFF084305D0012004E020462D
:10085000394607B0F0BD0020C11705430E432C43B5
:10086000374300990E986305401A7905E40A00227F
:100870000C43FD0A0A3002D500200146E9E70105D4
:10088000101969410C9C0D9D00196941FFF7A2FFE9
:10089000DFE70000F0B507460846584087B0C00FB4
:1008A000049048000E46590040084908BC1A884187
:1008B00005D2384631461E4617460B4602465800BA
:1008C000400810434CD0300D039040055900400DB6
:1008D000490D0590401A0290402872DA1803012150
:1008E000000B09050843019004980092002805D0E8
:1008F00001995242002088410092019002984021C3
:100900000A1A01990098FFF7FDFE05460C466B4652
:1009100007CB00F009F9C0197141039A0E0D0023AD
:10092000D71756401A467A40164344D0049A002AF4
:100930002DD0029A012A039A15DC1205C01A9141A2
:1009400001263605001C7141D20F059ED207009387
:10095000019202962A462346FFF749FF07B0F0BDF1
:1009600038463146FAE71605224A0F46B218C01A31
:10097000B74101210905001C4F4100187F41114674
:1009800018187941E20F10436D19644113E0E20732
:100990006D0815436408C2071443039A0126120523
:1009A000C01A91413605001C7141CE074008304302
:1009B0004908C01851412A462346FFF70BFFCDE7EF
:1009C000FFE7049801224000C117121A00238B414F
:1009D00004983146C417381AA141EEE730B4012417
:1009E000E407634030BC55E730B40124E4076140BC
:1009F00030BC4FE70000E0FFF8B50546480040086E
:100A00000C46284304D06000184A400D904201DD96
:100A10002846F8BD15493539884210DC88420BDB81
:100A2000290D200308432903014305D0E00F104995
:100A3000C00741180020F8BD00200146F8BD161A75
:100A40004020821B28462146FFF75CFE07460091A6
:100A5000284621463246FFF765FE3A46009BFFF7DF
:100A6000B9FE3246FFF74EFEF8BD00003304000029
:100A70000000F03F4A0009030123090B1B0519433D
:100A80000A4B10B5520D9A4202DA0020014610BD01
:100A9000064B34339A4203DC9A1AFFF743FE10BD2B
:100AA000034BD218FFF72EFE10BD0000FF0300001D
:100AB000CDFBFFFF10B5002904DB0124E407404211
:100AC0008C412146002B04DB1C460123DB075242EC
:100AD000A3418B4200D1824210BD000010B5002915
:100AE00004DB0124E40740428C412146002B04DB57
:100AF0001C460123DB075242A341994200D1904298
:100B000010BD0000064C0125064E05E0E36807CC49
:100B10002B430C3C98471034B442F7D3FFF7D4FA78
:100B2000C4B90008E4B9000810B5202A06DBCB17C9
:100B30000846203A1041C1170B4306E00B4613410B
:100B4000D0402024A21A91400843194610BD00004D
:100B500000487047C0B9000810B50446FFF7F8FF19
:100B60000068005DC007C00F10BD0000F3B58DB078
:100B700000200A9001200B90002608460C300C46FD
:100B800009906269012109989047051E2ED0252DF4
:100B90002DD0216A8847002818D062690121099860
:100BA0009047216A88470028F7D1411E6269099859
:100BB000904700E0761CA1690D988847216A884714
:100BC0000028F7D1E1690D988847DAE7A1690D9807
:100BD00088470746A84201D1761CD2E7E1690D9803
:100BE00088477F1C02D10A98002877D049E1002766
:100BF00062693D463946099890472A280CD16269B6
:100C0000012109989047012506E00A214F433F182A
:100C1000303FEBD4102005436269012109989047C9
:100C2000014630390A2903D29B498F42DEDCECE7CA
:100C3000E90600D4994F6C280AD04C2810D06828B7
:100C400024D06A282ED074280CD07A280AD00DE03F
:100C500062690121099890476C2823D004211CE087
:100C6000202005436269012109989047A7606560CB
:100C700065284FD026DC582839D01ADC452849D0C1
:100C800012DC252834D04128B0D143E0626901212B
:100C900009989047682802D008210D43E6E7012013
:100CA000C002DEE70220DCE7462833D047282CD1FB
:100CB00030E05B2870D061282CD063286CD0642889
:100CC00023D161E06F284FD009DC662822D0672845
:100CD00020D0692826D06E2817D12EE0CDE07028CC
:100CE0004DD073286FD075284ED078280DD154E0A0
:100CF000A1690D9888470546252800D16CE7E16970
:100D00000D9888476D1C00D16DE7BAE00A224CE0CF
:100D10000A2252E0012023466A46C0430D99C0468C
:100D2000C046A3E02846402108436060A807234648
:100D300001D5002239E000223FE0E80700D020E79B
:100D40002068011D21600068290501D5067018E79B
:100D5000290701D5068014E7A90703D5F117066016
:100D600041600EE706600CE72846402108436060BA
:100D7000A807234601D5082217E008221DE04849AC
:100D800028460840606016E028464021084360601D
:100D9000A8072346BCD5B9E715E0284640210843FB
:100DA0006060A80707D5234610220120C0430D9993
:100DB000C046C0465AE0234610220120C0430D9988
:100DC000FFF77AFA52E000210C910B46009163285C
:100DD00002D05B2807D043E0E80601D40120A060E0
:100DE000012000903CE062690121099890475E284B
:100DF00005D101200C90014662690998904721694C
:100E0000002906D10B4601AA8F00491CD35108299D
:100E1000FADB002835D0216900290ED1C117C90E8F
:100E200009184A11930001AA9A1849094901411A5F
:100E30000120136888400343136062690121099807
:100E400090475D28E5D10C98002808D0002001AB20
:100E500081005A58401CD2435A500828F8DB01AB95
:100E600001202246C0430D99FFF7CBFA00280ADA89
:100E7000401C06D10B98002803D00020C0430FB0BF
:100E8000F0BD0A98FBE7E90702D10A99491C0A91CB
:100E9000361800200B9074E6CCCCCC0CFFFFFF7F03
:100EA000F1F7FFFF70B58C180578401C6B075B0FDE
:100EB00001D10378401C2A1106D10278401C03E0BE
:100EC00006780E70401C491C5B1EF9D12B0705D417
:100ED0000023521E0DD40B70491CFAE70378401C06
:100EE000CB1A921C03E01D780D70491C5B1C521E2E
:100EF000F9D5A142D8D3002070BD000005480649AD
:100F0000086006488860064848600648C860064889
:100F10000861704725100008F81E00205D100008C9
:100F2000D5100008910F0008E90F00087CB50446B1
:100F30000D4621466846FFF78DF909F0DFFE642073
:100F400000F0BAFD114908688047642000F0B4FD44
:100F50002846FFF76BF90646083E0C4832466946BC
:100F6000436828469847C82000F0A6FD0748C16896
:100F700068468847642000F09FFD0449086980475F
:100F8000642000F099FD09F0B9FE7CBDF81E002038
:100F900010B5C8B004460FA11FA808F033FE022008
:100FA00018A90877234600220CA140A808F0FCF8F5
:100FB00040A91FA808F0D4FD0AA0712223A91D9002
:100FC0006846FFF7EFF81FA80FC800F02FFC48B0E5
:100FD00010BD0000434653474649530025642C2565
:100FE000730000004F4B000000B5BFB009A11EA860
:100FF00008F008FE032018A9087609A0712222A98A
:101000001D906846FFF7CEF81EA80FC800F00EFC32
:101010003FB000BD434653545245414D00000000CF
:101020004F4B000000B5BFB009A11EA808F0EAFDB3
:10103000032018A9087608A0712222A91D906846ED
:10104000FFF7B0F81EA80FC800F0F0FB3FB000BDDE
:10105000434653494E4954004F4B000070B5A8B069
:1010600004460D4612A103A808F0CCFD02206946F3
:101070000873002000902346024610A101950290BB
:1010800024A808F091F824A903A808F069FD03A892
:1010900008F074FD0E4B1A4607A113A8013004F0A6
:1010A000FBFC0646142000F007FD28B070BD0000D0
:1010B0004346535246494C450000000025642C220B
:1010C0002573222C25642C25642C25640000000047
:1010D00010270000F0B5A9B006460C46154616A12B
:1010E00004A808F08FFD0220694608741548002105
:1010F00023460A4601950091029013A125A808F005
:1011000053F825A904A808F02BFD04A808F036FD23
:101110000C4B1A460AA114A8013004F0BDFC074686
:10112000142000F0C9FC074B1A460BA1304604F00E
:10113000B3FC29B0F0BD00004346535746494C4527
:10114000000000001027000025642C25732C256466
:101150002C25642C256400004F4B000072B6034818
:101160000078401C0149087070470000B703002058
:1011700005480078401E0449087008460078002899
:1011800000D162B670470000B703002010B50D48CB
:101190000078002805D101200B49087004F074FB89
:1011A00001E004F0BBFE07480078002808D10120C8
:1011B0000449087000F060FB012801D100F0AAF892
:1011C00010BD0000B4030020B5030020FFF7C6FFE8
:1011D00000BF00BF00BF00BF00BFBFF34F8F00BF05
:1011E00000BF00BF06480749C86000BF00BF00BF7E
:1011F000BFF34F8F00BF00BF00BF00BF00BFFDE7C0
:101200000400FA0500ED00E00346042B16D008DCCC
:10121000002B0FD0012B0ED0022B0DD0032B12D19F
:101220000BE0202B0BD0212B0AD0222B09D0232B13
:1012300009D107E008E007E006E005E004E003E08C
:1012400002E001E000E000BF00BF00207047002086
:101250007047000010B500220449054805F023FF3F
:101260000449034805F015FF002010BD2C1500208F
:10127000140800204411002070B505460C460C48A7
:10128000008800280AD129460A482268FEF78AFF0A
:101290002088094908800120054908802946074817
:1012A00005F0F7FE054805F0C6FE002070BD000001
:1012B00094000020B80300209600002014080020AD
:1012C000F8B504460D4600260948076985208000C8
:1012D000C059002801D00120F8BD2A462146054802
:1012E00005F0E1FE034805F075FF06463046F3E7DA
:1012F000940A00201408002010B501214902034877
:10130000FEF769FF00200249086010BD342000206C
:101310009403002010B50B480078002810D10A492A
:101320000A4804F0C5FF7D21C900084805F074F89B
:10133000064805F07BF800BF024800780028FBD083
:1013400010BD0000B60300208D4F00087022002061
:1013500010B5024800F0D8FA10BD0000CC070020FC
:101360000FB410B59AB01DA80090642101A8009B8D
:101370001C9A07F02DFF0020009001A8FEF756FFF1
:10138000C4B2012202210B4800F0C6FD7D231B01DF
:10139000224601A9084803F054F9642000F00EF831
:1013A00000220221034800F0B7FD1AB010BC08BCAF
:1013B00004B01847000400504C07002010B5044644
:1013C000204600F001F810BD10B50446204600F09C
:1013D00073FB10BDF8B504460D4617461E46FF20A8
:1013E000F63084420CDB4348844209DC20460B3053
:1013F0004006010E33463A46284608F093FF77E050
:101400003C48143084420EDB3A48263084420ADCE1
:1014100038481430201A4006010E33463A46284612
:101420000AF026F864E033480A3084420CDB001DE1
:10143000844209DC001F201A4006010E33463A465A
:10144000284609F055FF53E07D20C00084420CDAA5
:1014500006207043284A105A201A4004010C3346D3
:101460003A46284603F0C4FF42E0244884420CDB9D
:101470002348844209DC2148201A4006010E3346E5
:101480003A46284609F04CFC32E01E4884420DDB07
:101490001C486330844209DC1A48201A4006010EB9
:1014A00033463A46284609F07FFC21E01448401CA8
:1014B00084420EDB1248C83084420ADC1048401CCB
:1014C000201A4006010E33463A46284609F03CF9F8
:1014D0000EE00D4884420BDB0B48C730844207DC2A
:1014E0000948201A410033463A46284609F088F94F
:1014F000F8BD0000810200009C000020A10F000048
:1015000094110000891300007D150000F8B5044611
:101510000D4617461E46FF20F63084420EDB364845
:1015200084420BDC2046FF38F6384004010C334679
:101530003A46284608F02EFFC0B2F8BD2E481430B7
:1015400084420FDB2C48263084420BDC2A481430BE
:10155000201A4006010E33463A46284609F0D2FFCB
:10156000C0B2EAE7254884420DDB254884420ADC04
:101570002248201A4006010E33463A46284609F012
:10158000C9FCC0B2D9E71E48401C84420FDB1C488E
:10159000C83084420BDC1A48401C201A4006010E59
:1015A00033463A46284609F057F9C0B2C5E7124813
:1015B0000A3084420DDB001D84420ADC001F201A21
:1015C0004004010C33463A46284609F0B9FEC0B241
:1015D000B3E77D20C00084420CDA06207043094A3C
:1015E000105A201A4004010C33463A46284607F0A8
:1015F000E1FCA2E70120A0E781020000A10F0000AA
:10160000941100009C00002010B504F091F9012015
:1016100000F076FB022000F073FB10BD10B504F063
:1016200087F9042000F06CFB082000F069FB10BD76
:1016300010B504F07DF9102000F062FB202000F0CE
:101640005FFB402000F05CFB802000F059FBFF2096
:10165000013000F055FB0120400200F051FB012059
:10166000800200F04DFB0120C00200F049FB012088
:10167000000300F045FB0120400300F041FB012086
:10168000800300F03DFB0120C00300F039FB10BDDA
:1016900070470000002039498969FF22013211405A
:1016A000914208D13649496902221143344A5161B5
:1016B000FF21013108433149896901225202114059
:1016C000914208D12E494969012211432C4A5161A6
:1016D00001214902084329498969012292021140E6
:1016E000914208D12649496908221143244A51618F
:1016F000012189020843214989690122D20211404E
:10170000914208D11E494969042211431C4A516182
:101710000121C90208431949896901225203114074
:10172000914208D11649496910221143144A516166
:1017300001214903084311498969012252041140DA
:10174000914207D10E494969202211430C4A516147
:10175000202108430949896901221204114091425C
:1017600008D10749496940221143054A51610121C5
:1017700009040843014988617047000000200240C5
:101780000C1F002070B5044600F0CCFB05460BE0B2
:10179000601C002808D0002C04D000F0C3FB401BC4
:1017A000A04201D9032070BD1F488069C007C00F47
:1017B0000028EDD11C48806902210840022801D18F
:1017C0001949886118488069FF2101310840884221
:1017D00023D0154880694900084088421DD012482E
:1017E000806949000840884217D00F488069490045
:1017F0000840884211D00C4880698900084088421E
:101800000BD00948806909010840884205D0064884
:10181000806949100840884203D1FFF73BFF01204F
:10182000C1E70020BFE70000002002400FB470B500
:10183000259C002504A808F0A1F97D231B011A4668
:10184000214614A8013004F027F9054670BC08BCF5
:1018500004B0184710B50446002C00D110BD214635
:101860000448FEF7CFFC002801D00120F6E7002055
:10187000F4E70000342000200120704770B50948CB
:10188000046945698669A419002C0AD00822064912
:10189000204602F059FF042203491031284602F085
:1018A00053FF70BD4000F81F6A00002070B5044669
:1018B00000252520005D022803D00420E0630125D7
:1018C00020E0206800680E218843216808602068B5
:1018D000006840084000216808601C21606C0840D6
:1018E00001218140206C416001212520015500BF6C
:1018F00000212420015500BFA06B002802D0204603
:10190000A16B8847284670BD70B50446206C0568F9
:10191000206806681C20616C014004208840284033
:1019200000281DD004203040002819D0206800680D
:1019300020210840002805D1206800680421884340
:10194000216808601C21606C084004218140206CE3
:101950004160206B00285AD02046216B884756E012
:101960001C20616C0140022088402840002825D0BE
:1019700002203040002821D0206800682021084043
:10198000002808D1206800680A218843216808607F
:101990000121252001551C21606C08400221814055
:1019A000206C416000BF00212420015500BFE06A87
:1019B00000282CD02046E16A884728E01C20616C72
:1019C0000140082088402840002820D008203040CE
:1019D00000281CD0206800680E2188432168086018
:1019E0001C21606C084001218140206C4160012075
:1019F000E06301212520015500BF0021242001556D
:101A000000BF606B002802D02046616B884770BD24
:101A100070B50446002C01D1012070BD244A216814
:101A2000881A1421FEF764FB80006064204808389F
:101A30002064022125200155206805681D480540C5
:101A4000E168A06808432169084361690843A16906
:101A50000843E1690843216A08430543206805609B
:101A600001218903A068884217D011487830806A24
:101A70001C22616C11400F228A4090430C4978313E
:101A800088621C22616C1140606888400849783186
:101A9000896A08430649783188620020E0630121A1
:101AA000252001550021242001550020B5E7000024
:101AB000080002400F80FFFF70B5044600F032FAC4
:101AC00006462546681C002800D06D1C00BF00F0AB
:101AD00029FA801BA842FAD370BD00000348406871
:101AE000012108430149486000207047002002405E
:101AF000F8B504460D461646012700BF1548007C80
:101B0000012801D10220F8BD01201249087400BF4C
:101B10001148FFF737FE0746002F14D10D494861E1
:101B2000022C01D12E6008E0012C01D12E8004E0AE
:101B3000002C01D12E7000E00127002F03D00648B1
:101B4000FFF720FE074600BF00200249087400BFCF
:101B50003846D8E70C1F002050C300000F484068EB
:101B6000C007C00F002816D000BFEFF31080014659
:101B700000BF72B60A48094AD0600A48D06000BF68
:101B800081F3108800BF10464068C007C00F0028CE
:101B900001D0012070470020FCE700000020024037
:101BA000EFCDAB8905040302F0B50B4600210022FE
:101BB000002479E001258D401D402A46002A72D07C
:101BC00005684F000326BE4035430560CD08AE00D2
:101BD00005462035AD594E07F70E0F26BE40B543DA
:101BE000CE08B60007462037BD5185684F00032652
:101BF000BE40B5438560456801268E40B5434560CB
:101C0000C5684F000326BE40B543C560294D8E0808
:101C1000B600AC598D072E0F0F25B5402C40052579
:101C20002D07A84201D1002519E0234DA84201D17A
:101C3000012514E0214DA84201D102250FE0204DDD
:101C4000A84201D103250AE01E4DA84201D1042576
:101C500005E01D4DA84201D1052500E006258E07AF
:101C6000360FB540A5421ED18D072E0F0F25B5406A
:101C70002C46104D8E08B600AD59A5430D4E8F0869
:101C8000BF00F551114D2D689543104E3560354616
:101C90006D68954375603546AD689543B5603546CA
:101CA000ED689543F560491C1D46CD40002D81D15E
:101CB000F0BD000008000140000400500008005082
:101CC000000C005000100050001C005000040140A7
:101CD00070B504460025002C05DD02E06410681C88
:101CE000C5B2012CFAD1A80004490858002803D035
:101CF000A900024A5058804770BD0000842A002085
:101D000010B50446054840692040002804D0034827
:101D100044612046FFF7DCFF10BD000000040140D5
:101D200070B50346002200240020DFE00126964023
:101D30000D6835402C46002C77D04D68022D02D01E
:101D40004D68122D15D1D508AE001D462035A85975
:101D50005507EE0E0F25B5400646AE4330465607F2
:101D6000F60E0D69B5402843D508AD001E46203655
:101D700070514D68012D08D04D68022D05D04D6879
:101D8000112D02D04D68122D18D1986856000325E8
:101D9000B5400646AE4330465600CD68B5402843B0
:101DA00098605868012595400646AE433046102697
:101DB0004D6835402D0995402843586018685600F5
:101DC0000325B5400646AE4330460D79AD07AD0F4D
:101DD0005600B54028431860D86856000325B54022
:101DE0000646AE43304656008D68B5402843D8605D
:101DF000012636074D683540B54276D13E4D6D6BB4
:101E0000012635433C4E75633C4D9608B600A859F3
:101E100095072E0F0F25B5400646AE4330460525E3
:101E20002D07AB4202D100251AE05EE0344DAB42F3
:101E300001D1012514E0334DAB4201D102250FE061
:101E4000314DAB4201D103250AE0304DAB4201D107
:101E5000042505E02E4DAB4201D1052500E0062505
:101E60009607360FB5402843244D9608B600A85172
:101E7000284D28680546A5432846012636044D68A6
:101E80003540B54202D1054625432846214D2860FC
:101E900068680546A5432846012676044D68354006
:101EA000B54202D10546254328461A4D6860A86808
:101EB0000546A5432846012636054D683540B542FE
:101EC00002D1054625432846124DA860E86805461C
:101ED000A5432846012676054D683540B54202D116
:101EE0000546254328460B4DE860521C0D68D54039
:101EF000002D00D01AE770BD00100240080001401C
:101F00000004005000080050000C00500010005069
:101F1000001C005000040140002A01D0816100E053
:101F20008162704701480068704700005C02002031
:101F300002480068401C0149086070475C020020AC
:101F400010B500240848006840210843064908608D
:101F5000002000F00BF8002801D0012401E000F07F
:101F60001FF8204610BD00000020024070B5044656
:101F700000257D21C90009480068FEF7B9F806462A
:101F800001F0E4FE002801D0012504E000222146F2
:101F9000501E00F02DF8284670BD000060020020A1
:101FA0000648406B01210843044948630846806B9A
:101FB000090408430149886370470000001002408B
:101FC00000BFC206D20E01219140024A116000BF3B
:101FD0007047000080E100E000BFC206D20E012180
:101FE0009140024A116000BF7047000000E100E02C
:101FF00070B504460D4616462946204602F08AFF73
:1020000070BD0246116801239B2080008350582038
:10201000405A1843582358525820405A0223184314
:10202000582358520020704701460A6801234D206A
:10203000C0004350002013235B01CB1818705420BC
:10204000805A01231843542398525420805A022363
:1020500018435423985200207047704770B50546C6
:102060000C4680202040802805D16007060E2846B7
:102070002830311804E066012846FF302930311835
:10208000002A03D100200873CB8004E001200873EC
:102090000B81180C4881002070BD70B504460D46B8
:1020A0006B012146283159184A692721090108592D
:1020B000294605F089FB70BD70B504460D466B01DD
:1020C0002146FF31293159184A6927210901085948
:1020D000294605F00FFC70BD70B504460E46802001
:1020E0003040802807D17007010E204628300D1897
:1020F0000120687007E07007010E2046FF3029308C
:102100000D18002068707007400F287000BF112064
:1021100040012018007A012801D1022070BD012061
:10212000112149016118087200BF2946206806F094
:10213000F7FA00BF0020112149016118087200BFA1
:1021400000BFEBE770B504460E463007000F61682C
:10215000884201D9012070BD80203040802807D1FD
:102160007007010E204628300D180120687007E026
:102170007007010E2046FF3029300D1800206870CE
:102180000020A8707007400F287000BF1120400188
:102190002018007A012801D10220DCE7012011215A
:1021A00049016118087200BF2946206806F014FC36
:1021B00000BF0020112149016118087200BF00BF53
:1021C000C9E702464807030E1046FF3029301818A9
:1021D000C0697047FFB581B005460E461F46002016
:1021E000009080203040802807D17007010E2846DB
:1021F00028300C180120607007E07007010E284697
:10220000FF3029300C18002060707007400F2070DC
:1022100003982061E7706078002801D02078E08181
:10222000022F01D10020207100BF11204001281889
:10223000007A012802D1022005B0F0BD0120112151
:1022400049016918087200BF2146286806F02EF877
:1022500000BF0020112149016918087200BF0098D1
:10226000EAE7FFB581B005460E4617467007010E36
:102270002846FF3029300C1867610498A0610020BF
:10228000E06160707007400F20707007400F0028F9
:1022900004D12146286806F035FC03E02146286871
:1022A00006F030FC002005B0F0BD70B504460D46C8
:1022B0006807400F6168884201D9012070BD802005
:1022C0002840802807D16807010E204628300E18C4
:1022D0000120707006E069012046FF3029300E1899
:1022E000002070700120B0706807400F307000BF90
:1022F000112040012018007A012801D10220DDE7D9
:102300000120112149016118087200BF314620687F
:1023100006F0CAFB6807400F002805D123210901F8
:102320006118206806F054FB00BF0020112149010C
:102330006118087200BF00BFC0E7FFB581B0054655
:102340000E4617467007010E284628300C186761A4
:102350000498A0610020E061012060707007400FC8
:1023600020707007400F002804D12146286806F02D
:10237000C9FB03E02146286806F0C4FB002005B035
:10238000F0BD000010B50446206806F0C9FD01212B
:10239000C9030840884202D1204602F0FDFD2068B2
:1023A00006F0BEFD01218902084088420DD1206857
:1023B000403080888843216840318880204600F082
:1023C00093F90021204600F0C7F9206806F0A8FD27
:1023D000012189030840884206D120684030808866
:1023E0008843216840318880206806F099FD0121EA
:1023F00049030840884206D12068403080888843DD
:10240000216840318880206806F08AFD0121090397
:10241000084088422BD12068403000885849084045
:102420002168403108802068403000885449091FE5
:1024300008402168403108801320400120180078AE
:10244000012808D1002013214901611808700021DA
:102450002046FFF702FE204600F05AF9206840307F
:1024600080880121090388432168403188802068E1
:1024700006F056FD0121C9020840884224D1206897
:1024800040300088082108432168403108802068D6
:10249000403080880121C90288432168403188800A
:1024A00020684030008804210843216840310880BA
:1024B000206806F035FD012109030840000B0028C3
:1024C00002D1204600F094F9206806F029FD802111
:1024D0000840802832D120684030808888432168B5
:1024E000403188801320400120180078002822D134
:1024F000206840300088042108432168403108806A
:102500002068403000880821084321684031088055
:102510000120132149016118087020684030808A29
:10252000F0210840810899208000015101212046B6
:10253000FFF793FD02E0204600F05AF9206806F00C
:10254000EFFC012149020840884209D1206840304F
:1025500080888843216840318880204600F0EEF86A
:10256000206806F0DDFCFF2101310840884206D1D9
:10257000206840308088884321684031888010BDC1
:10258000FBFF000030B585B00446002C02D10120CD
:1025900005B030BD112040012018407A002806D136
:1025A0001121490161180872204600F083F80320C8
:1025B0001121490161184872206806F0FDF90025D3
:1025C00023E001216A01204628301018417069017A
:1025D00020462830455469010818C58100216A0148
:1025E000204628301018C1706A0120462830101883
:1025F00001616A0120462830101841616A012046B5
:10260000283010188161681CC5B26068A842D8D80B
:10261000002523E000216A012046FF3029301018F0
:10262000417069012046FF302930455400216A017C
:102630001018C1706A012046FF302930101801615E
:102640006A012046FF302930101841616A01204696
:10265000FF30293010188161681CC5B26068A8423B
:10266000D8D81422214610316846FDF79BFD20463C
:102670000FC806F091F9002806D002201121490167
:1026800061184872012083E70021242001550120B0
:102690001121490161184872E069012802D12046E0
:1026A000FFF7C2FC206A012802D12046FFF7A9FCEF
:1026B00000206DE710B504460949206888420ED114
:1026C0000848806B0121C905084306498863002238
:1026D00011461F20FFF78CFC1F20FFF77DFC10BD6B
:1026E000005C00400010024070B504460125A0685F
:1026F000022801D0FEF7CCFF2721090108592946FD
:1027000005F05DFA27210901085905F0FEF970BDB1
:1027100010B50446A069002807D0074800690621C3
:1027200088430549086103F0F5FB27210901085991
:1027300005F022FA10BD000000ED00E010B50446DF
:1027400001200449087027210901085905F01FFAE2
:1027500010BD00003000002070B504460D4600BFDB
:10276000112040012018007A012801D1022070BDFB
:102770000120112149016118087200BF242005556C
:102780002946206806F0F0FB00BF00201121490116
:102790006118087200BF00BFE9E710B504462721A1
:1027A0000901085923210901611805F01FFA10BD1C
:1027B00010B5044600BF112040012018007A0128FE
:1027C00001D1022010BD01201121490161180872B8
:1027D00000BF206806F0D6F8206806F08DFB00BF29
:1027E0000020112149016118087200BF00BFE9E70C
:1027F00010B504460220084908702721090108592C
:1028000005F05CFAA069002805D00448006906219B
:1028100008430249086110BD3000002000ED00E0CF
:10282000F8B5044620212068084020287CD1206883
:102830000840202800D100BF00279148806B01216B
:1028400009070840002805D18D48806B08438C4952
:10285000886301278B480068FF2101310840002868
:1028600016D188480068084386490860FFF75AFB7C
:10287000064606E0FFF756FB801B642801D90320BB
:10288000F8BD80480068FF21013108400028F1D0E0
:102890007B480568032109050D4060680840A8428F
:1028A0000DD0091160680840884208D1744800685A
:1028B000012149040840884201D10120E0E7704825
:1028C000403000690321090408400546002D3DD031
:1028D00060680840A84239D020212068084020289C
:1028E00034D1674840300069032109048843054614
:1028F0006348403000690121C90408436049403100
:102900000861084600690121C90488435C494031D7
:10291000086108460561801528408915884215D14F
:10292000FFF700FB064608E039E0FFF7FBFA801BE3
:102930005549884201D90320A2E751484030006937
:10294000012149020840400A0028EED000BF00BF24
:10295000032109046068084088420AD14848006899
:102960000901884303221205616811400843444964
:10297000086000BF424840300069032212046168C9
:10298000114008433E494031086100BF012F05D185
:102990003B48806B890588433949886300BF2078AC
:1029A000C007C00F002809D035484030C0688008F3
:1029B0008000A168084332494031C8600221206884
:1029C0000840022809D12E484030C0680C218843B5
:1029D000E16808432A494031C86004212068084062
:1029E00004280AD126484030C06803218902884360
:1029F0002169084322494031C86008212068084005
:102A000008280AD11E484030C068032109038843C2
:102A1000616908431A494031C860FF2101312068CB
:102A2000084088420AD116484030C0680321090492
:102A30008843A169084312494031C8604021206899
:102A40000840402809D10E484030C0680905884335
:102A5000216A08430A494031C86080212068084043
:102A600080280AD106484030C06803218904884381
:102A7000E169084302494031C860002000E70000D6
:102A8000001002400070004088130000F8B50446B2
:102A90000D46002C01D10120F8BD79480068C0071F
:102AA000C00FA8420ED27648006840084000284374
:102AB0007349086008460068C007C00FA84201D0EB
:102AC0000120E9E7022120680840022807D16D486B
:102AD000C068F0218843A16808436A49C86020782B
:102AE000C007C00F00284CD06068022809D1654893
:102AF0000068012149040840400C002824D101202D
:102B0000CAE76068032809D15E48006801214906C8
:102B10000840400E002817D10120BDE76068012859
:102B200008D15848006804210840800800280BD1CB
:102B30000120B1E753480068012149020840400ADA
:102B4000002801D10120A7E74E48C0688008800016
:102B5000616808434B49C860FFF7E4F906466068BE
:102B600002280FD107E0FFF7DDF9801B46498842B4
:102B700001D9032090E74348C0680C210840082889
:102B8000F1D134E0606803280FD107E0FFF7CAF9FC
:102B9000801B3D49884201D903207DE73948C06840
:102BA0000C2108400C28F1D121E0606801280FD1E8
:102BB00007E0FFF7B7F9801B3349884201D90320AA
:102BC0006AE73048C0680C2108400428F1D10EE0C3
:102BD00007E0FFF7A7F9801B2B49884201D90320A2
:102BE0005AE72848C0680C2108400028F1D1244841
:102BF0000068C007C00FA8420ED9214800684008ED
:102C0000400028431E49086008460068C007C00FFE
:102C1000A84201D001203FE7042120680840042891
:102C200008D11848C068072109028843E1680843B1
:102C30001449C860082120680840082809D11148B3
:102C4000C0680721C90288432169C90008430D49AA
:102C5000C86000F049F80B49C968F0221140090921
:102C60000A4A515CC8400A4908600020FFF77EF913
:102C70000746002F01D038460EE700200CE7000081
:102C800000200240001002408813000004B9000830
:102C900060020020014800687047000060020020C8
:102CA00000B5FFF7F7FF0549C96807221202114076
:102CB000090A034A515CC84000BD000000100240F0
:102CC00014B9000800B5FFF7E5FF0549C9680722F8
:102CD000D2021140C90A034A515CC84000BD00003D
:102CE0000010024014B90008FEB52E48C7680C2039
:102CF0003840002845D0042804D008280CD00C28DF
:102D00003ED10BE02748006810210840002801D080
:102D1000254C00E0254C41E0254C3FE00F2080048D
:102D20003840800C23490E5C032080053840800D1C
:102D3000401C01901B48C06801210904084000287C
:102D400007D01B49714308460199FDF7D1F90546A3
:102D500014E01448006810210840002807D01249E8
:102D6000714308460199FDF7C3F9054606E00F498E
:102D7000714308460199FDF7BBF905462C460DE065
:102D800000BF08484068072149030840400B0090F5
:102D90000098401C01218140CC0300BF00BF2046A9
:102DA000FEBD00000010024000093D000024F400B8
:102DB00000127A001CB90008FEB50446002C01D1AF
:102DC0000120FEBDFA48C7680C210F40C0680121F0
:102DD0000904084001902078C007C00F002872D075
:102DE000082F04D00C2F0FD1019888420CD1F04845
:102DF0000068012149040840400C002863D0606845
:102E0000002860D10120DCE700BF012109046068CF
:102E1000884205D1E64800680843E549086027E094
:102E200005210904606888420ED1E148006801214B
:102E300089040843DE490860084600680121090446
:102E40000843DB49086013E0D94800680121090400
:102E50008843D749086008460068012109040840F2
:102E6000009000BFD248006889008843D0490860BC
:102E700000BF6068002813D0FFF754F8054606E04D
:102E8000FFF750F8401B642801D9032099E7C84890
:102E90000068012149040840400C0028F0D012E0ED
:102EA000FFF740F8054606E0FFF73CF8401B6428B2
:102EB00001D9032085E7BE48006801214904084084
:102EC000400C0028F0D102212068084002286BD174
:102ED000E66820203040002809D0B548006820214D
:102EE0000843B34908602021304688430646042F32
:102EF00004D00C2F33D10198002830D1AC480068A1
:102F0000042108408008002803D0002E01D10120B0
:102F100057E7A74840681F21090288432169090231
:102F20000843A349486008460068092188433043A4
:102F30009F490860FFF7D8FE9D49C968F0221140FB
:102F400009099C4A515CC8409B4908600020FFF772
:102F50000DF80290029800283FD0029831E7002E29
:102F600023D0934800680921884330439049086082
:102F7000FEF7D8FF054606E0FEF7D4FF401B022807
:102F800001D903201DE78A48006804210840800811
:102F90000028F1D0864840681F2109028843216932
:102FA000090208438249486017E0814800684008E8
:102FB00040007F490860FEF7B5FF054606E0FEF7D2
:102FC000B1FF401B022801D90320FAE678480068C7
:102FD0000421084080080028F1D110212068084011
:102FE000102867D1002F36D1714800684901084088
:102FF000400A002804D0E069002801D10120E0E661
:103000006B484068072149038843616A084368495F
:103010004860084640680002000A218C09060843FF
:1030200063494860606A400B401C01218140C8032D
:103030005F49C968F022114009095E4A515CC840E5
:103040005D4908600020FEF791FF02900298002879
:103050004BD00298B5E6E06900282CD054480068AF
:10306000FF210131084352490860FEF75BFF054626
:1030700006E0FEF757FF401B022801D90320A0E617
:103080004B480068012149020840400A0028F0D05E
:1030900047484068072149038843616A0843444917
:1030A0004860084640680002000A218C090608436F
:1030B0003F49486019E03E480068FF2101318843DC
:1030C0003B490860FEF72EFF054606E0FEF72AFFA3
:1030D000401B022801D9032073E63548006801210E
:1030E00049020840400A0028F0D108212068084021
:1030F000082839D1606900281BD02D48403000696C
:10310000012108432A4940310861FEF70BFF0546BB
:1031100006E0FEF707FF401B022801D9032050E616
:103120002348403000690221084040080028F0D0C0
:103130001AE01F4840300069400840001C494031F7
:103140000861FEF7EFFE054606E0FEF7EBFE401BCA
:10315000022801D9032034E61548403000690221D5
:10316000084040080028F0D10421206808400428C5
:1031700079D1002000900E48806B89060840002815
:1031800006D10B48806B08430949886301200090F1
:103190000A480068FF210131084000281ED1074875
:1031A0000068084305490860FEF7BCFE05460EE0CE
:1031B0000010024004B900086002002000700040C6
:1031C000FEF7B0FE401B642801D90320F9E5B3489F
:1031D0000068FF21013108400028F1D000BFFF2125
:1031E0000131A068884205D1AD4800690843AC4967
:1031F000086130E0A06800280DD1A9480069FF21CE
:1032000001318843A64908610846006909158843C9
:10321000A34908611FE005210902A06888420DD179
:103220009F4800690121890208439D4908610846B9
:103230000069891508439A4908610CE098480069BB
:10324000FF21013188439649086108460069091544
:1032500088439349086100BFA068002815D0FEF795
:1032600061FE054608E031E0FEF75CFE401B8D493B
:10327000884201D90320A4E5894800690121490257
:103280000840400A0028EFD013E0FEF74BFE054649
:1032900007E0FEF747FE401B8249884201D9032020
:1032A0008FE57F480069012149020840400A002853
:1032B000EFD10098012808D179484038806B01216E
:1032C0000907884376494039886300BF2021206878
:1032D0000840202852D1A06900282BD000BF704898
:1032E00040388068012108436D49403988600846AC
:1032F000406B012108436A49403948636A48006AC3
:103300000121490308436849086200BFFEF70AFE2D
:10331000054606E0FEF706FE401B022801D9032001
:103320004FE55F4840388068022108404008002887
:10333000F0D023E000BF5A48403880684008400081
:103340005749403988605848006A01214903884339
:103350005549086200BFFEF7E5FD054606E0FEF7A9
:10336000E1FD401B022801D903202AE54C484038E2
:1033700080680221084040080028F0D1A06A002897
:103380004CD00C2F69D0A06A022848D1444840385C
:103390000068012109068843414940390860FEF769
:1033A000C1FD054606E0FEF7BDFD401B022801D920
:1033B000032006E53A4840380068012149060840E4
:1033C000400E0028EFD1216BE06A0843616B08438F
:1033D00033494039C968FD221204914308433049FA
:1033E0004039C860084600680121090608432C4995
:1033F00040390860FEF796FD054606E0FEF792FDAF
:10340000401B022801D90320DBE42548403800682E
:10341000012149060840400E0028EFD03CE020483A
:10342000403800680121090688431D494039086079
:10343000FEF778FD054606E0FEF774FD401B022806
:1034400001D90320BDE4164840380068012149062F
:103450000840400E0028EFD11EE0A06A012800D1EC
:10346000AFE40F484038C068019001210904019879
:103470000840E16A88420DD10F2189040198084073
:10348000216B884206D10321890501980840616BB0
:10349000884201D0012094E4002092E400700040B2
:1034A00040100240881300000000014070470146B0
:1034B00000BF2020405C012801D10220704701227A
:1034C0002020425400BF02222120425400BFCA20C3
:1034D0000A68506253200A68506200BF086880681A
:1034E000202210430A68906000BFFF200A685062E3
:1034F00000BF01222120425400BF0022202042545C
:1035000000BF0020DAE7704710B5044620688068E5
:10351000012109030840000B002811D02068C06871
:1035200009110840000A00280AD02046FFF7EBFFE7
:103530002068C06880210840124908432168C8609B
:1035400020688068012149030840400B002811D001
:103550002068C06809110840400A00280AD02046A7
:10356000FFF7A4FF2068C06880210840064908438F
:103570002168C860012040040449486101212120DC
:10358000015510BD7FFEFFFF7FFDFFFF00040140DE
:1035900070B504460E4600BF2020005D012801D111
:1035A000022070BD01212020015500BF02212120F1
:1035B000015500BFCA202168486253202168486233
:1035C00000BFFF20013086422CD120688068314640
:1035D00088432168886020688068310188432168B9
:1035E0008860FEF79FFC054615E0FEF79BFC401B3C
:1035F0007D21C90088420ED900BFFF2021684862A2
:1036000000BF03212120015500BF002120200155CA
:1036100000BF0320C5E72068C068C007C00F0028AE
:10362000E3D02EE0206880680121490288432168A8
:103630008860206880680121490388432168886088
:10364000FEF770FC054615E0FEF76CFC401B7D2183
:10365000C90088420ED900BFFF202168486200BF20
:1036600003212120015500BF00212020015500BF6A
:10367000032096E72068C06802210840400800281F
:10368000E2D000BFFF202168486200BF0121212055
:10369000015500BF00212020015500BF002080E718
:1036A000F0B506460C461746306840681249084097
:1036B0000546FF2000042840000CE0701F20000297
:1036C0002840000A6070A806800EA0700720400302
:1036D0002840400B2070002F0BD1E07801F03FFE16
:1036E000E070607801F03BFE6070A07801F037FE7A
:1036F000A0700020F0BD00003FFFFF00F0B50546C0
:103700000C4617462868806A606028680069400493
:10371000400CA060286800681249084006463F2017
:1037200000043040000C20707F2000023040000A6E
:1037300060707006400EA070012080053040000CC3
:10374000E070002F0BD1207801F009FE2070607826
:1037500001F005FE6070A07801F001FEA07000206D
:10376000F0BD00007F7F7F0010B50446002C01D122
:10377000012010BD2120005D002805D1002120205E
:103780000155204600F06EF802212120015500BFAE
:10379000CA202168486253202168486200BF204641
:1037A00001F0F7FD002809D000BFFF202168486222
:1037B00000BF0421212001550120DAE7206880683C
:1037C0002749084021688860216960680843A16929
:1037D0000843216889680843216888602168E06897
:1037E000086120680069218909040843216808618B
:1037F0002068C068802188432168C8602068C06C48
:10380000800880002168C8646169E0690843216814
:10381000C96C08432168C86420688068202108407A
:10382000002813D1204600F073FA00280ED000BF04
:10383000FF202168486200BF04212120015500BFFC
:1038400000212020015500BF012092E700BFFF208A
:103850002168486200BF012121200155002088E72E
:10386000BFFF8FFF70470000F7B582B004460D46DA
:1038700000BF2020005D012802D1022005B0F0BD6C
:1038800001212020015500BF02212120015504986B
:1038900000282AD12068806840210840002800D0F4
:1038A00002E00020E87000BFE869002800D100E0D5
:1038B00000BF287801F05FFD0704687801F05BFD28
:1038C00000020743A87801F056FD0743E87800049A
:1038D00007432021485D01F04EFD00060743E869DB
:1038E000074368690743019721E020688068402109
:1038F0000840002800D002E00020E87000BFE8691E
:10390000002800D100E000BF28780004697809028F
:103910000843A9780843E978090408432021495D50
:1039200009060843E9690843696908430190A969E0
:1039300068680843009000BFCA202168486253208D
:103940002168486200BFFF210131686A884241D185
:10395000206880688843216888602068C06880216A
:1039600008404D4908432168C860FEF7DBFA064667
:1039700015E0FEF7D7FA801B7D21C90088420ED9D9
:1039800000BFFF202168486200BF032121200155AC
:1039900000BF00212020015500BF03206EE72068F2
:1039A000C068C007C00F0028E3D001982168C86133
:1039B00000982168486420688068FF21013108432D
:1039C0002168886020688068012109030843216814
:1039D000886043E0206880680121490288432168AB
:1039E00088602068C068802108402C49084321680D
:1039F000C860FEF797FA064615E0FEF793FA801BBB
:103A00007D21C90088420ED900BFFF20216848628D
:103A100000BF03212120015500BF002120200155B6
:103A200000BF03202AE72068C06802210840400840
:103A30000028E2D001982168086200982168886413
:103A40002068806801214902084321688860206855
:103A50008068012149030843216888601048006894
:103A60000121490408430E49086008468068012185
:103A7000490408430A49886000BFFF202168486262
:103A800000BF01212120015500BF00212020015548
:103A900000BF0020F2E600007FFEFFFF7FFDFFFF7A
:103AA00000040140F7B504460D4600BF2020005D2C
:103AB000012801D10220FEBD01212020015500BFB7
:103AC0000221212001550298002809D1687810218F
:103AD0000840102804D16878EF2108400A30687047
:103AE0000298002811D1E87801F045FC07046878B5
:103AF00001F041FC00020743A87801F03CFC0743B9
:103B0000287840033E4606430AE0E87800046978D6
:103B100009020843A978084329784903084306465F
:103B200000BFCA202168486253202168486200BF54
:103B3000204601F02EFC00280ED000BFFF20216897
:103B4000486200BF04212120015500BF0021202030
:103B5000015500BF0120AEE7194830402168486098
:103B60002068C068802188432168C8602068806818
:103B700020210840002813D1204600F0C9F8002871
:103B80000ED000BFFF202168486200BF0421212021
:103B9000015500BF00212020015500BF01208AE708
:103BA00000BFFF202168486200BF0121212001558C
:103BB00000BF00212020015500BF00207BE700004E
:103BC0003FFFFF00F7B504460D4600BF2020005D13
:103BD000012801D10220FEBD01212020015500BF96
:103BE000022121200155029800281BD120688068FD
:103BF00040210840002800D002E00020E87000BF0B
:103C0000287801F0B8FB0704687801F0B4FB0002E3
:103C10000743A87801F0AFFB0743E87800043E466D
:103C2000064314E02068806840210840002800D046
:103C300002E00020E87000BF2878000469780902DB
:103C40000843A9780843E97809040843064600BFF9
:103C5000CA202168486253202168486200BF20467C
:103C600001F097FB00280ED000BFFF2021684862BA
:103C700000BF04212120015500BF00212020015553
:103C800000BF0120A7E72148304021680860206874
:103C90008068012189048843216888602969E8686F
:103CA0000843216889680843216888602068C068E3
:103CB000802188432168C8602068806820210840EE
:103CC000002813D1204600F023F800280ED000BFB2
:103CD000FF202168486200BF04212120015500BF58
:103CE00000212020015500BF012074E700BFFF2004
:103CF0002168486200BF01212120015500BF002139
:103D00002020015500BF002065E700007F7F7F0075
:103D100070B504462068C068A02188432168C86047
:103D2000FEF700F9054608E0FEF7FCF8401B7D2190
:103D3000C900884201D9032070BD2068C0682021D5
:103D400008400028F0D00020F6E7704770B5044620
:103D50002546681E0949884201D901200CE0681EE9
:103D6000074948610321081F01F0D4F800200449E5
:103D7000886107200861002070BD0000FFFFFF0080
:103D800000E000E010B5FFF7E0FF10BD30B50246DF
:103D900000BF3820805C012801D1022030BD012500
:103DA0003820855400BF02253920855410684368A7
:103DB0001068846870251846A843034608680343C2
:103DC00080252046A84304464868044310684360A1
:103DD0001068846001253920855400BF00253820F3
:103DE000855400BF0020D9E710B50446002C01D14E
:103DF000012010BD3920005D002805D100213820A8
:103E00000155204600F00CF8022139200155211DF2
:103E1000206802F0FBF90121392001550020E8E774
:103E200010B504461249206888420ED11148806BB3
:103E3000102108430F498863002211461120FEF724
:103E4000D7F81120FEF7C8F811E00B492068884226
:103E50000DD10848806B2021084306498863002261
:103E600011461220FEF7C4F81220FEF7B5F810BD77
:103E70000010004000100240001400400146086895
:103E8000C068012318430B68D8600868806842073F
:103E9000520F062A05D008680068012318430B68F2
:103EA000186000207047704710B50446206800690C
:103EB00002210840400800281CD02068C068084043
:103EC0004008002816D0481F21680861012020768C
:103ED000206880698007800F002803D02046FFF704
:103EE000E2FF05E0204600F09DF8204600F09BF838
:103EF00000202076206800690421084080080028FE
:103F00001DD02068C06808408008002817D0C8432A
:103F10002168086102202076206880690321090257
:103F20000840002803D02046FFF7BDFF05E02046EB
:103F300000F078F8204600F076F80020207620681F
:103F4000006908210840C00800281CD02068C0680B
:103F50000840C008002816D0C84321680861042022
:103F600020762068C0698007800F002803D0204693
:103F7000FFF799FF05E0204600F054F8204600F0D6
:103F800052F80020207620680069102108400009BE
:103F900000281DD02068C06808400009002817D0FC
:103FA000C84321680861082020762068C069032181
:103FB00009020840002803D02046FFF774FF05E0FF
:103FC000204600F02FF8204600F02DF80020207643
:103FD00020680069C007C00F012148404840002800
:103FE0000CD02068C068084048404840002805D0F0
:103FF000C81E21680861204600F016F82068006994
:1040000040210840800900280BD02068C068084083
:104010008009002805D0C84321680861204600F0C7
:1040200035F810BD7047704770B504461348844298
:1040300023D11348006801210904884203DB0020D2
:104040000F49086004E00E480068401C0C490860F5
:104050000C48FCF708F90546294609480068FCF7B2
:1040600047F8002809D008480068002805D1012039
:104070000549086000200249086070BD041D002049
:104080002C000020E21A0020080000207047704732
:1040900010B50446002C01D1012010BD242060671A
:1040A00020680068400840002168086000202168FE
:1040B00008602168486021688860204600F032F975
:1040C0000020E0676067A06700BF002170200155F5
:1040D00000BF0020E1E77047FEB504462068C569CF
:1040E00020680668206887682807000F01900198FB
:1040F00000280ED12020284000280AD0202030405F
:10410000002806D0206E002802D02046216E884765
:10411000FEBD019800287DD0F807C00F002804D10B
:10412000FF20213030400028F5D0E807C00F0028DC
:104130000BD0FF2001303040002806D0012021683C
:104140000862E06F01210843E06702202840002850
:104150000AD0F807C00F002806D0022021680862A4
:10416000E06F04210843E0670420284000280AD0BB
:10417000F807C00F002806D0042021680862E06F0D
:1041800002210843E0670820284000280ED02020A4
:104190003040002803D1F807C00F002806D00820BF
:1041A00021680862E06F08210843E067E06F00289B
:1041B00046D020202840002809D020203040002868
:1041C00005D0206E002802D02046216E8847E06F7F
:1041D00000902068806840210840402804D00821D1
:1041E00000980840002826D0204602F09DFA20685A
:1041F000806840210840402819D1206880688843A1
:1042000021688860E06E00280DD02548E16E886343
:10421000E06E00E015E0FDF749FB002810D0E06EED
:10422000816B88470CE02046FFF755FF08E02046E9
:10423000FFF751FF04E02046FFF74DFF0020E06745
:1042400066E701200005284000280CD001208005E9
:104250003840002807D00120000521680862204668
:10426000FFF715FF54E78020284000280AD080205F
:104270003040002806D0606E002802D02046616ED3
:10428000884745E740202840002807D0402030409C
:10429000002803D0204602F059FA39E700BF37E77B
:1042A0001167000810B50446002C01D1012010BD93
:1042B000A069002800D000E000BF606F002805D191
:1042C000002170200155204600F070F8242060671E
:1042D000206800684008400021680860204602F01D
:1042E000B1FA012800D1E2E7606A002802D0204636
:1042F00002F05EF9206840680921C90288432168FC
:104300004860206880682A21884321688860206886
:1043100000680121084321680860204602F0C0F9C6
:10432000C5E7000010B504461B49206888420CD13F
:104330001A48806B01218904884318498863032146
:1043400089021748FDF730FC24E0164920688842AE
:104350000DD11248406B0121890388430F494863FE
:104360000321490205200007FDF71EFC12E00E495B
:10437000206888420ED10948806B01214904884396
:10438000064988630C2105200007FDF70DFC1C2061
:10439000FDF716FE10BD000000480040001002406E
:1043A00000040050003801400044004010B586B0C1
:1043B0000446142101A8FBF70EFF544920688842E7
:1043C00024D15348806B01218904084350498863F4
:1043D00000BF0846C06A022108434D49C86208462A
:1043E000C06A02210840009000BF00BF0320800285
:1043F00001900220029000200390032004900420EA
:10440000059001A94348FDF78BFC7CE042492068F8
:10441000884248D13E48406B0121890308433C490A
:10442000486300BF0846C06A012108433849C86292
:104430000846C06AC007C00F009000BF00BF03203D
:10444000400201900220029000200390032004907B
:104450000420059001A905200007FDF761FC2F4805
:104460002F4908600320486000212D488160C16009
:1044700080210161002141618161C1610162FDF71B
:10448000C7FA002801D0FDF703F900BF2448E06611
:10449000846200BF002202211B20FDF7A9FD1B2022
:1044A000FDF79AFD2FE01F49206888422BD118485C
:1044B000806B0121490408431549886300BF084601
:1044C000C06A012108431249C8620846C06AC00791
:1044D000C00F009000BF00BF0C200190022002908E
:1044E00000200390032004900420059001A90520DA
:1044F0000007FDF715FC002211461C20FDF778FD92
:104500001C20FDF769FD06B010BD0000004800400A
:10451000001002400004005000380140300002400A
:10452000CC0700200044004010B50346986F2028B7
:104530007DD1002901D0002A01D1012010BD012424
:1045400024039868A04208D11869002805D1C8073B
:10455000C00F002801D00120F0E700BF7020C05C30
:10456000012801D10220E9E701247020C45400BFD2
:1045700059655820C2525A20C2520020186600BF06
:1045800024039868A0420AD11869002803D1294C55
:104590005C20C45224E0FF245C20C45220E09868D0
:1045A00000280AD11869002803D1FF245C20C452D6
:1045B00016E07F245C20C45212E00124240798688E
:1045C000A0420AD11869002803D17F245C20C4527C
:1045D00006E03F245C20C45202E000245C20C45268
:1045E00000BF0020D86722209867186880680124DF
:1045F00020431C68A060012424039868A04205D1D0
:104600001869002802D10C48186601E00B481866AA
:1046100000BF00247020C45400BF18680068FF2445
:10462000213420431C682060002087E7FFE7022038
:1046300084E70000FF0100006D670008D9670008EB
:104640007047FFB583B004460D461746606F2028BB
:1046500075D1002D01D0002F02D1012007B0F0BD8F
:1046600001210903A068884208D12069002805D1EA
:10467000E807C00F002801D00120EFE700BF70203D
:10468000005D012801D10220E8E7012170200155D9
:1046900000BF0020E06721206067FDF743FC019028
:1046A000502007535220075301210903A068884274
:1046B00005D12069002802D10026029502E02E468D
:1046C0000020029021E006980090002280212046E0
:1046D000019B02F0B7FA002801D00320BEE7002EAC
:1046E00009D102980088C005C00D2168886202982F
:1046F000801C029003E0307821688862761C52208A
:10470000005B401E81B2522001535220005B002802
:10471000D9D106980090002240212046019B02F04A
:1047200091FA002801D0032098E72020606700BF9D
:1047300000217020015500BF00208FE7FFE7022015
:104740008CE7704700BFFEE730B50B46002100BF85
:1047500012E0040F0A2C04D2040F30344D005C55D3
:1047600003E0040F37344D005C55000100254C0078
:10477000641C1D554C1CE1B29142EADB30BD0000C7
:1047800000B587B0142102A8FBF725FD00BF234820
:10479000C06A012108432149C8620846C06AC007AF
:1047A000C00F019000BF00BF00BF0846C06A0221D1
:1047B00008431A49C8620846C06A022108400190AD
:1047C00000BF00BF0022C3211548FDF7A5FB0C2048
:1047D0000290022003900020049003200590042002
:1047E000069002A905200007FDF79AFAC32002905F
:1047F0000120039000200490059002A90848FDF7CD
:104800008FFAFF200130029000200390049002A94B
:1048100005200007FDF784FA07B000BD0010024034
:104820000004005010B51049104805F005FF10496C
:104830000E4805F07BFE0F490C4805F03BFE0E4983
:104840000A4805F049FF0D49084805F079FF0C4971
:10485000064805F013FE0B49044805F089FE0A4995
:10486000024805F0E3FD10BD21A6000884050020E4
:10487000BDA4000885A4000841A60008E1A6000820
:1048800035A4000835A5000833A4000810B501229E
:1048900080210E48FDF740FB002240210B48FDF728
:1048A0003BFBC820FDF708F90948006800681021A3
:1048B0000843074909680860054800680068012145
:1048C000084303490968086010BD00000004005057
:1048D000CC0600201CB50020009001900E480F4926
:1048E00008600F48486000210C4881600D49C16094
:1048F00080214161FFF778FA002801D0FCF7C8FE5B
:1049000000200090019069460448FFF73FFA002814
:1049100001D0FCF7BDFE1CBD00100040041D0020AE
:104920007F0C00001027000010B50E480E490860EB
:104930004B20C001486000210B488160C1600161CB
:104940000C21416100218161C161016200200649A1
:1049500048620846FFF7A6FC002801D0FCF798FE45
:1049600010BD000000380140CC06002010B51648EC
:10497000164908604B20C00148600021134881603F
:10498000C16001610C21416100218161C16101624D
:1049900000200E4948620846FFF784FC002801D039
:1049A000FCF776FE094800680068102108430749B3
:1049B0000968086005480068006801210843034948
:1049C0000968086010BD0000004400404C0700204A
:1049D00010B500220F49104802F0ACFE002801D0AB
:1049E000FCF756FE0D490C4803F0A4F9002801D04D
:1049F000FCF74EFE0A49084802F041FB002801D0AE
:104A0000FCF746FE044803F07DFA002801D0FCF7CD
:104A10003FFE10BD34000020140800207402002066
:104A20008400002070B50020414908808C24422277
:104A300040490A2006F01EFB002804DA42223E49C3
:104A40003C48FBF7AFFBA8223C490B2006F012FBC9
:104A5000002804DAA8223A493848FBF7A3FB2222AF
:104A600038490D2006F006FB002804DA22223649D8
:104A70003448FBF797FB0A223449002006F0B0FACD
:104A8000002802DAFFF772FF15E0304D6B792D79BF
:104A90001B022B431A462D4DEB79AD791B022B439C
:104AA00019462A4D6B782D781B022B439B00284D0D
:104AB000E85806F071FDA2B200232649092006F04D
:104AC000F2FAA2B2234801192346092006F0EBFAB4
:104AD000FF2119312048FBF77EFB6420FCF7ECFF37
:104AE00001211E4805F034FB1D491C4805F032FB2E
:104AF0001C491A4805F035FB1B49184805F025FBF1
:104B00001A491B4806F0ACFC1A49194806F0AEFCDD
:104B10001949174806F0A8FC1849154806F09EFCEC
:104B20001749134806F09EFC1648FFF7A7F970BD19
:104B30009A0000201E1A002018010020601A002090
:104B40005C010020081B002008020020141A00202D
:104B5000E4000020B81D00202C1B00203804002099
:104B6000F14E00080D150008D5130008F960000883
:104B70001C0500209D61000845610008B560000823
:104B800001610008041D002070B5FFB085B0254804
:104B90000078002843D00121490204A8FBF71BFB41
:104BA0007B2069460874002423E00E2060431E49E0
:104BB00040184078002800D11AE0002000900190B1
:104BC000029003900E216143174A88186A4610210B
:104BD00005F08CF804A8FBF729FB04A9461861002E
:104BE0001248435E6A4612A1304604F0DDFA00BF67
:104BF000641C142CD9DB04A8FBF718FB451E002D00
:104C000006D07D2004A9485504A806F013FD02E053
:104C10007FB005B070BD00200249087000BF00BF22
:104C2000F6E7000056020020B81D0020D01E00202C
:104C300025733A2025642C0010B5214800880028EF
:104C400032D020484078032819D11E48C1781E4828
:104C5000007842001D4881521B48007841001B48E3
:104C6000405C000217490979401801B216480078E3
:104C700042001648815201201549086009E00021D0
:104C8000C943114800784200104881520020104961
:104C9000086000200F49088009490880FF21013180
:104CA0000848FBF798FA09E00021C9430648007854
:104CB00042000648815200200549086010BD0000EE
:104CC0009A0000201419002055020020D01E002058
:104CD000580200209800002010B50446012202214D
:104CE0000748FDF719F9074B082221460648FFF748
:104CF000A8FC002202210248FDF70EF910BD0000B9
:104D000000040050102700004C0700207CB5002450
:104D100050E00E2060432A4940184078002800D116
:104D200047E00020009001900E2060432449401885
:104D3000017A6846017003214170002181700E20C4
:104D400060431F494018807A401EC1B26846C17056
:104D50000021017101214171062104F05FFF054628
:104D6000684685712912C17116490C701E20FCF726
:104D7000A3FE002615E014480068002803D0002098
:104D8000114908600FE06846FFF7A6FF0F494A790E
:104D90000B79110219430846FCF78EFEFFF74CFF12
:104DA000761C032EE7DB00BF7D20C000FCF784FEED
:104DB00000BF641C142CACDB0120054908707CBDCD
:104DC000B81D00205502002058020020021B0020C0
:104DD00056020020FCB50446032C05D0062C03D057
:104DE000102C01D0FF20FCBDFF20F630814204DBF7
:104DF0003848814201DC0920F5E736480A30814213
:104E000004DB001D814201DC0C20ECE7314814304A
:104E1000814205DB2F482630814201DC0D20E2E78C
:104E20007D20C000814228DA002223E00620504382
:104E3000294D285A88421BDCD80FC018401045184D
:104E40006D1E06205043244E801900934088C60FE3
:104E5000019030184610062050431F4F385A301822
:104E6000854205DA062050433D4640190079BAE7ED
:104E7000501CC2B20A2AD9DB25E01848814204DB63
:104E80001748814201DC0A20ADE71648814205DB64
:104E900014486330814201DC0A20A4E71048401C1A
:104EA000814205DB0E48C830814201DC0B209AE7C5
:104EB0000D48814205DB0C48C730814201DC0B20E4
:104EC00091E7FF208FE70948814201D154208AE70A
:104ED000FE2088E7810200009C000020A10F000056
:104EE00094110000891300007D150000D107000017
:104EF00070B505460C46FF20F530FCF75FFAA1B20D
:104F00002846FCF7DDF9FF20F530FCF757FA70BDB5
:104F10007047000010B5002819DA1A4A03071B0F62
:104F2000083B9B089B00D2588307DC0EFF23A3405D
:104F30009A438B071B0E8407E40EA3401A43114BC0
:104F40000407240F083CA408A4001A5118E00E4AD4
:104F500003231B02D21883089B00D2588307DC0E60
:104F6000FF23A3409A438B071B0E8407E40EA34044
:104F70001A43054B032424021B198408A4001A5168
:104F800010BD00001CED00E000E100E0012001493F
:104F900008707047B6030020FEB50546CCE12868CE
:104FA00040308088029002980607360F002E70D19C
:104FB000102102980840002836D100BF29680988CE
:104FC000E24A114008460121C90301432A681180C1
:104FD00000BF2C46283428684030008A2178C90058
:104FE0004018801C0122920229688918405A8005C5
:104FF000800DE061E1696069401860610021284628
:10500000FDF74BF82420405D0028C7D0A069002898
:10501000C4D12420405D8021084329684031888123
:1050200000212420415587E12C46FF34293428688B
:10503000008801900121C90201980840002829D068
:1050400028684030008A2178C9004018801D01225C
:10505000920229688918405A8005800DE061A08B72
:1050600083B2E28828680090232000012918009864
:1050700003F05AFF00BF29680988B54A1140084665
:10508000802101432A68118000BF2846FDF785FB77
:1050900052E17CE00121C903019808400028C2D0F8
:1050A00000BF29680988AA4A1140084680210143A7
:1050B0002A68118000BF28684030008A2178C90022
:1050C0004018801D0122920229688918405A8005E3
:1050D000800DE061E06900280BD0A08B83B2E288EC
:1050E00061692868009003F01FFFE169606940185A
:1050F000606100212846FCF7DFFF00BF29680091AE
:10510000296840310A8A00995118009101229202BF
:1051100000998918891D084600BF2269002A09D113
:1051200002888C4B1A40028002880123DB031A4359
:10513000028018E022693E2A0CD200BF2269510881
:10514000227CD207D20F002A00D0491C8A06120CFA
:10515000028008E000BF226951098A020123DB03B3
:105160001A43028000BF00BF00BF00BF2968098842
:10517000794A114008460121090348404900484046
:1051800089000143802211432A681180D4E0B100D4
:105190002868405A01900121C9030198084000285D
:1051A0007ED000BFB2002968895A694A114008467A
:1051B00080210143B3002A68D15200BF7101284603
:1051C000FF3029300C18207B002817D12868403088
:1051D000008A2178C9004018801D012292022968A6
:1051E0008918405A8705BF0D002F54D0E2886169A5
:1051F00028683B46009003F097FE4CE02178890038
:105200002868405A012189030840002817D02868DF
:105210004030008A2178C9004018801C0122920287
:1052200029688918405A8705BF0D002F1ED0228992
:10523000616928683B46009003F076FE16E0286816
:105240004030008A2178C9004018801D0122920256
:1052500029688918405A8705BF0D002F06D062893A
:10526000616928683B46009003F05EFE00BF00BF06
:10527000227892002968895A344A803211400846BF
:105280000121C9030143C022114323789B002A68EE
:10529000D15200BF00BFE069C019E061606900E061
:1052A00012E0C0196061A069002802D02069B842EC
:1052B00004D921782846FCF7FFFE05E0217828462E
:1052C000A3696269FCF7CDFF80210198084000289E
:1052D00032D07101284628300C1800BFB20029686E
:1052E000895A1A4A114008460121C9030143B300F3
:1052F0002A68D15200BF28684030008A2178C9004E
:105300004018801C0122920229688918405A8005A1
:10531000800DE061E169606940186061A069002862
:1053200004D121782846FCF7B8FE05E0217828460C
:10533000A3696269FDF701F828684030808801217F
:10534000C9030840002800D029E6FEBD0F8F0000E9
:105350008F0F0000FF8300008FBF000070470146E1
:10536000F020084000090A23584302460807000FAE
:105370008018C0B2704702460023114603E05B1C50
:1053800008460A38C1B20A29F9D21807000E0843A4
:10539000704770B504462068C06840210840002866
:1053A00015D1401E2168C860FCF7BCFD054608E029
:1053B000FCF7B8FD401B7D21C900884201D90320BC
:1053C00070BD2068C068402108400028F0D000204F
:1053D000F6E7000010B50548FEF796F8FF21013109
:1053E0000248FEF7D5F800F0BDFF10BD4C220020AA
:1053F000FFB599B017461E46199D042E13D10024FF
:105400000DE060002C49085C61004919487060009B
:10541000401C2949085C61006854601CC4B2102C0F
:10542000EFDB1DB0F0BD072E12D100240DE06000AF
:105430002249085C6100491948706000401C1F49FE
:10544000085C61006854601CC4B2102CEFDBE8E714
:10545000062171431A4BC9184A88F0B2694605F013
:10546000BFFD002805DAFF2239462846FAF7ACFED0
:1054700020E01A98684401463A462846FAF792FE18
:10548000082E17D1002410E01A9868446100405C8F
:1054900061004919487069461A9809186000401C53
:1054A000085C61006854601CC4B2F90FC919491046
:1054B000A142E9DC00BFB4E70C0000201C00002082
:1054C0009C0000200FB4F0B589B0182210A903A8E1
:1054D000FAF768FE00240020029010A88679477928
:1054E0000079019010A885780F9C00894F49081A0F
:1054F00080B2029021400298081880B20290E40A1B
:1055000003E04B48241A681C85B249488442F8D20B
:1055100006E0E1200001241A0198401C80B20190AD
:10552000E12000018442F4D202E03C3C781C87B2C6
:105530003C2CFAD2301986B207E00121C902029848
:10554000401A80B20290701C86B20121C9020298F2
:105550008842F2DA04E030463C3886B2781C87B2E2
:105560003C2EF8DA06E038463C3887B20198401CF9
:1055700080B201903C2FF6DA05E00198183880B22D
:105580000190681C85B201981828F6DA10A9C9782C
:10559000002908D010A9C878C117890F09188910E7
:1055A0008900411A16D110A84078401E2149085C94
:1055B000A84225DA10A84078401E0A46115C284609
:1055C000FAF7ACFD8DB26846407B401CC1B268461C
:1055D000417315E010A84078401E1749085CA842A6
:1055E0000EDA10A84078401E0A46115C2846FAF7E9
:1055F00095FD8DB26846407B401CC1B26846417340
:105600000A490298091A059103A886714771019801
:10561000C1B2684601748573182203A90E98FAF77F
:10562000C1FD09B0F0BC08BC04B01847FF0700007A
:105630008051010031B9000825B9000870B58CB05F
:10564000054600BF0024002D08D1684600F0D8F8B8
:105650001822694606A8FAF7A5FD04E01822294693
:1056600006A8FAF79FFD002010E0002807D00146A9
:10567000C217920F521892109200821A02D1274933
:10568000641801E026496418411C08B26946C97EC5
:105690008142EADC6946C97E002908D06946C87E95
:1056A000C117890F091889108900411A0ED10020ED
:1056B00006E01C49095C1C4A51430C19411CC8B244
:1056C0006946497E491E8142F3DC0DE0002006E078
:1056D0001649095C144A51430C19411CC8B2694669
:1056E000497E491E8142F3DC06A8817940793C223B
:1056F000504309186846007FE122120150430918FF
:105700006846807E084A504308180419E102084A96
:105710000898101A0E1830460CB070BD0085E201D2
:105720008033E10131B900088051010025B900083A
:10573000FF070000F1B584B000BF0498FAF7B6FF88
:1057400004460022094BFAF7D1FE06460022084B18
:10575000FAF734FF0191009005F0C0FC039102902C
:1057600003990298FAF7B0FF05B0F0BD0000704051
:1057700000405F40F1B584B000BF0498FAF796FF8F
:1057800004460022094BFAF7B1FE06460022084BF8
:10579000FAF714FF0191009005F0A0FC039102902C
:1057A00003990298FAF790FF05B0F0BD00405F4002
:1057B000000070400F490968884209D90E490978EC
:1057C000012905D100210C4A11700A490968401AC3
:1057D0000849096888420BD9322803D20021074AB8
:1057E000117005E00121054A117002490968401A4B
:1057F00070470000B0030020A8030020A903002088
:1058000070B586B0054600260024002201A9104884
:10581000FDF774FF029E002201A90D48FDF76EFFFF
:10582000029C06E02646002201A90948FDF766FF12
:10583000029CA642F6D1002269460548FDF730FFDA
:10584000182269462846FAF7ADFC06B070BD000084
:105850004C22002070B50026002400250020FFF710
:10586000EDFE04460748FFF7E9FE0546AC4203D2C9
:10587000701E401B061900E0661B3046FFF77AFFDA
:1058800070BD00003422002000B587B023480078A6
:10589000002840D122480069012189040843204999
:1058A0000861204820490860002048600F211E48F8
:1058B00081601E49C160002101618161C161FDF704
:1058C00053FF00216846C171012141718171062198
:1058D0000171002201A91448FEF7E4F8002168468E
:1058E000017201A8417181710491C1710591069104
:1058F000002202A90C48FEF765F90B48FDF7D7FD19
:10590000002201210220FCF773FB0220FCF764FB5C
:1059100001200249087007B000BD0000AB03002061
:1059200040100240002800404C220020FF070000E9
:1059300010B510484068C007C00F012148404840DA
:10594000002806D00B480068042108430949086074
:1059500002E00120084908700848C0680C2108408E
:10596000042804D00548C0680840002801D1FBF78E
:105970000DFC10BD00700040A80300200010024084
:1059800070B504462046FFF7D5FE054600F002F844
:1059900070BD000010B5A0B00446FF2101312548BC
:1059A000FDF7F6FD032C00D8032404A8FFF728FF19
:1059B000182204A91AA8FAF7F5FB18221AA91E48FA
:1059C000FAF7F0FB1CA80FC803936B4607C32146E8
:1059D00004A81B9B1A9AFFF775FD182204A914A8A6
:1059E000FAF7E0FBFF2001301390002011900F9098
:1059F0000F2000061090002108A8C17216980B9085
:105A000014A8817908A8817214A8417908A8417264
:105A100010A8017D08A8017210A8817C01720022E3
:105A20000AA90448FDF720FF002800D000BF20B0DD
:105A300010BD00004C2200203422002070470000DE
:105A40000FB430B591B0359C402101A8FAF7C3FBE3
:105A500001A9204600F098F901A914A804F080F8E3
:105A6000022010A9087414A804F088F801A8FAF715
:105A7000DDFB002808D07D231B011A4605A124A8C0
:105A8000013000F009F8054611B030BC08BC04B084
:105A9000184700004F4B0000FFB5FFB0FFB08BB0C0
:105AA0000021FFA8416201620121890207A8FAF7DB
:105AB00092FB002500210691059100240491039199
:105AC000029101910026FFA8806A002803D0FFA858
:105AD000C06A002804D100207FB07FB00FB0F0BDB5
