:020000040800F2
:1000000038390020D5000008D9480008E941000827
:1000100000000000000000000000000000000000E0
:10002000000000000000000000000000055400086F
:100030000000000000000000254D00089158000855
:10004000E7000008E70000089D4D0008E7000008F1
:10005000E7000008FD12000811130008251300082E
:10006000E7000008E7000008D9100008E7000008D2
:10007000E7000008E7000008E7000008E7000008C4
:10008000E7000008855B0008E700000800000000AA
:10009000E7000008E7000008E7000008E7000008A4
:1000A000E7000008E7000008E700000839660008DC
:1000B000C9660008E70000080000000099880008F1
:1000C0000348854600F012FD00480047C19A000829
:1000D000383900200448804704480047FEE7FEE71F
:1000E000FEE7FEE7FEE7FEE7D5590008C10000087D
:1000F00030B50B46014600202022012409E00D46C0
:10010000D5409D4205D31D469540491B2546954047
:1001100040191546521E002DF1DC30BD70B500248B
:100120002546002801DA01244042002901DA012590
:100130004942FFF7DDFFAC4200D04042002C00D026
:10014000494270BDF0B51FB40646002082B0054696
:100150004024019100901BE0019922460F46304651
:1001600000F0D4FA049A059B801A994110D31046E6
:100170001946224600F0BAFA361A8F4101972246F4
:1001800001200021009F00F0B1FA38184D41009085
:100190002046641E0028DFDC019B00982946324679
:1001A00007B0F0BD03460B439B0703D009E008C925
:1001B000121F08C0042AFAD203E00B780370401C17
:1001C000491C521EF9D27047D2B201E00270401CA5
:1001D000491EFBD270470022F6E710B513460A46C7
:1001E00004461946FFF7F0FF204610BD30B505461E
:1001F0002A460B4610781C78521C5B1C002801D044
:10020000A042F7D0002C03D0002802D06D1CEFE7ED
:10021000284630BD421C0178401C0029FBD1801AC1
:10022000704730B504460020034600E05B1C934253
:1002300003D2E05CCD5C401BF8D030BD03460A78A9
:100240000270401C491C002AF9D11846704703214E
:10025000001D401E037812021A43491EF9D51046AC
:10026000704700000FB400B58DB009900B9010A935
:1002700000200091C0430A9000200C900648069090
:10028000064807906A4609A80F9900F065FA0DB074
:1002900008BC04B018470000790700089907000857
:1002A000FFB50027FF4383B000205C6801909E6883
:1002B0001D46A9697F1C049888470090296A8847D1
:1002C0000028F6D10098401C0CD003204002844343
:1002D000002E19DD600614D500982B2809D02D2892
:1002E0000FD103E00020C04307B0F0BD0120800221
:1002F0000443A9697F1C04988847761E0090002E4D
:1003000002DD0098302803D00598002825D035E07C
:10031000012040020443A969761E7F1C0498884787
:100320000090002E03DD782805D0582803D00598CA
:10033000002810D022E00598002801D010281DD1F7
:10034000012040028443A969761E7F1C04988847D7
:100350000090102002E0082000E00A2005900DE047
:10036000012149020C43059A0199761E5143081850
:100370000190A9697F1C049888470090002E05DD34
:100380000599009800F0D3F90028E9DAE9690498A2
:100390008847A00502D40120C043A5E7E00722D189
:1003A000600611D56005019800D5404229680A1DF4
:1003B0002A600968220501D5087014E0220701D5DA
:1003C000088010E008600EE02868011D29600068C0
:1003D000210502D50199017005E02107019901D598
:1003E000018000E0016038467EE7FFB5002083B061
:1003F000009050680190916914460026976804980F
:10040000884705460C990698084305D009E0A1697C
:10041000761C049888470546216A284688470028A4
:10042000F5D1681C03D00198C00704D017E0002064
:10043000C04307B0F0BD2068011D21600068009036
:100440000DE00198C00704D1009805700098401C89
:100450000090A169761C7F1E049888470546002FEE
:100460001CDD681C1AD0069800280FD0E817C00EB3
:10047000401941118A0006994009511840012A1A71
:100480000968012090400142DBD107E00C98002868
:10049000D7D1216A284688470028D2D0E16904983C
:1004A00088470C98002807D1002E05DD0198C00769
:1004B00002D1009800210170A068B84204DD0C98B8
:1004C000002804D0002F02D00120C043B1E73046FD
:1004D000AFE70000F0B51FB488B00B99099800246D
:1004E00048400999C00F490049080991C0070B9974
:1004F0000090490049080B9109990898A6460843BD
:100500001CD00B990A98084318D009980124400080
:10051000420D4800410D099824050003000B2043BB
:1005200009900B980003000B20430B9050181C49B6
:100530004018002201901446104605E000200146B4
:100540000DB0F0BD032801DA034600E003239C460A
:10055000C11A0AAE0AE05F0008ADED5B4F00F75B21
:100560007D430027AA187C41491C5B1E6145F2DDD2
:10057000410004AB5A522104120C0A43240C401CC3
:100580000828DFDB019802900099704601910090E5
:10059000059B049A0799069800F01DF9D0E7000022
:1005A0000DFCFFFFF0B50C465C4085B0E40FE4079E
:1005B00003944C00002664085900944649080246FA
:1005C0000296224321D062460A431ED06200570D94
:1005D0004A000E032303550D012402462C4924052D
:1005E000781B1B0B360B40182343264361460090B3
:1005F0001C46501AB44103D30098401C009002E0FE
:10060000921800985B41002803DA0020014605B0EB
:10061000F0BD0020012109050746864611E0644629
:100620001D46141BB54106D36546521BB3417446A3
:1006300007430C43A646CD074008490828439218B3
:100640005B4105460D43EAD11046184313D060467E
:10065000194650407140084306D06046101AB34115
:1006600006D20122002306E000220123DB0702E07C
:100670000122D2435310009874460105381C614191
:10068000029C039D0019694100F098F8BFE7000043
:10069000FD0300000EB505490291002100910A46B4
:1006A0000B46019100F097F803B000BD3304000041
:1006B0004A0009030123090B1B051943094B10B517
:1006C000520D9A4201DA002010BD064B34339A4293
:1006D00003DC9A1A00F01AF810BD0349511888403B
:1006E00010BD0000FF030000CDFBFFFF10B5202A66
:1006F00004DB0146203A9140002010BD91402023A8
:100700009C1A0346E3401943904010BD10B5202ABF
:1007100004DB0846203AD040002110BD0B46D340F0
:10072000D0402024A21A91400843194610BD3A280F
:1007300000D23038202302469A43412A01D3104682
:100740003738884201D30020C043704702681378CD
:10075000511801601846704710B5D16004495161C5
:100760000449116200211161114600F0F3F910BD36
:100770004D070008410B00084268002A08D00168B4
:100780000B78491C002B03D0521E06C01846704738
:100790000121C160881E70474268002A0BD0C368DF
:1007A0000168002B07D183688B4204D0491E521C7C
:1007B00006C0002070470020C043704710B5002BD2
:1007C00008DA0024401C614192185B411A4301D1B0
:1007D0004008400010BDF0B51FB482B005460C00C3
:1007E00003D0084608F0B6F902E008F0B3F920306B
:1007F0000246009021462846FFF778FF049B059AA1
:1008000004460F4618431143084314D018461043BA
:100810001BD0009840210A1A18460599FFF776FF69
:1008200005460E46009A05990498FFF75FFF0843B6
:1008300005D0012004E02046394607B0F0BD002075
:10084000C11705430E432C43374300990E986305A7
:10085000401A7905E40A00220C43FD0A0A3002D549
:1008600000200146E9E70105101969410C9C0D9D26
:1008700000196941FFF7A2FFDFE70000F0B5074666
:100880000846584087B0C00F049048000E465900F3
:1008900040084908BC1A884105D2384631461E46F0
:1008A00017460B4602465800400810434CD0300D06
:1008B000039040055900400D490D0590401A0290E3
:1008C000402872DA18030121000B09050843019042
:1008D00004980092002805D00199524200208841D6
:1008E00000920190029840210A1A01990098FFF79E
:1008F000FDFE05460C466B4607CB00F009F9C01912
:100900007141039A0E0D0023D71756401A467A40BC
:10091000164344D0049A002A2DD0029A012A039A41
:1009200015DC1205C01A914101263605001C7141E3
:10093000D20F059ED2070093019202962A462346C3
:10094000FFF749FF07B0F0BD38463146FAE7160514
:10095000224A0F46B218C01AB74101210905001CEE
:100960004F4100187F41114618187941E20F10439A
:100970006D19644113E0E2076D0815436408C2076E
:100980001443039A01261205C01A91413605001C32
:100990007141CE07400830434908C01851412A46EA
:1009A0002346FFF70BFFCDE7FFE704980122400045
:1009B000C117121A00238B4104983146C417381A04
:1009C000A141EEE730B40124E407634030BC55E7B1
:1009D00030B40124E407614030BC4FE70000E0FF81
:1009E000F8B50546480040080C46284304D060008E
:1009F000184A400D904201DD2846F8BD15493539A9
:100A0000884210DC88420BDB290D200308432903B0
:100A1000014305D0E00F1049C00741180020F8BD80
:100A200000200146F8BD161A4020821B28462146A8
:100A3000FFF75CFE07460091284621463246FFF745
:100A400065FE3A46009BFFF7B9FE3246FFF74EFEC1
:100A5000F8BD0000330400000000F03F4A00090325
:100A60000123090B1B0519430A4B10B5520D9A427D
:100A700002DA0020014610BD064B34339A4203DCF3
:100A80009A1AFFF743FE10BD034BD218FFF72EFE54
:100A900010BD0000FF030000CDFBFFFF10B50029D3
:100AA00004DB0124E40740428C412146002B04DB97
:100AB0001C460123DB075242A3418B4200D18242F4
:100AC00010BD000010B5002904DB0124E4074042FA
:100AD0008C412146002B04DB1C460123DB075242DC
:100AE000A341994200D1904210BD0000064C01255F
:100AF000064E05E0E36807CC2B430C3C98471034C6
:100B0000B442F7D3FFF7E0FA40AE000860AE000849
:100B100010B5202A06DBCB170846203A1041C11732
:100B20000B4306E00B461341D0402024A21A91400B
:100B30000843194610BD0000004870473CAE00084D
:100B400010B50446FFF7F8FF0068005DC007C00F4E
:100B500010BD0000F3B58DB000200A9001200B906D
:100B6000002608460C300C4609906269012109985C
:100B70009047051E2ED0252D2DD0216A88470028AC
:100B800018D06269012109989047216A8847002896
:100B9000F7D1411E62690998904700E0761CA1696F
:100BA0000D988847216A88470028F7D1E1690D9898
:100BB0008847DAE7A1690D9888470746A84201D11E
:100BC000761CD2E7E1690D9888477F1C02D10A980C
:100BD000002877D049E1002762693D4639460998E7
:100BE00090472A280CD16269012109989047012574
:100BF00006E00A214F433F18303FEBD41020054355
:100C00006269012109989047014630390A2903D2C7
:100C10009B498F42DEDCECE7E90600D4994F6C2853
:100C20000AD04C2810D0682824D06A282ED07428E6
:100C30000CD07A280AD00DE062690121099890470A
:100C40006C2823D004211CE0202005436269012187
:100C500009989047A760656065284FD026DC582822
:100C600039D01ADC452849D012DC252834D0412857
:100C7000B0D143E06269012109989047682802D009
:100C800008210D43E6E70120C002DEE70220DCE791
:100C9000462833D047282CD130E05B2870D061281B
:100CA0002CD063286CD0642823D161E06F284FD00A
:100CB00009DC662822D0672820D0692826D06E2833
:100CC00017D12EE0CDE070284DD073286FD0752855
:100CD0004ED078280DD154E0A1690D98884705467B
:100CE000252800D16CE7E1690D9888476D1C00D17B
:100CF0006DE7BAE00A224CE00A2252E001202346C6
:100D00006A46C0430D99C046C046A3E0284640212C
:100D100008436060A807234601D5002239E000227D
:100D20003FE0E80700D020E72068011D216000684F
:100D3000290501D5067018E7290701D5068014E7B3
:100D4000A90703D5F117066041600EE706600CE7BE
:100D50002846402108436060A807234601D50822A1
:100D600017E008221DE0484928460840606016E068
:100D70002846402108436060A8072346BCD5B9E750
:100D800015E02846402108436060A80707D52346A0
:100D900010220120C0430D99C046C0465AE02346A8
:100DA00010220120C0430D99FFF77AFA52E000218A
:100DB0000C910B460091632802D05B2807D043E0DA
:100DC000E80601D40120A060012000903CE06269A7
:100DD0000121099890475E2805D101200C90014619
:100DE0006269099890472169002906D10B4601AA3A
:100DF0008F00491CD3510829FADB002835D021691E
:100E000000290ED1C117C90E09184A11930001AA71
:100E10009A1849094901411A01201368884003437F
:100E2000136062690121099890475D28E5D10C980B
:100E3000002808D0002001AB81005A58401CD24342
:100E40005A500828F8DB01AB01202246C0430D9917
:100E5000FFF7CBFA00280ADA401C06D10B980028CD
:100E600003D00020C0430FB0F0BD0A98FBE7E907AC
:100E700002D10A99491C0A91361800200B9074E699
:100E8000CCCCCC0CFFFFFF7FF1F7FFFF70B58C18C7
:100E90000578401C6B075B0F01D10378401C2A11B9
:100EA00006D10278401C03E006780E70401C491CF5
:100EB0005B1EF9D12B0705D40023521E0DD40B70F5
:100EC000491CFAE70378401CCB1A921C03E01D78FA
:100ED0000D70491C5B1C521EF9D5A142D8D30020CD
:100EE00070BD000072B603480078401C01490870CC
:100EF000704700007F03002005480078401E044929
:100F0000087008460078002800D162B670470000DB
:100F10007F03002010B50D480078002805D101207E
:100F20000B49087004F094F901E004F0BBFC074899
:100F30000078002808D101200449087000F002FB65
:100F4000012801D100F0AAF810BD00007C030020A8
:100F50007D030020FFF7C6FF00BF00BF00BF00BF3A
:100F600000BFBFF34F8F00BF00BF00BF0648074957
:100F7000C86000BF00BF00BFBFF34F8F00BF00BFFE
:100F800000BF00BF00BFFDE70400FA0500ED00E070
:100F90000346042B16D008DC002B0FD0012B0ED0FB
:100FA000022B0DD0032B12D10BE0202B0BD0212BC9
:100FB0000AD0222B09D0232B09D107E008E007E053
:100FC00006E005E004E003E002E001E000E000BF2D
:100FD00000BF0020704700207047000010B50022BD
:100FE0000449054805F023FD0449034805F015FDB3
:100FF000002010BDF4140020DC0700200C1100209C
:1010000070B505460C460C48008800280AD12946D0
:101010000A482268FFF7C6F820880949088001209D
:10102000054908802946074805F0F7FC054805F002
:10103000C6FC002070BD000090000020800300204E
:1010400092000020DC070020F8B504460D4600267B
:101050000948076985208000C059002801D0012077
:10106000F8BD2A462146054805F0E1FC034805F095
:1010700075FD06463046F3E75C0A0020DC070020D9
:1010800010B5012149020348FFF7A5F800200249E5
:10109000086010BDA81E00205C03002010B50B489E
:1010A0000078002810D10A490A4804F0C5FD7D21C6
:1010B000C900084804F074FE064804F07BFE00BF37
:1010C000024800780028FBD010BD00007E030020FD
:1010D00055490008E420002010B5024800F07AFAD3
:1010E00010BD0000940700200FB410B59AB01DA8E1
:1010F0000090642101A8009B1C9A07F015FD0020B8
:10110000009001A8FFF786F8C4B2012202210B4823
:1011100000F0D4FC7D231B01224601A9084802F0FF
:10112000E2FF642000F00EF800220221034800F0E4
:10113000C5FC1AB010BC08BC04B01847000400502D
:101140001407002010B50446204600F001F810BD39
:1011500010B50446204600F015FB10BDF8B5044656
:101160000D4617461E46FF20F63084420CDB314800
:10117000844209DC20460B304006010E33463A46D5
:10118000284608F01FFD53E07D20C00084420CDAA1
:1011900006207043284A105A201A4004010C334696
:1011A0003A46284603F008FE42E0244884420CDB1D
:1011B0002348844209DC2148201A4006010E3346A8
:1011C0003A46284609F062F932E01E4884420DDBB7
:1011D0001C486330844209DC1A48201A4006010E7C
:1011E00033463A46284609F095F921E01448401C58
:1011F00084420EDB1248C83084420ADC1048401C8E
:10120000201A4006010E33463A46284608F08CFE66
:101210000EE00D4884420BDB0B48C730844207DCEC
:101220000948201A410033463A46284608F0D2FEC3
:10123000F8BD00008102000098000020A10F00000E
:1012400094110000891300007D150000F8B50446D4
:101250000D4617461E46FF20F63084420EDB23481B
:1012600084420BDC2046FF38F6384004010C33463C
:101270003A46284608F0DEFCC0B2F8BD1C4884425D
:101280000DDB1C4884420ADC1948201A4006010E76
:1012900033463A46284609F0F3F9C0B2EDE715485F
:1012A000401C84420FDB1348C83084420BDC1148D9
:1012B000401C201A4006010E33463A46284608F0E4
:1012C000B5FEC0B2D9E77D20C00084420CDA06200A
:1012D0007043094A105A201A4004010C33463A461A
:1012E000284607F02BFBC8E70120C6E78102000073
:1012F000A10F0000941100009800002010B503F029
:10130000FBFF012000F0CEFA022000F0CBFA10BD66
:1013100010B503F0F1FF042000F0C4FA082000F03B
:10132000C1FA10BD10B503F0E7FF102000F0BAFAC3
:10133000202000F0B7FA402000F0B4FA802000F03E
:10134000B1FAFF20013000F0ADFA0120400200F0B8
:10135000A9FA0120800200F0A5FA0120C00200F0E5
:10136000A1FA0120000300F09DFA0120400300F0E3
:1013700099FA0120800300F095FA0120C00300F0E3
:1013800091FA10BD70470000002039498969FF2299
:1013900001321140914208D1364949690222114374
:1013A000344A5161FF2101310843314989690122E1
:1013B00052021140914208D12E494969012211433C
:1013C0002C4A5161012149020843294989690122B6
:1013D00092021140914208D12649496908221143DD
:1013E000244A516101218902084321498969012266
:1013F000D2021140914208D11E4949690422114389
:101400001C4A51610121C902084319498969012215
:1014100052031140914208D11649496910221143E3
:10142000144A516101214903084311498969012284
:1014300052041140914207D10E49496920221143BB
:101440000C4A51612021084309498969012212048B
:101450001140914208D10749496940221143054A88
:101460005161012109040843014988617047000066
:1014700000200240801D002070B5044600F024FBCF
:1014800005460BE0601C002808D0002C04D000F0BA
:101490001BFB401BA04201D9032070BD1F4880697F
:1014A000C007C00F0028EDD11C4880690221084008
:1014B000022801D11949886118488069FF2101314A
:1014C0000840884223D01548806949000840884276
:1014D0001DD01248806949000840884217D00F4843
:1014E000806949000840884211D00C488069890011
:1014F000084088420BD009488069090108408842A9
:1015000005D00648806949100840884203D1FFF79A
:101510003BFF0120C1E70020BFE7000000200240A0
:1015200010B50446002C00D110BD21460448FEF73A
:101530005DFE002801D00120F6E70020F4E700005E
:10154000A81E00200120704770B50948046945694C
:101550008669A419002C0AD008220649204602F008
:1015600045FE042203491031284602F03FFE70BDBB
:101570004000F81F6600002070B5044600252520B5
:10158000005D022803D00420E063012520E02068EC
:1015900000680E21884321680860206800684008C0
:1015A0004000216808601C21606C084001218140D6
:1015B000206C416001212520015500BF002124201D
:1015C000015500BFA06B002802D02046A16B8847C0
:1015D000284670BD70B50446206C05682068066812
:1015E0001C20616C014004208840284000281DD048
:1015F00004203040002819D02068006820210840CD
:10160000002805D12068006804218843216808600B
:101610001C21606C084004218140206C4160206BDB
:1016200000285AD02046216B884756E01C20616C68
:101630000140022088402840002825D00220304068
:10164000002821D02068006820210840002808D107
:10165000206800680A21884321680860012125204C
:1016600001551C21606C084002218140206C4160C2
:1016700000BF00212420015500BFE06A00282CD0C3
:101680002046E16A884728E01C20616C0140082060
:1016900088402840002820D00820304000281CD056
:1016A000206800680E218843216808601C21606C56
:1016B000084001218140206C41600120E06301214C
:1016C0002520015500BF00212420015500BF606B7B
:1016D000002802D02046616B884770BD70B5044673
:1016E000002C01D1012070BD244A2168881A1421E0
:1016F000FEF7FEFC80006064204808382064022168
:1017000025200155206805681D480540E168A0684E
:1017100008432169084361690843A1690843E169F5
:101720000843216A084305432068056001218903B5
:10173000A068884217D011487830806A1C22616CFA
:1017400011400F228A4090430C49783188621C2254
:10175000616C11406068884008497831896A0843A3
:101760000649783188620020E06301212520015577
:101770000021242001550020B5E7000008000240A8
:101780000F80FFFF70B5044600F09EF9064625461F
:10179000681C002800D06D1C00BF00F095F9801B6C
:1017A000A842FAD370BD00000348406801210843F5
:1017B000014948600020704700200240F8B5044607
:1017C0000D461646012700BF1548007C012801D1AF
:1017D0000220F8BD01201249087400BF1148FFF72C
:1017E0004BFE0746002F14D10D494861022C01D150
:1017F0002E6008E0012C01D12E8004E0002C01D1E4
:101800002E7000E00127002F03D00648FFF734FEBA
:10181000074600BF00200249087400BF3846D8E7D9
:10182000801D002050C300000F484068C007C00F53
:10183000002816D000BFEFF31080014600BF72B63B
:101840000A48094AD0600A48D06000BF81F3108876
:1018500000BF10464068C007C00F002801D001201B
:1018600070470020FCE7000000200240EFCDAB896C
:101870000504030270B504460025002C05DD02E0D6
:101880006410681CC5B2012CFAD1A800044908589C
:10189000002803D0A900024A5058804770BD0000BC
:1018A000F828002010B5044605484069204000286B
:1018B00004D0034844612046FFF7DCFF10BD000060
:1018C0000004014070B50346002200240020DFE040
:1018D000012696400D6835402C46002C77D04D6887
:1018E000022D02D04D68122D15D1D508AE001D462F
:1018F0002035A8595507EE0E0F25B5400646AE43D4
:1019000030465607F60E0D69B5402843D508AD00A0
:101910001E46203670514D68012D08D04D68022DAD
:1019200005D04D68112D02D04D68122D18D1986840
:1019300056000325B5400646AE4330465600CD68F6
:10194000B540284398605868012595400646AE4347
:10195000304610264D6835402D0995402843586083
:10196000186856000325B5400646AE4330460D794B
:10197000AD07AD0F5600B54028431860D868560033
:101980000325B5400646AE43304656008D68B54047
:101990002843D860012636074D683540B54276D1D8
:1019A0003E4D6D6B012635433C4E75633C4D9608AC
:1019B000B600A85995072E0F0F25B5400646AE4331
:1019C000304605252D07AB4202D100251AE05EE026
:1019D000344DAB4201D1012514E0334DAB4201D16E
:1019E00002250FE0314DAB4201D103250AE0304D15
:1019F000AB4201D1042505E02E4DAB4201D10525B6
:101A000000E006259607360FB5402843244D96087A
:101A1000B600A851284D28680546A543284601264A
:101A200036044D683540B54202D105462543284667
:101A3000214D286068680546A5432846012676049E
:101A40004D683540B54202D10546254328461A4D1A
:101A50006860A8680546A5432846012636054D68F6
:101A60003540B54202D1054625432846124DA860AF
:101A7000E8680546A5432846012676054D683540A9
:101A8000B54202D10546254328460B4DE860521C5D
:101A90000D68D540002D00D01AE770BD001002403F
:101AA000080001400004005000080050000C0050E5
:101AB00000100050001C005000040140002A01D01A
:101AC000816100E081627047014800687047000052
:101AD0002402002002480068401C01490860704749
:101AE0002402002010B50024084800684021084363
:101AF00006490860002000F00BF8002801D00124FE
:101B000001E000F01FF8204610BD00000020024058
:101B100070B5044600257D21C90009480068FEF71C
:101B2000E7FA064601F0D8FE002801D0012504E0BE
:101B300000222146501E00F021F8284670BD00000A
:101B4000280200200648406B0121084304494863ED
:101B50000846806B09040843014988637047000008
:101B60000010024000BFC206D20E01219140024A7D
:101B7000116000BF7047000000E100E070B504464E
:101B80000D4616462946204602F0A8FE70BD0246C4
:101B9000116801239B20800083505820405A18432D
:101BA000582358525820405A022318435823585259
:101BB0000020704701460A6801234D20C0004350B1
:101BC000002013235B01CB1818705420805A012386
:101BD0001843542398525420805A02231843542304
:101BE000985200207047704770B505460C4680201B
:101BF0002040802805D16007060E2846283031187D
:101C000004E066012846FF3029303118002A03D14C
:101C100000200873CB8004E0012008730B81180CAE
:101C20004881002070BD70B504460D466B01214609
:101C3000283159184A69272109010859294605F010
:101C400087FA70BD70B504460D466B012146FF3121
:101C5000293159184A69272109010859294605F0EF
:101C60000DFB70BD70B504460E46802030408028C4
:101C700007D17007010E204628300D18012068702A
:101C800007E07007010E2046FF3029300D180020B4
:101C900068707007400F287000BF112040012018A5
:101CA000007A012801D1022070BD012011214901D3
:101CB0006118087200BF2946206806F0F5F900BFD8
:101CC0000020112149016118087200BF00BFEBE735
:101CD00070B504460E463007000F6168884201D98E
:101CE000012070BD80203040802807D17007010E90
:101CF000204628300D180120687007E07007010E9B
:101D00002046FF3029300D18002068700020A87090
:101D10007007400F287000BF112040012018007A82
:101D2000012801D10220DCE70120112149016118BD
:101D3000087200BF2946206806F012FB00BF002091
:101D4000112149016118087200BF00BFC9E70246AE
:101D50004807030E1046FF3029301818C069704735
:101D6000FFB581B005460E461F460020009080203A
:101D70003040802807D17007010E284628300C1803
:101D80000120607007E07007010E2846FF302930FF
:101D90000C18002060707007400F207003982061BD
:101DA000E7706078002801D02078E081022F01D10F
:101DB0000020207100BF112040012818007A01285E
:101DC00002D1022005B0F0BD01201121490169189E
:101DD000087200BF2146286805F02CFF00BF0020D4
:101DE000112149016918087200BF0098EAE7FFB5A0
:101DF00081B005460E4617467007010E2846FF3093
:101E000029300C1867610498A0610020E0616070BF
:101E10007007400F20707007400F002804D1214642
:101E2000286806F033FB03E02146286806F02EFB05
:101E3000002005B0F0BD70B504460D466807400FA0
:101E40006168884201D9012070BD80202840802827
:101E500007D16807010E204628300E180120707047
:101E600006E069012046FF3029300E18002070700E
:101E70000120B0706807400F307000BF1120400192
:101E80002018007A012801D10220DDE7012011216C
:101E900049016118087200BF3146206806F0C8FA8F
:101EA0006807400F002805D1232109016118206827
:101EB00006F052FA00BF0020112149016118087292
:101EC00000BF00BFC0E7FFB581B005460E4617460C
:101ED0007007010E284628300C1867610498A0612D
:101EE0000020E061012060707007400F20707007D3
:101EF000400F002804D12146286806F0C7FA03E005
:101F00002146286806F0C2FA002005B0F0BD0000A6
:101F100010B50446206806F0C7FC0121C90308403B
:101F2000884202D1204602F01BFD206806F0BCFC6E
:101F300001218902084088420DD120684030808804
:101F40008843216840318880204600F093F90021C1
:101F5000204600F0C7F9206806F0A6FC012189039D
:101F60000840884206D12068403080888843216834
:101F700040318880206806F097FC01214903084021
:101F8000884206D1206840308088884321684031EB
:101F90008880206806F088FC0121090308408842F7
:101FA0002BD12068403000885849084021684031D2
:101FB00008802068403000885449091F0840216883
:101FC000403108801320400120180078012808D1F2
:101FD0000020132149016118087000212046FFF7F5
:101FE00002FE204600F05AF9206840308088012126
:101FF00009038843216840318880206806F054FC3A
:102000000121C9020840884224D12068403000885C
:1020100008210843216840310880206840308088CA
:102020000121C902884321684031888020684030FE
:10203000008804210843216840310880206806F0A8
:1020400033FC012109030840000B002802D120467F
:1020500000F094F9206806F027FC802108408028D1
:1020600032D12068403080888843216840318880A0
:102070001320400120180078002822D12068403029
:1020800000880421084321684031088020684030DE
:10209000008808210843216840310880012013216D
:1020A00049016118087020684030808AF02108409A
:1020B000810899208000015101212046FFF793FDFE
:1020C00002E0204600F05AF9206806F0EDFB0121FD
:1020D00049020840884209D12068403080888843FE
:1020E000216840318880204600F0EEF8206806F034
:1020F000DBFBFF2101310840884206D120684030D7
:102100008088884321684031888010BDFBFF000033
:1021100030B585B00446002C02D1012005B030BD99
:10212000112040012018407A002806D111214901D0
:1021300061180872204600F083F80320112149013C
:1021400061184872206806F0FBF8002523E00121A1
:102150006A01204628301018417069012046283055
:10216000455469010818C58100216A0120462830BC
:102170001018C1706A0120462830101801616A01E8
:1021800020462830101841616A0120462830101876
:102190008161681CC5B26068A842D8D8002523E0D8
:1021A00000216A012046FF30293010184170690172
:1021B0002046FF302930455400216A011018C170B3
:1021C0006A012046FF302930101801616A0120465B
:1021D000FF302930101841616A012046FF30293054
:1021E00010188161681CC5B26068A842D8D8142252
:1021F000214610316846FDF7D5FF20460FC806F08E
:102200008FF8002806D00220112149016118487278
:10221000012083E7002124200155012011214901DB
:1022200061184872E069012802D12046FFF7C2FC1C
:10223000206A012802D12046FFF7A9FC00206DE7A3
:1022400010B504460949206888420ED10848806BC1
:102250000121C905084306498863002211461F2051
:10226000FFF78CFC1F20FFF77DFC10BD005C0040D9
:102270000010024070B504460125A068022801D074
:10228000FFF780F8272109010859294605F05BF975
:1022900027210901085905F0FCF870BD10B5044666
:1022A000A069002807D0074800690621884305492E
:1022B000086103F0F3FA27210901085905F020F914
:1022C00010BD000000ED00E010B5044601200449F7
:1022D000087027210901085905F01DF910BD0000FB
:1022E0002E00002070B504460D4600BF11204001AD
:1022F0002018007A012801D1022070BD012011218F
:1023000049016118087200BF24200555294620683C
:1023100006F0EEFA00BF0020112149016118087291
:1023200000BF00BFE9E710B504462721090108599D
:1023300023210901611805F01DF910BD10B50446EF
:1023400000BF112040012018007A012801D102208D
:1023500010BD0120112149016118087200BF2068D9
:1023600005F0D4FF206806F08BFA00BF0020112191
:1023700049016118087200BF00BFE9E710B50446C3
:1023800002200849087027210901085905F05AF967
:10239000A069002805D004480069062108430249C5
:1023A000086110BD2E00002000ED00E0F8B50446E5
:1023B00020212068084020287CD12068084020285F
:1023C00000D100BF00279148806B01210907084018
:1023D000002805D18D48806B08438C49886301270C
:1023E0008B480068FF2101310840002816D1884839
:1023F0000068084386490860FFF766FB064606E06A
:10240000FFF762FB801B642801D90320F8BD8048D8
:102410000068FF21013108400028F1D07B480568A1
:10242000032109050D4060680840A8420DD009113C
:1024300060680840884208D1744800680121490456
:102440000840884201D10120E0E77048403000692F
:102450000321090408400546002D3DD0606808406E
:10246000A84239D0202120680840202834D167486C
:102470004030006903210904884305466348403021
:1024800000690121C90408436049403108610846D8
:1024900000690121C90488435C494031086108464C
:1024A0000561801528408915884215D1FFF70CFB7E
:1024B000064608E039E0FFF707FB801B55498842D4
:1024C00001D90320A2E751484030006901214902A7
:1024D0000840400A0028EED000BF00BF03210904D5
:1024E0006068084088420AD148480068090188436A
:1024F000032212056168114008434449086000BF87
:1025000042484030006903221204616811400843C8
:102510003E494031086100BF012F05D13B48806B27
:10252000890588433949886300BF2078C007C00FF8
:10253000002809D035484030C06880088000A16874
:10254000084332494031C86002212068084002280F
:1025500009D12E484030C0680C218843E168084307
:102560002A494031C86004212068084004280AD163
:1025700026484030C0680321890288432169084306
:1025800022494031C86008212068084008280AD143
:102590001E484030C068032109038843616908432D
:1025A0001A494031C860FF21013120680840884243
:1025B0000AD116484030C068032109048843A16944
:1025C000084312494031C860402120680840402833
:1025D00009D10E484030C06809058843216A084384
:1025E0000A494031C86080212068084080280AD10B
:1025F00006484030C068032189048843E1690843E4
:1026000002494031C860002000E70000001002408D
:102610000070004088130000F8B504460D46002CF9
:1026200001D10120F8BD79480068C007C00FA84259
:102630000ED276480068400840002843734908607D
:1026400008460068C007C00FA84201D00120E9E792
:10265000022120680840022807D16D48C068F02197
:102660008843A16808436A49C8602078C007C00F42
:1026700000284CD06068022809D165480068012113
:1026800049040840400C002824D10120CAE76068B2
:10269000032809D15E480068012149060840400E20
:1026A000002817D10120BDE76068012808D15848EB
:1026B000006804210840800800280BD10120B1E700
:1026C00053480068012149020840400A002801D10E
:1026D0000120A7E74E48C068800880006168084371
:1026E0004B49C860FFF7F0F90646606802280FD131
:1026F00007E0FFF7E9F9801B4649884201D903202A
:1027000090E74348C0680C2108400828F1D134E024
:10271000606803280FD107E0FFF7D6F9801B3D4919
:10272000884201D903207DE73948C0680C21084060
:102730000C28F1D121E0606801280FD107E0FFF7F4
:10274000C3F9801B3349884201D903206AE7304826
:10275000C0680C2108400428F1D10EE007E0FFF723
:10276000B3F9801B2B49884201D903205AE7284836
:10277000C0680C2108400028F1D124480068C00737
:10278000C00FA8420ED921480068400840002843E5
:102790001E49086008460068C007C00FA84201D063
:1027A00001203FE7042120680840042808D1184888
:1027B000C068072109028843E16808431449C860DA
:1027C000082120680840082809D11148C06807215D
:1027D000C90288432169C90008430D49C86000F057
:1027E00049F80B49C968F022114009090A4A515CAD
:1027F000C8400A4908600020FFF78AF90746002F01
:1028000001D038460EE700200CE70000002002400F
:10281000001002408813000080AD0008280200204C
:1028200001480068704700002802002000B5FFF74B
:10283000F7FF0549C968072212021140090A034A35
:10284000515CC84000BD00000010024090AD00087F
:1028500000B5FFF7E5FF0549C9680722D20211401C
:10286000C90A034A515CC84000BD00000010024084
:1028700090AD0008FEB52E48C7680C2038400028EF
:1028800045D0042804D008280CD00C283ED10BE0F9
:102890002748006810210840002801D0254C00E09E
:1028A000254C41E0254C3FE00F2080043840800C4F
:1028B00023490E5C032080053840800D401C0190A8
:1028C0001B48C068012109040840002807D01B49A3
:1028D000714308460199FDF70BFC054614E01448C6
:1028E000006810210840002807D0124971430846AB
:1028F0000199FDF7FDFB054606E00F4971430846C7
:102900000199FDF7F5FB05462C460DE000BF084890
:102910004068072149030840400B00900098401C84
:1029200001218140CC0300BF00BF2046FEBD000056
:102930000010024000093D000024F40000127A005B
:1029400098AD0008FEB50446002C01D10120FEBD63
:10295000FA48C7680C210F40C068012109040840EB
:1029600001902078C007C00F002872D0082F04D033
:102970000C2F0FD1019888420CD1F048006801213A
:1029800049040840400C002863D06068002860D1EA
:102990000120DCE700BF012109046068884205D1FD
:1029A000E64800680843E549086027E00521090476
:1029B000606888420ED1E14800680121890408431B
:1029C000DE49086008460068012109040843DB4924
:1029D000086013E0D9480068012109048843D749F9
:1029E000086008460068012109040840009000BF03
:1029F000D248006889008843D049086000BF6068F9
:102A0000002813D0FFF760F8054606E0FFF75CF8F2
:102A1000401B642801D9032099E7C84800680121B8
:102A200049040840400C0028F0D012E0FFF74CF8B1
:102A3000054606E0FFF748F8401B642801D903204B
:102A400085E7BE480068012149040840400C002881
:102A5000F0D102212068084002286BD1E6682020CE
:102A60003040002809D0B548006820210843B34908
:102A700008602021304688430646042F04D00C2FDE
:102A800033D10198002830D1AC48006804210840B7
:102A90008008002803D0002E01D1012057E7A74865
:102AA00040681F2109028843216909020843A3499C
:102AB0004860084600680921884330439F49086000
:102AC000FFF7D8FE9D49C968F022114009099C4AC8
:102AD000515CC8409B4908600020FFF719F802903C
:102AE000029800283FD0029831E7002E23D0934867
:102AF000006809218843304390490860FEF7E4FFED
:102B0000054606E0FEF7E0FF401B022801D903203E
:102B10001DE78A4800680421084080080028F1D099
:102B2000864840681F210902884321690902084339
:102B30008249486017E081480068400840007F49AA
:102B40000860FEF7C1FF054606E0FEF7BDFF401B2B
:102B5000022801D90320FAE67848006804210840D9
:102B600080080028F1D1102120680840102867D182
:102B7000002F36D17148006849010840400A0028FA
:102B800004D0E069002801D10120E0E66B484068EC
:102B9000072149038843616A084368494860084639
:102BA00040680002000A218C090608436349486016
:102BB000606A400B401C01218140C8035F49C9681D
:102BC000F022114009095E4A515CC8405D49086025
:102BD0000020FEF79DFF0290029800284BD002983B
:102BE000B5E6E06900282CD054480068FF21013187
:102BF000084352490860FEF767FF054606E0FEF706
:102C000063FF401B022801D90320A0E64B4800685F
:102C1000012149020840400A0028F0D04748406896
:102C2000072149038843616A0843444948600846CC
:102C300040680002000A218C090608433F494860A9
:102C400019E03E480068FF21013188433B49086094
:102C5000FEF73AFF054606E0FEF736FF401B022866
:102C600001D9032073E63548006801214902084074
:102C7000400A0028F0D1082120680840082839D1EE
:102C8000606900281BD02D484030006901210843AD
:102C90002A4940310861FEF717FF054606E0FEF7B6
:102CA00013FF401B022801D9032050E6234840307F
:102CB00000690221084040080028F0D01AE01F48AF
:102CC00040300069400840001C4940310861FEF76F
:102CD000FBFE054606E0FEF7F7FE401B022801D981
:102CE000032034E6154840300069022108404008BE
:102CF0000028F0D1042120680840042879D1002060
:102D000000900E48806B89060840002806D10B48C9
:102D1000806B084309498863012000900A480068D5
:102D2000FF210131084000281ED1074800680843F0
:102D300005490860FEF7C8FE05460EE00010024097
:102D400080AD00082802002000700040FEF7BCFEA5
:102D5000401B642801D90320F9E5B3480068FF212E
:102D6000013108400028F1D000BFFF210131A068E7
:102D7000884205D1AD4800690843AC49086130E09C
:102D8000A06800280DD1A9480069FF2101318843BE
:102D9000A64908610846006909158843A3490861E6
:102DA0001FE005210902A06888420DD19F480069F3
:102DB0000121890208439D49086108460069891577
:102DC00008439A4908610CE098480069FF210131E5
:102DD0008843964908610846006909158843934964
:102DE000086100BFA068002815D0FEF76DFE0546FB
:102DF00008E031E0FEF768FE401B8D49884201D9AA
:102E00000320A4E589480069012149020840400ADD
:102E10000028EFD013E0FEF757FE054607E0FEF767
:102E200053FE401B8249884201D903208FE57F4829
:102E30000069012149020840400A0028EFD10098AA
:102E4000012808D179484038806B0121090788435F
:102E500076494039886300BF202120680840202837
:102E600052D1A06900282BD000BF7048403880683C
:102E7000012108436D49403988600846406B0121B3
:102E800008436A49403948636A48006A0121490396
:102E900008436849086200BFFEF716FE054606E0D3
:102EA000FEF712FE401B022801D903204FE55F48C0
:102EB000403880680221084040080028F0D023E014
:102EC00000BF5A48403880684008400057494039A0
:102ED00088605848006A01214903884355490862BF
:102EE00000BFFEF7F1FD054606E0FEF7EDFD401BD5
:102EF000022801D903202AE54C4840388068022185
:102F0000084040080028F0D1A06A00284CD00C2FBF
:102F100069D0A06A022848D144484038006801219D
:102F200009068843414940390860FEF7CDFD054652
:102F300006E0FEF7C9FD401B022801D9032006E583
:102F40003A4840380068012149060840400E0028F0
:102F5000EFD1216BE06A0843616B08433349403984
:102F6000C968FD2212049143084330494039C860C2
:102F7000084600680121090608432C4940390860C9
:102F8000FEF7A2FD054606E0FEF79EFD401B022867
:102F900001D90320DBE425484038006801214906B7
:102FA0000840400E0028EFD03CE020484038006840
:102FB0000121090688431D4940390860FEF784FD58
:102FC000054606E0FEF780FD401B022801D90320DC
:102FD000BDE4164840380068012149060840400E0B
:102FE0000028EFD11EE0A06A012800D1AFE40F480D
:102FF0004038C06801900121090401980840E16A45
:1030000088420DD10F21890401980840216B884224
:1030100006D10321890501980840616B884201D0DF
:10302000012094E4002092E400700040401002402F
:1030300088130000000001407047014600BF2020B7
:10304000405C012801D10220704701222020425417
:1030500000BF02222120425400BFCA200A685062E9
:1030600053200A68506200BF08688068202210431D
:103070000A68906000BFFF200A68506200BF01220A
:103080002120425400BF00222020425400BF0020D3
:10309000DAE7704710B5044620688068012109030B
:1030A0000840000B002811D02068C06809110840B2
:1030B000000A00280AD02046FFF7EBFF2068C0680E
:1030C00080210840124908432168C8602068806850
:1030D000012149030840400B002811D02068C06836
:1030E00009110840400A00280AD02046FFF7A4FF33
:1030F0002068C06880210840064908432168C860EC
:10310000012040040449486101212120015510BDDE
:103110007FFEFFFF7FFDFFFF0004014070B5044606
:103120000E4600BF2020005D012801D1022070BDA5
:1031300001212020015500BF02212120015500BF9F
:10314000CA202168486253202168486200BFFF20DE
:10315000013086422CD1206880683146884321683E
:103160008860206880683101884321688860FEF7A4
:10317000ABFC054615E0FEF7A7FC401B7D21C9000E
:1031800088420ED900BFFF202168486200BF03219A
:103190002120015500BF00212020015500BF032040
:1031A000C5E72068C068C007C00F0028E3D02EE044
:1031B000206880680121490288432168886020686E
:1031C000806801214903884321688860FEF77CFC00
:1031D000054615E0FEF778FC401B7D21C9008842BA
:1031E0000ED900BFFF202168486200BF03212120C3
:1031F000015500BF00212020015500BF032096E7A4
:103200002068C0680221084040080028E2D000BFC2
:10321000FF202168486200BF01212120015500BF25
:1032200000212020015500BF002080E7F0B50646B0
:103230000C46174630684068124908400546FF2092
:1032400000042840000CE0701F2000022840000A03
:103250006070A806800EA070072040032840400B35
:103260002070002F0BD1E07801F05DFDE0706078F8
:1032700001F059FD6070A07801F055FDA0700020AC
:10328000F0BD00003FFFFF00F0B505460C461746B5
:103290002868806A6060286800694004400CA0606B
:1032A000286800681249084006463F200004304064
:1032B000000C20707F2000023040000A6070700611
:1032C000400EA070012080053040000CE070002FFF
:1032D0000BD1207801F027FD2070607801F023FDEC
:1032E0006070A07801F01FFDA0700020F0BD00000C
:1032F0007F7F7F0010B50446002C01D1012010BD56
:103300002120005D002805D1002120200155204604
:1033100000F06EF802212120015500BFCA2021686B
:10332000486253202168486200BF204601F015FD25
:10333000002809D000BFFF202168486200BF042197
:10334000212001550120DAE72068806827490840DC
:1033500021688860216960680843A1690843216881
:1033600089680843216888602168E06808612068EE
:103370000069218909040843216808612068C06840
:10338000802188432168C8602068C06C8008800064
:103390002168C8646169E06908432168C96C084311
:1033A0002168C8642068806820210840002813D163
:1033B000204600F073FA00280ED000BFFF202168DD
:1033C000486200BF04212120015500BF00212020B8
:1033D000015500BF012092E700BFFF20216848622D
:1033E00000BF012121200155002088E7BFFF8FFF8A
:1033F00070470000F7B582B004460D4600BF20209C
:10340000005D012802D1022005B0F0BD012120207D
:10341000015500BF022121200155049800282AD11E
:103420002068806840210840002800D002E0002089
:10343000E87000BFE869002800D100E000BF2878EC
:1034400001F07DFC0704687801F079FC0002074375
:10345000A87801F074FC0743E878000407432021B2
:10346000485D01F06CFC00060743E86907436869A2
:103470000743019721E02068806840210840002828
:1034800000D002E00020E87000BFE869002800D109
:1034900000E000BF28780004697809020843A97891
:1034A0000843E978090408432021495D09060843D7
:1034B000E9690843696908430190A9696868084394
:1034C000009000BFCA2021684862532021684862EA
:1034D00000BFFF210131686A884241D120688068BD
:1034E0008843216888602068C068802108404D4971
:1034F00008432168C860FEF7E7FA064615E0FEF7C4
:10350000E3FA801B7D21C90088420ED900BFFF204D
:103510002168486200BF03212120015500BF00211E
:103520002020015500BF03206EE72068C068C00757
:10353000C00F0028E3D001982168C8610098216875
:10354000486420688068FF21013108432168886051
:10355000206880680121090308432168886043E0EE
:1035600020688068012149028843216888602068BA
:10357000C068802108402C4908432168C860FEF7D4
:10358000A3FA064615E0FEF79FFA801B7D21C900CD
:1035900088420ED900BFFF202168486200BF032186
:1035A0002120015500BF00212020015500BF03202C
:1035B0002AE72068C0680221084040080028E2D0BD
:1035C00001982168086200982168886420688068F2
:1035D0000121490208432168886020688068012130
:1035E00049030843216888601048006801214904A4
:1035F00008430E49086008468068012149040843D1
:103600000A49886000BFFF202168486200BF01218D
:103610002120015500BF00212020015500BF0020BE
:10362000F2E600007FFEFFFF7FFDFFFF0004014088
:10363000F7B504460D4600BF2020005D012801D1EA
:103640000220FEBD01212020015500BF02212120C2
:1036500001550298002809D16878102108401028E7
:1036600004D16878EF2108400A3068700298002879
:1036700011D1E87801F063FB0704687801F05FFB83
:1036800000020743A87801F05AFB0743287840035B
:103690003E4606430AE0E8780004697809020843D8
:1036A000A9780843297849030843064600BFCA2081
:1036B0002168486253202168486200BF204601F01B
:1036C0004CFB00280ED000BFFF202168486200BFDD
:1036D00004212120015500BF00212020015500BFF9
:1036E0000120AEE719483040216848602068C06872
:1036F000802188432168C8602068806820210840B4
:10370000002813D1204600F0C9F800280ED000BFD1
:10371000FF202168486200BF04212120015500BF1D
:1037200000212020015500BF01208AE700BFFF20B3
:103730002168486200BF01212120015500BF0021FE
:103740002020015500BF00207BE700003FFFFF0065
:10375000F7B504460D4600BF2020005D012801D1C9
:103760000220FEBD01212020015500BF02212120A1
:103770000155029800281BD120688068402108402C
:10378000002800D002E00020E87000BF287801F097
:10379000D6FA0704687801F0D2FA00020743A87845
:1037A00001F0CDFA0743E87800043E46064314E0F2
:1037B0002068806840210840002800D002E00020F6
:1037C000E87000BF28780004697809020843A978E6
:1037D0000843E97809040843064600BFCA20216867
:1037E000486253202168486200BF204601F0B5FAC4
:1037F00000280ED000BFFF202168486200BF0421CE
:103800002120015500BF00212020015500BF0120CB
:10381000A7E72148304021680860206880680121BE
:1038200089048843216888602969E8680843216819
:1038300089680843216888602068C06880218843BF
:103840002168C8602068806820210840002813D1C2
:10385000204600F023F800280ED000BFFF2021688A
:10386000486200BF04212120015500BF0021202013
:10387000015500BF012074E700BFFF2021684862A6
:1038800000BF01212120015500BF0021202001554A
:1038900000BF002065E700007F7F7F0070B5044611
:1038A0002068C068A02188432168C860FEF70CF931
:1038B000054608E0FEF708F9401B7D21C900884253
:1038C00001D9032070BD2068C0682021084000286D
:1038D000F0D00020F6E7704770B504462546681E14
:1038E0000949884201D901200CE0681E0749486156
:1038F0000321081F00F0F2FF00200449886107201F
:103900000861002070BD0000FFFFFF0000E000E044
:1039100010B5FFF7E0FF10BD30B5024600BF3820FC
:10392000805C012801D1022030BD0125382085545A
:1039300000BF0225392085541068436810688468E8
:1039400070251846A843034608680343802520468F
:10395000A8430446486804431068436010688460C4
:1039600001253920855400BF00253820855400BF2B
:103970000020D9E710B50446002C01D1012010BD6C
:103980003920005D002805D100213820015520464E
:1039900000F00CF8022139200155211D206802F0A9
:1039A000F9F80121392001550020E8E710B5044657
:1039B0001249206888420ED11148806B10210843BB
:1039C0000F498863002211461120FEF7D7F8112015
:1039D000FEF7C8F811E00B49206888420DD108486D
:1039E000806B20210843064988630022114612207B
:1039F000FEF7C4F81220FEF7B5F810BD0010004025
:103A0000001002400014004001460868C06801230D
:103A100018430B68D860086880684207520F062A6E
:103A200005D008680068012318430B68186000205F
:103A30007047704710B504462068006902210840AD
:103A4000400800281CD02068C068084040080028B2
:103A500016D0481F216808610120207620688069FF
:103A60008007800F002803D02046FFF7E2FF05E023
:103A7000204600F09DF8204600F09BF800202076BC
:103A80002068006904210840800800281DD02068B3
:103A9000C06808408008002817D0C8432168086122
:103AA000022020762068806903210902084000284E
:103AB00003D02046FFF7BDFF05E0204600F078F870
:103AC000204600F076F80020207620680069082162
:103AD0000840C00800281CD02068C0680840C00802
:103AE000002816D0C8432168086104202076206889
:103AF000C0698007800F002803D02046FFF799FF98
:103B000005E0204600F054F8204600F052F800206E
:103B100020762068006910210840000900281DD087
:103B20002068C06808400009002817D0C8432168F1
:103B30000861082020762068C06903210902084036
:103B4000002803D02046FFF774FF05E0204600F070
:103B50002FF8204600F02DF800202076206800691C
:103B6000C007C00F01214840484000280CD0206801
:103B7000C068084048404840002805D0C81E216859
:103B80000861204600F016F82068006940210840CE
:103B9000800900280BD02068C068084080090028F0
:103BA00005D0C84321680861204600F027F810BD01
:103BB0007047704770B504460C48844215D10C48D4
:103BC0000088401C0A4908800A48FCF740FB05466B
:103BD000294607480088FCF78BFA002805D0012009
:103BE0000549086000200249088070BD8C1B002038
:103BF0002C000020AA1A00200800002070477047FF
:103C000070470000FEB504462068C5692068066854
:103C1000206887682807000F0190019800280ED1BE
:103C20002020284000280AD020203040002806D03C
:103C3000206E002802D02046216E8847FEBD0198E4
:103C400000287DD0F807C00F002804D1FF202130C4
:103C500030400028F5D0E807C00F00280BD0FF2027
:103C600001303040002806D0012021680862E06F52
:103C700001210843E0670220284000280AD0F80705
:103C8000C00F002806D0022021680862E06F0421DE
:103C90000843E0670420284000280AD0F807C00F36
:103CA000002806D0042021680862E06F0221084342
:103CB000E0670820284000280ED02020304000284F
:103CC00003D1F807C00F002806D008202168086239
:103CD000E06F08210843E067E06F002846D020200D
:103CE0002840002809D020203040002805D0206E30
:103CF000002802D02046216E8847E06F009020689F
:103D0000806840210840402804D0082100980840DD
:103D1000002826D0204602F0CBF920688068402198
:103D20000840402819D1206880688843216888604D
:103D3000E06E00280DD02548E16E8863E06E00E05B
:103D400015E0FDF719FC002810D0E06E816B884764
:103D50000CE02046FFF754FF08E02046FFF750FF35
:103D600004E02046FFF74CFF0020E06766E70120F3
:103D70000005284000280CD001208005384000288C
:103D800007D001200005216808622046FFF737FFB1
:103D900054E78020284000280AD0802030400028A6
:103DA00006D0606E002802D02046616E884745E745
:103DB00040202840002807D040203040002803D071
:103DC000204602F087F939E700BF37E7996000081D
:103DD00010B50446002C01D1012010BDA0690028B7
:103DE00000D000E000BF606F002805D100217020E6
:103DF0000155204600F02CF82420606720680068F8
:103E00004008400021680860204602F0DFF90128E0
:103E100000D1E2E7606A002802D0204602F08CF868
:103E2000206840680921C9028843216848602068E9
:103E300080682A2188432168886020680068012101
:103E4000084321680860204602F0EEF8C5E700004C
:103E500010B586B00446142101A8FCF7BCF95449FA
:103E60002068884224D15348806B0121890408438B
:103E70005049886300BF0846C06A022108434D4983
:103E8000C8620846C06A02210840009000BF00BF17
:103E90000320800201900220029000200390032062
:103EA00004900420059001A94348FDF70BFD7CE038
:103EB00042492068884248D13E48406B012189032D
:103EC00008433C49486300BF0846C06A01210843D3
:103ED0003849C8620846C06AC007C00F009000BFDA
:103EE00000BF0320400201900220029000200390B6
:103EF000032004900420059001A905200007FDF788
:103F0000E1FC2F482F4908600320486000212D481C
:103F10008160C16080210161002141618161C161D5
:103F20000162FDF7DBFB002801D0FDF72BFA00BF93
:103F30002448E066846200BF002202211B20FDF7B6
:103F40001DFE1B20FDF70EFE2FE01F492068884252
:103F50002BD11848806B0121490408431549886317
:103F600000BF0846C06A012108431249C8620846DA
:103F7000C06AC007C00F009000BF00BF0C200190B6
:103F8000022002900020039003200490042005905A
:103F900001A905200007FDF795FC002211461C2011
:103FA000FDF7ECFD1C20FDF7DDFD06B010BD0000A7
:103FB000004800400010024000040050003801405A
:103FC00030000240940700200044004010B5034632
:103FD000986F20287DD1002901D0002A01D101202D
:103FE00010BD012424039868A04208D11869002854
:103FF00005D1C807C00F002801D00120F0E700BF9D
:104000007020C05C012801D10220E9E70124702062
:10401000C45400BF59655820C2525A20C2520020D1
:10402000186600BF24039868A0420AD118690028C6
:1040300003D1294C5C20C45224E0FF245C20C452EC
:1040400020E0986800280AD11869002803D1FF24CD
:104050005C20C45216E07F245C20C45212E001248C
:1040600024079868A0420AD11869002803D17F2448
:104070005C20C45206E03F245C20C45202E00024CD
:104080005C20C45200BF0020D867222098671868BF
:104090008068012420431C68A060012424039868E0
:1040A000A04205D11869002802D10C48186601E029
:1040B0000B48186600BF00247020C45400BF186865
:1040C0000068FF24213420431C682060002087E71B
:1040D000FFE7022084E70000FF010000F560000810
:1040E000616100087047FFB583B004460D4617466E
:1040F000606F202875D1002D01D0002F02D1012042
:1041000007B0F0BD01210903A068884208D12069E9
:10411000002805D1E807C00F002801D00120EFE7F3
:1041200000BF7020005D012801D10220E8E70121D5
:104130007020015500BF0020E06721206067FDF777
:10414000C3FC01905020075352200753012109035B
:10415000A068884205D12069002802D10026029576
:1041600002E02E460020029021E0069800900022F6
:1041700080212046019B02F029FA002801D003206B
:10418000BEE7002E09D102980088C005C00D216845
:1041900088620298801C029003E03078216888626F
:1041A000761C5220005B401E81B2522001535220E7
:1041B000005B0028D9D106980090002240212046BB
:1041C000019B02F003FA002801D0032098E7202089
:1041D000606700BF00217020015500BF00208FE7FD
:1041E000FFE702208CE7704700BFFEE730B50B46C3
:1041F000002100BF12E0040F0A2C04D2040F303457
:104200004D005C5503E0040F37344D005C55000150
:1042100000254C00641C1D554C1CE1B29142EADBA8
:1042200030BD000000B587B0142102A8FBF7D3FF12
:1042300000BF2348C06A012108432149C8620846DB
:10424000C06AC007C00F019000BF00BF00BF084692
:10425000C06A022108431A49C8620846C06A02219E
:104260000840019000BF00BF0022C3211548FDF7A0
:1042700025FC0C20029002200390002004900320D3
:1042800005900420069002A905200007FDF71AFBFF
:10429000C32002900120039000200490059002A901
:1042A0000848FDF70FFBFF2001300290002003902B
:1042B000049002A905200007FDF704FB07B000BD2C
:1042C000001002400004005010B51049104805F0DD
:1042D000A4FD10490E4805F077FD0F490C4805F084
:1042E00037FD0E490A4805F0E7FD0D49084805F07D
:1042F00017FE0C49064805F00FFD0B49044805F070
:1043000085FD0A49024805F0DBFC10BD139E00083C
:104310004C050020599D0008219D0008219E0008A1
:10432000C19E0008C99C0008D19D0008C79C0008D8
:1043300010B5012280210E48FDF7C0FB002240216C
:104340000B48FDF7BBFBC820FDF71CFA09480068C5
:10435000006810210843074909680860054800689B
:1043600000680121084303490968086010BD000086
:1043700000040050940600201CB50020009001901D
:104380000E480F4908600F48486000210C488160C2
:104390000D49C16080214161FFF7ECFA002801D08E
:1043A000FCF7F0FF00200090019069460448FFF7F9
:1043B000B3FA002801D0FCF7E5FF1CBD0010004057
:1043C0008C1B00207F0C00001027000010B50E4849
:1043D0000E4908604B20C001486000210B488160F5
:1043E000C16001610C21416100218161C1610162F3
:1043F0000020064948620846FFF7EAFC002801D081
:10440000FCF7C0FF10BD00000038014094060020FA
:1044100010B51648164908604B20C00148600021BD
:1044200013488160C16001610C21416100218161FB
:10443000C161016200200E4948620846FFF7C8FCCE
:10444000002801D0FCF79EFF094800680068102191
:1044500008430749096808600548006800680121A9
:10446000084303490968086010BD0000004400408B
:104470001407002010B500220F49104802F01EFE5C
:10448000002801D0FCF77EFF0D490C4803F016F917
:10449000002801D0FCF776FF0A49084802F0B3FA79
:1044A000002801D0FCF76EFF044803F0EFF9002864
:1044B00001D0FCF767FF10BD30000020DC070020B2
:1044C0003C0200208000002010B50020294908800F
:1044D0008C24422228490A2006F082F9002804DAB6
:1044E000422226492448FBF75DFEA62224490B20E0
:1044F00006F076F9002804DAA62222492048FBF7C4
:1045000051FEA2B200232049092006F082F9A2B28E
:104510001D4801192346092006F07BF96420FDF7A8
:1045200031F90121194805F0BFFA1949174805F07A
:10453000BDFA1849154805F0C0FA1749134805F0A7
:10454000B0FA1649164806F0C5FA1649144806F09E
:10455000C7FA1549124806F0C1FA1449104806F086
:10456000B7FA13490E4806F0B7FA1248FFF74CFAAB
:1045700010BD000096000020E61900201401002064
:10458000281A002058010020401C002000040020B0
:10459000B94800084D1200085D110008815A000852
:1045A000E4040020255B0008CD5A00083D5A0008AD
:1045B000895A00088C1B002070B5FFB085B02548D3
:1045C0000078002843D00121490204A8FBF703FE2C
:1045D0007B2069460874002423E00E2060431E49B6
:1045E00040184078002800D11AE000200090019087
:1045F000029003900E216143174A88186A461021E1
:1046000005F020F804A8FBF705FE04A94618610090
:104610001248435E6A4612A1304604F071FA00BFA8
:10462000641C142CD9DB04A8FBF7F4FD451E002DF7
:1046300006D07D2004A9485504A806F08DFA02E0B2
:104640007FB005B070BD00200249087000BF00BFF8
:10465000F6E7000022020020401C0020581D002028
:1046600025733A2025642C0010B51C4800880028CA
:104670002CD01B484078032816D11948C178194816
:1046800000784200184881521648007841001648C8
:10469000405C000212490979401801B211480078C3
:1046A00042001148815206E00021C9430D480078BC
:1046B00042000D48815200200C49088007490880BB
:1046C000FF2101310648FBF786FD06E00021C943C2
:1046D0000448007842000448815210BD9600002032
:1046E000DC18002021020020581D0020940000202A
:1046F00010B50446012202210748FDF7DFF9074BF8
:10470000082221460648FFF7EEFC0022022102485B
:10471000FDF7D4F910BD0000000400501027000080
:10472000140700207CB500243DE00E2060432149A1
:1047300040184078002800D134E00020009001901B
:104740000E2060431B494018017A6846017003211E
:104750004170002181700E20604316494018817A13
:104760006846C1700021017101214171062104F0E8
:1047700001FF0546684685712912C1710E490C700A
:10478000002608E06846FFF7B3FF6420FCF7FAFF55
:10479000FFF76AFF761C022EF4DB7D200001FCF798
:1047A000F1FF00BF641C142CBFDB0120034908701B
:1047B0007CBD0000401C00202102002022020020BD
:1047C000FCB50446032C05D0062C03D0102C01D0D8
:1047D000FF20FCBDFF20F630814204DB2F488142E0
:1047E00001DC0920F5E77D20C000814228DA0022A3
:1047F00023E0062050432A4D285A88421BDCD80F5C
:10480000C018401045186D1E06205043244E8019D4
:1048100000934088C60F0190301846100620504380
:104820001F4F385A3018854205DA062050433D465E
:1048300040190079CDE7501CC2B20A2AD9DB25E025
:104840001848814204DB1848814201DC0A20C0E795
:104850001648814205DB15486330814201DC0A209D
:10486000B7E71148401C814205DB0F48C830814240
:1048700001DC0B20ADE70E48814205DB0C48C73058
:10488000814201DC0B20A4E7FF20A2E70948814216
:1048900001D154209DE7FE209BE70000810200002B
:1048A00098000020A10F000094110000891300005F
:1048B0007D150000D107000070B505460C46FF20AD
:1048C000F530FCF73FFCA1B22846FCF7BDFBFF200A
:1048D000F530FCF737FC70BD7047000010B50028BC
:1048E00019DA1A4A03071B0F083B9B089B00D25892
:1048F0008307DC0EFF23A3409A438B071B0E84071C
:10490000E40EA3401A43114B0407240F083CA408EB
:10491000A4001A5118E00E4A03231B02D218830880
:104920009B00D2588307DC0EFF23A3409A438B07DA
:104930001B0E8407E40EA3401A43054B03242402F4
:104940001B198408A4001A5110BD00001CED00E0E2
:1049500000E100E001200149087070477E0300205B
:10496000FEB50546CCE12868403080880290029868
:104970000607360F002E70D110210298084000283B
:1049800036D100BF29680988E24A11400846012152
:10499000C90301432A68118000BF2C4628342868C7
:1049A0004030008A2178C9004018801C0122920200
:1049B00029688918405A8005800DE061E1696069C5
:1049C0004018606100212846FDF72DF92420405D44
:1049D0000028C7D0A0690028C4D12420405D8021D0
:1049E000084329684031888100212420415587E10E
:1049F0002C46FF3429342868008801900121C9021F
:104A000001980840002829D028684030008A217881
:104A1000C9004018801D0122920229688918405A55
:104A20008005800DE061A08B83B2E2882868009049
:104A3000232000012918009803F03AFF00BF2968DD
:104A40000988B54A11400846802101432A6811802F
:104A500000BF2846FDF767FC52E17CE00121C90355
:104A6000019808400028C2D000BF29680988AA4AD6
:104A700011400846802101432A68118000BF286840
:104A80004030008A2178C9004018801D012292021E
:104A900029688918405A8005800DE061E069002886
:104AA0000BD0A08B83B2E28861692868009003F084
:104AB000FFFEE16960694018606100212846FDF74A
:104AC000C1F800BF29680091296840310A8A00991D
:104AD000511800910122920200998918891D0846F7
:104AE00000BF2269002A09D102888C4B1A4002803B
:104AF00002880123DB031A43028018E022693E2A60
:104B00000CD200BF22695108227CD207D20F002AA2
:104B100000D0491C8A06120C028008E000BF2269FE
:104B200051098A020123DB031A43028000BF00BF40
:104B300000BF00BF29680988794A11400846012151
:104B4000090348404900484089000143802211433D
:104B50002A681180D4E0B1002868405A01900121F0
:104B6000C9030198084000287ED000BFB200296820
:104B7000895A694A1140084680210143B3002A68D6
:104B8000D15200BF71012846FF3029300C18207B1C
:104B9000002817D128684030008A2178C9004018C1
:104BA000801D0122920229688918405A8705BF0D8D
:104BB000002F54D0E288616928683B46009003F0DA
:104BC00077FE4CE0217889002868405A012189034A
:104BD0000840002817D028684030008A2178C90092
:104BE0004018801C0122920229688918405A8705C2
:104BF000BF0D002F1ED02289616928683B460090B6
:104C000003F056FE16E028684030008A2178C9007B
:104C10004018801D0122920229688918405A870590
:104C2000BF0D002F06D06289616928683B4600905D
:104C300003F03EFE00BF00BF227892002968895A27
:104C4000344A8032114008460121C9030143C02281
:104C5000114323789B002A68D15200BF00BFE0694E
:104C6000C019E061606900E012E0C0196061A069EC
:104C7000002802D02069B84204D921782846FCF7E0
:104C8000E1FF05E021782846A3696269FDF7AFF8E6
:104C9000802101980840002832D071012846283030
:104CA0000C1800BFB2002968895A1A4A11400846F8
:104CB0000121C9030143B3002A68D15200BF28680B
:104CC0004030008A2178C9004018801C01229202DD
:104CD00029688918405A8005800DE061E1696069A2
:104CE00040186061A069002804D121782846FCF7AB
:104CF0009AFF05E021782846A3696269FDF7E3F889
:104D00002868403080880121C9030840002800D06D
:104D100029E6FEBD0F8F00008F0F0000FF8300000B
:104D20008FBF000070470146F020084000090A23A9
:104D3000584302460807000F8018C0B27047024669
:104D40000023114603E05B1C08460A38C1B20A2959
:104D5000F9D21807000E0843704770B50446206862
:104D6000C06840210840002815D1401E2168C86055
:104D7000FCF7AAFE054608E0FCF7A6FE401B7D21D5
:104D8000C900884201D9032070BD2068C068402155
:104D900008400028F0D00020F6E7000010B50548D4
:104DA000FEF778F9FF2101310248FEF7B7F900F06C
:104DB0009DFF10BDC0200020FFB599B017461E46CC
:104DC000199D042E13D100240DE060002C49085CCD
:104DD0006100491948706000401C2949085C610065
:104DE0006854601CC4B2102CEFDB1DB0F0BD072E60
:104DF00012D100240DE060002249085C61004919CD
:104E000048706000401C1F49085C61006854601CC9
:104E1000C4B2102CEFDBE8E7062171431A4BC91826
:104E20004A88F0B2694605F091FC002805DAFF22B5
:104E300039462846FBF7C8F920E01A98684401462D
:104E40003A462846FBF7AEF9082E17D1002410E0A9
:104E50001A9868446100405C6100491948706946CD
:104E60001A9809186000401C085C61006854601CB6
:104E7000C4B2F90FC9194910A142E9DC00BFB4E777
:104E80000C0000201C000020980000200FB4F0B59A
:104E900089B0182210A903A8FBF784F90024002088
:104EA000029010A8867947790079019010A885783A
:104EB0000F9C00894F49081A80B202902140029845
:104EC000081880B20290E40A03E04B48241A681CD8
:104ED00085B249488442F8D206E0E1200001241A54
:104EE0000198401C80B20190E12000018442F4D27C
:104EF00002E03C3C781C87B23C2CFAD2301986B2D6
:104F000007E00121C9020298401A80B20290701C89
:104F100086B20121C90202988842F2DA04E03046E2
:104F20003C3886B2781C87B23C2EF8DA06E0384668
:104F30003C3887B20198401C80B201903C2FF6DAD1
:104F400005E00198183880B20190681C85B201987C
:104F50001828F6DA10A9C978002908D010A9C8784D
:104F6000C117890F091889108900411A16D110A894
:104F70004078401E2149085CA84225DA10A84078F4
:104F8000401E0A46115C2846FBF7C8F88DB26846F9
:104F9000407B401CC1B26846417315E010A84078C0
:104FA000401E1749085CA8420EDA10A84078401E3F
:104FB0000A46115C2846FBF7B1F88DB26846407B83
:104FC000401CC1B2684641730A490298091A05910A
:104FD00003A8867147710198C1B268460174857350
:104FE000182203A90E98FBF7DDF809B0F0BC08BC45
:104FF00004B01847FF07000080510100ADAD000864
:10500000A1AD000870B58CB0054600BF0024002D8E
:1050100008D1684600F0D8F81822694606A8FBF7C0
:10502000C1F804E01822294606A8FBF7BBF80020C7
:1050300010E0002807D00146C217920F52189210B4
:105040009200821A02D12749641801E026496418A7
:10505000411C08B26946C97E8142EADC6946C97EC4
:10506000002908D06946C87EC117890F0918891020
:105070008900411A0ED1002006E01C49095C1C4A37
:1050800051430C19411CC8B26946497E491E8142F0
:10509000F3DC0DE0002006E01649095C144A514398
:1050A0000C19411CC8B26946497E491E8142F3DC95
:1050B00006A8817940793C22504309186846007F50
:1050C000E1221201504309186846807E084A504385
:1050D00008180419E102084A0898101A0E183046F8
:1050E0000CB070BD0085E2018033E101ADAD000878
:1050F00080510100A1AD0008FF070000F1B584B0A8
:1051000000BF0498FBF7C6FA04460022094BFBF7E0
:10511000E1F906460022084BFBF744FA01910090A2
:1051200005F092FB0391029003990298FBF7C0FAF5
:1051300005B0F0BD0000704000405F40F1B584B0A4
:1051400000BF0498FBF7A6FA04460022094BFBF7C0
:10515000C1F906460022084BFBF724FA01910090A2
:1051600005F072FB0391029003990298FBF7A0FAF5
:1051700005B0F0BD00405F40000070400F49096875
:10518000884209D90E490978012905D100210C4A24
:1051900011700A490968401A0849096888420BD900
:1051A000322803D20021074A117005E00121054A87
:1051B000117002490968401A704700007803002006
:1051C000700300207103002070B586B005460026EC
:1051D0000024002201A91048FEF756F8029E002282
:1051E00001A90D48FEF750F8029C06E02646002271
:1051F00001A90948FEF748F8029CA642F6D1002210
:1052000069460548FEF712F8182269462846FAF75B
:10521000C9FF06B070BD0000C020002070B5002698
:10522000002400250020FFF7EDFE04460748FFF7A5
:10523000E9FE0546AC4203D2701E401B061900E091
:10524000661B3046FFF77AFF70BD0000A8200020E3
:1052500000B587B023480078002840D12248006973
:105260000121890408432049086120482049086039
:10527000002048600F211E4881601E49C160002146
:1052800001618161C161FEF735F800216846C17195
:1052900001214171817106210171002201A9144887
:1052A000FEF7C6F900216846017201A841718171BB
:1052B0000491C17105910691002202A90C48FEF7E4
:1052C00047FA0B48FDF7B9FE002201210220FCF746
:1052D00055FC0220FCF746FC01200249087007B08B
:1052E00000BD000073030020401002400028004071
:1052F000C0200020FF07000010B510484068C0071C
:10530000C00F012148404840002806D00B480068E3
:10531000042108430949086002E001200849087097
:105320000848C0680C210840042804D00548C0681B
:105330000840002801D1FBF7EDFD10BD00700040D2
:10534000700300200010024070B504462046FFF7AD
:10535000D5FE054600F002F870BD000010B5A0B003
:105360000446FF2101312548FDF7D8FE032C00D863
:10537000032404A8FFF728FF182204A91AA8FAF7A3
:1053800011FF18221AA91E48FAF70CFF1CA80FC813
:1053900003936B4607C3214604A81B9B1A9AFFF789
:1053A00075FD182204A914A8FAF7FCFEFF200130AD
:1053B0001390002011900F900F20000610900021F4
:1053C00008A8C17216980B9014A8817908A8817258
:1053D00014A8417908A8417210A8017D08A801729B
:1053E00010A8817C017200220AA90448FEF702F885
:1053F000002800D000BF20B010BD0000C020002059
:10540000A8200020704700000FB430B591B0359C43
:10541000402101A8FAF7DFFE01A9204600F078F943
:1054200001A914A804F048F8022010A9087414A8CF
:1054300004F050F87D231B011A4605A124A8013071
:1054400000F008F8054611B030BC08BC04B018479D
:105450004F4B0000FFB5FFB0FFB08DB007460021F5
:10546000FFA8C16281620121890209A8FAF7B3FE8F
:1054700000250021089107910024069105910491CF
:1054800003910026002F03D0FFA8406B002804D111
:1054900000207FB07FB011B0F0BD3846FAF7BAFEF9
:1054A000002806D03846FAF7B5FE01218902884265
:1054B00001D90020EDE70020884908803846FAF736
:1054C000A9FE05463846FAF7A5FE02463946019080
:1054D00009A8FAF767FE012281A109A8FAF7A1FE3F
:1054E000002810D0681E385C0D280CD001208002E6
:1054F000854205D26D1C0D21681E09AA115402E0D7
:105500000120C043C5E7FBF7BBFD0020FFA9C8622F
:10551000029000BF00BF73480068C0694021084086
:1055200080090028F7D00798002807D0FCF7CCFAAC
:105530000899421AFFA9C86B824216D9FCF7C4FA2F
:105540000890AAB2FFA809A9836B6648FEF7CBFDB5
:105550000146FFA88162806A002804D00020C04371
:10556000FFA9C86201E001200790FFA8406BFAF78D
:1055700051FE00280CD0FFA8406BFBF7D1FF00289C
:1055800006D00120FFA9C86200205749086023E027
:10559000FFA8406BFAF73EFE002807D14F4800886D
:1055A000012803DD0120FFA9C86215E04FA0FBF729
:1055B000B7FF002810D00020C043FFA9C8624A48A6
:1055C0000068401C4849086008460068042803DD5C
:1055D00000200860FBF7BEFC1420FBF7B3FDFFA81A
:1055E000C06A002804D10299481C0290C82991DBA6
:1055F000404941A0FBF778FD0298C82802D1FBF78B
:10560000A9FC02E0012040490860FFA8C06A012807
:1056100061D1FFA8406BFAF7FDFD00285BD0394649
:105620003448FAF7E3FD05900598002853D0384632
:10563000FAF7F0FD01462F4A0598801A0C1800BFB2
:10564000FF2C00DB0BE02B48005D0D2803D0294820
:10565000005D0A2801D1641C00E000E0F0E700BF13
:1056600024490819FFA9496BFAF7C0FD0490049872
:10567000002830D01F4909190498411A0691069E46
:10568000069EA019401E03900EE01A490398085C7C
:105690000D2803D00398085C0A2801D1761E00E08B
:1056A00005E00398401E039003980028EDDC00BF3E
:1056B000002E10DD0F4801193246FAF773FD13482A
:1056C000066002461268FF23991A0A4A03461B68BD
:1056D000D018FAF780FDFFA8C06ADAE6440300207C
:1056E0007B00000094060020640300204552524FC6
:1056F00052000000A81E002076616C7565203D20D8
:1057000025730D0A00000000580300205C030020F0
:1057100070B504460D46002C11D12748FAF77AFDE2
:10572000002847D0244820304178027808021043EE
:105730000346214A21A1284603F0E2F93AE0012C70
:105740000CD11D482230FAF765FD002832D01A4AE4
:1057500022321DA1284603F0D3F92BE0022C0CD1F4
:1057600015488630FAF756FD002823D0124A8632B3
:1057700018A1284603F0C4F91CE0032C0CD10E48F4
:105780009630FAF747FD002814D00B4A963215A13F
:10579000284603F0B5F90DE0042C0BD10648623021
:1057A000FAF738FD002805D0034A623211A12846D5
:1057B00003F0A6F970BD0000281A00202255524CB3
:1057C000222C25732C25640022544F504943222C4F
:1057D0002573000022555345524E414D45222C253C
:1057E000730000002250415353574F5244222C253E
:1057F0007300000022434C49454E544944222C2555
:105800007300000010B5FBF7CFFF10BD70B5044664
:105810000D460748844202D30648844200D970BD31
:1058200000F032F820882880FFF7ECFF00BFF6E791
:1058300000000808FF170808F7B507460C460025C2
:10584000032618E00E48844202D30E48844201D950
:105850000020FEBD00F018F821463846029AFBF7FA
:10586000ADFF0546FFF7CEFF002D02D0701EC6B279
:1058700001E00020EDE7002EE4D12846E9E7000032
:1058800000000808FF17080810B5FBF7CDFF10BD92
:1058900010B5FCF71FF9FEF73BF810BD10B500F08E
:1058A00043F810BD1E48806B0121090708431C49BD
:1058B00088631C4800680321C90288430121C9028A
:1058C0004018184908601648006809218843401CA0
:1058D0001349086000BF124800680421084080088E
:1058E0000028F8D00E480068890508430C49086074
:1058F00000BF0B480068012149060840400E0028FF
:10590000F7D00748C06880088000C01C0449C86000
:1059100000BF0348C0680C2108400C28F9D170472B
:10592000001002400070004000B59DB038210FA863
:10593000FAF751FC14210AA8FAF74DFC242101A81A
:10594000FAF749FC224800680321C9028843012173
:10595000C90240181E4908602A200F9001201290A9
:10596000102013900120159014900220199000210E
:105970001A9181041B9181051C910FA8FCF7E2FF8D
:10598000002801D0FBF7FEFC0F200A9003200B90AB
:1059900000200C900D900E9001210AA8FCF73CFE0F
:1059A000002801D0FBF7EEFC672001900020039057
:1059B000049005900120400402904002099001A843
:1059C000FCF7F4FC002801D0FBF7DCFC1DB000BDA7
:1059D0000070004015480068FF2101310843134959
:1059E00008600846C068124908401049C860084667
:1059F0000068104908400D49086008468068400862
:105A000040008860084600680121890488430749EE
:105A100008600846C068FD21090488430349C8603E
:105A200000200861C80304498860704700100240E4
:105A30000C40FF88F6FFF6FE00ED00E010B590B0D8
:105A400040216846FAF7C7FB40216846FAF7C3FBD6
:105A500006A1684603F054F87D231B011A4607A1EE
:105A60006846FFF7F7FC044610B010BD41542B43C5
:105A700041434C4F53453D30000000004F4B000068
:105A800010B504F06DFD10BD10B590B04021684612
:105A9000FAF7A1FB40216846FAF79DFB06A168468C
:105AA00003F02EF87D231B011A4607A16846FFF775
:105AB000D1FC044610B010BD41542B434E41435419
:105AC0003D302C30000000004F4B000030B591B04D
:105AD000402101A8FAF77FFB0C4C0DA1204603F0F2
