:020000040800F2
:1000000058390020D5000008E14B0008E144000801
:1000100000000000000000000000000000000000E0
:100020000000000000000000000000000D57000864
:1000300000000000000000002D500008D95B0008FF
:10004000E7000008E7000008A5500008E7000008E6
:10005000E7000008B9150008CD150008E1150008F3
:10006000E7000008E700000851130008E700000857
:10007000E7000008E7000008E7000008E7000008C4
:10008000E7000008CD5E0008E7000008000000005F
:10009000E7000008E7000008E7000008E7000008A4
:1000A000E7000008E7000008E70000088169000891
:1000B000116A0008E700000800000000E18B00085A
:1000C0000348854600F01EFD00480047099E0008D1
:1000D000583900200448804704480047FEE7FEE7FF
:1000E000FEE7FEE7FEE7FEE71D5D0008C100000831
:1000F00030B50B46014600202022012409E00D46C0
:10010000D5409D4205D31D469540491B2546954047
:1001100040191546521E002DF1DC30BD70B500248B
:100120002546002801DA01244042002901DA012590
:100130004942FFF7DDFFAC4200D04042002C00D026
:10014000494270BDF0B51FB40646002082B0054696
:100150004024019100901BE0019922460F46304651
:1001600000F0E0FA049A059B801A994110D31046DA
:100170001946224600F0C6FA361A8F4101972246E8
:1001800001200021009F00F0BDFA38184D41009079
:100190002046641E0028DFDC019B00982946324679
:1001A00007B0F0BD03460B439B0703D009E008C925
:1001B000121F08C0042AFAD203E00B780370401C17
:1001C000491C521EF9D27047D2B201E00270401CA5
:1001D000491EFBD270470022F6E710B513460A46C7
:1001E00004461946FFF7F0FF204610BD421E537823
:1001F000521C002BFBD10B781370491C521C002B96
:10020000F9D1704730B505462A460B4610781C7860
:10021000521C5B1C002801D0A042F7D0002C03D058
:10022000002802D06D1CEFE7284630BD421C017843
:10023000401C0029FBD1801A704730B504460020CD
:10024000034600E05B1C934203D2E05CCD5C401BA4
:10025000F8D030BD03460A780270401C491C002AC1
:10026000F9D1184670470321001D401E0378120281
:100270001A43491EF9D51046704700000FB400B567
:100280008DB009900B9010A900200091C0430A90F6
:1002900000200C9006480690064807906A4609A878
:1002A0000F9900F065FA0DB008BC04B018470000C3
:1002B00091070008B1070008FFB50027FF4383B08E
:1002C00000205C6801909E681D46A9697F1C049807
:1002D00088470090296A88470028F6D10098401C7A
:1002E0000CD0032040028443002E19DD600614D593
:1002F00000982B2809D02D280FD103E00020C043FF
:1003000007B0F0BD012080020443A9697F1C049856
:100310008847761E0090002E02DD0098302803D01A
:100320000598002825D035E0012040020443A96942
:10033000761E7F1C049888470090002E03DD7828E5
:1003400005D0582803D00598002810D022E0059841
:10035000002801D010281DD1012040028443A96942
:10036000761E7F1C049888470090102002E0082029
:1003700000E00A2005900DE0012149020C43059A96
:100380000199761E514308180190A9697F1C0498B1
:1003900088470090002E05DD0599009800F0D3F9FC
:1003A0000028E9DAE96904988847A00502D4012009
:1003B000C043A5E7E00722D1600611D5600501988A
:1003C00000D5404229680A1D2A600968220501D526
:1003D000087014E0220701D5088010E008600EE0E4
:1003E0002868011D29600068210502D50199017066
:1003F00005E02107019901D5018000E00160384640
:100400007EE7FFB5002083B00090506801909169AD
:100410001446002697680498884705460C99069864
:10042000084305D009E0A169761C04988847054671
:10043000216A284688470028F5D1681C03D0019816
:10044000C00704D017E00020C04307B0F0BD20680B
:10045000011D2160006800900DE00198C00704D1E3
:10046000009805700098401C0090A169761C7F1EC2
:10047000049888470546002F1CDD681C1AD0069892
:1004800000280FD0E817C00E401941118A000699C4
:100490004009511840012A1A096801209040014280
:1004A000DBD107E00C980028D7D1216A284688477D
:1004B0000028D2D0E169049888470C98002807D119
:1004C000002E05DD0198C00702D1009800210170BF
:1004D000A068B84204DD0C98002804D0002F02D098
:1004E0000120C043B1E73046AFE70000F0B51FB4CC
:1004F00088B00B990998002448400999C00F490019
:1005000049080991C0070B990090490049080B91CF
:1005100009990898A64608431CD00B990A980843E5
:1005200018D0099801244000420D4800410D099857
:1005300024050003000B204309900B980003000BD7
:1005400020430B9050181C4940180022019014467B
:10055000104605E0002001460DB0F0BD032801DA89
:10056000034600E003239C46C11A0AAE0AE05F007E
:1005700008ADED5B4F00F75B7D430027AA187C4177
:10058000491C5B1E6145F2DD410004AB5A52210457
:10059000120C0A43240C401C0828DFDB019802904F
:1005A0000099704601910090059B049A079906985E
:1005B00000F01DF9D0E700000DFCFFFFF0B50C4680
:1005C0005C4085B0E40FE40703944C000026640807
:1005D00059009446490802460296224321D06246B9
:1005E0000A431ED06200570D4A000E032303550D27
:1005F000012402462C492405781B1B0B360B40189E
:1006000023432643614600901C46501AB44103D34D
:100610000098401C009002E0921800985B4100286E
:1006200003DA0020014605B0F0BD002001210905D4
:100630000746864611E064461D46141BB54106D3A5
:100640006546521BB341744607430C43A646CD078B
:1006500040084908284392185B4105460D43EAD1FA
:100660001046184313D06046194650407140084365
:1006700006D06046101AB34106D20122002306E0DC
:1006800000220123DB0702E00122D243531000982D
:1006900074460105381C6141029C039D00196941A3
:1006A00000F098F8BFE70000FD0300000EB5054913
:1006B0000291002100910A460B46019100F097F843
:1006C00003B000BD330400004A0009030123090BF5
:1006D0001B051943094B10B5520D9A4201DA00204F
:1006E00010BD064B34339A4203DC9A1A00F01AF814
:1006F00010BD03495118884010BD0000FF030000E1
:10070000CDFBFFFF10B5202A04DB0146203A9140C3
:10071000002010BD914020239C1A0346E34019435A
:10072000904010BD10B5202A04DB0846203AD04086
:10073000002110BD0B46D340D0402024A21A914086
:100740000843194610BD3A2800D23038202302460B
:100750009A43412A01D310463738884201D30020FA
:10076000C0437047026813785118016018467047FB
:1007700010B5D16004495161044911620021116131
:10078000114600F0F3F910BD65070008590B000889
:100790004268002A08D001680B78491C002B03D05E
:1007A000521E06C0184670470121C160881E70475E
:1007B0004268002A0BD0C3680168002B07D1836808
:1007C0008B4204D0491E521C06C0002070470020F6
:1007D000C043704710B5002B08DA0024401C61416B
:1007E00092185B411A4301D14008400010BDF0B59A
:1007F0001FB482B005460C0003D0084608F04EFB3B
:1008000002E008F04BFB20300246009021462846CB
:10081000FFF778FF049B059A04460F4618431143DF
:10082000084314D0184610431BD0009840210A1AE0
:1008300018460599FFF776FF05460E46009A05997A
:100840000498FFF75FFF084305D0012004E020462D
:10085000394607B0F0BD0020C11705430E432C43B5
:10086000374300990E986305401A7905E40A00227F
:100870000C43FD0A0A3002D500200146E9E70105D4
:10088000101969410C9C0D9D00196941FFF7A2FFE9
:10089000DFE70000F0B507460846584087B0C00FB4
:1008A000049048000E46590040084908BC1A884187
:1008B00005D2384631461E4617460B4602465800BA
:1008C000400810434CD0300D039040055900400DB6
:1008D000490D0590401A0290402872DA1803012150
:1008E000000B09050843019004980092002805D0E8
:1008F00001995242002088410092019002984021C3
:100900000A1A01990098FFF7FDFE05460C466B4652
:1009100007CB00F009F9C0197141039A0E0D0023AD
:10092000D71756401A467A40164344D0049A002AF4
:100930002DD0029A012A039A15DC1205C01A9141A2
:1009400001263605001C7141D20F059ED207009387
:10095000019202962A462346FFF749FF07B0F0BDF1
:1009600038463146FAE71605224A0F46B218C01A31
:10097000B74101210905001C4F4100187F41114674
:1009800018187941E20F10436D19644113E0E20732
:100990006D0815436408C2071443039A0126120523
:1009A000C01A91413605001C7141CE074008304302
:1009B0004908C01851412A462346FFF70BFFCDE7EF
:1009C000FFE7049801224000C117121A00238B414F
:1009D00004983146C417381AA141EEE730B4012417
:1009E000E407634030BC55E730B40124E4076140BC
:1009F00030BC4FE70000E0FFF8B50546480040086E
:100A00000C46284304D06000184A400D904201DD96
:100A10002846F8BD15493539884210DC88420BDB81
:100A2000290D200308432903014305D0E00F104995
:100A3000C00741180020F8BD00200146F8BD161A75
:100A40004020821B28462146FFF75CFE07460091A6
:100A5000284621463246FFF765FE3A46009BFFF7DF
:100A6000B9FE3246FFF74EFEF8BD00003304000029
:100A70000000F03F4A0009030123090B1B0519433D
:100A80000A4B10B5520D9A4202DA0020014610BD01
:100A9000064B34339A4203DC9A1AFFF743FE10BD2B
:100AA000034BD218FFF72EFE10BD0000FF0300001D
:100AB000CDFBFFFF10B5002904DB0124E407404211
:100AC0008C412146002B04DB1C460123DB075242EC
:100AD000A3418B4200D1824210BD000010B5002915
:100AE00004DB0124E40740428C412146002B04DB57
:100AF0001C460123DB075242A341994200D1904298
:100B000010BD0000064C0125064E05E0E36807CC49
:100B10002B430C3C98471034B442F7D3FFF7D4FA78
:100B200088B30008A8B3000810B5202A06DBCB174D
:100B30000846203A1041C1170B4306E00B4613410B
:100B4000D0402024A21A91400843194610BD00004D
:100B50000048704784B3000810B50446FFF7F8FF5B
:100B60000068005DC007C00F10BD0000F3B58DB078
:100B700000200A9001200B90002608460C300C46FD
:100B800009906269012109989047051E2ED0252DF4
:100B90002DD0216A8847002818D062690121099860
:100BA0009047216A88470028F7D1411E6269099859
:100BB000904700E0761CA1690D988847216A884714
:100BC0000028F7D1E1690D988847DAE7A1690D9807
:100BD00088470746A84201D1761CD2E7E1690D9803
:100BE00088477F1C02D10A98002877D049E1002766
:100BF00062693D463946099890472A280CD16269B6
:100C0000012109989047012506E00A214F433F182A
:100C1000303FEBD4102005436269012109989047C9
:100C2000014630390A2903D29B498F42DEDCECE7CA
:100C3000E90600D4994F6C280AD04C2810D06828B7
:100C400024D06A282ED074280CD07A280AD00DE03F
:100C500062690121099890476C2823D004211CE087
:100C6000202005436269012109989047A7606560CB
:100C700065284FD026DC582839D01ADC452849D0C1
:100C800012DC252834D04128B0D143E0626901212B
:100C900009989047682802D008210D43E6E7012013
:100CA000C002DEE70220DCE7462833D047282CD1FB
:100CB00030E05B2870D061282CD063286CD0642889
:100CC00023D161E06F284FD009DC662822D0672845
:100CD00020D0692826D06E2817D12EE0CDE07028CC
:100CE0004DD073286FD075284ED078280DD154E0A0
:100CF000A1690D9888470546252800D16CE7E16970
:100D00000D9888476D1C00D16DE7BAE00A224CE0CF
:100D10000A2252E0012023466A46C0430D99C0468C
:100D2000C046A3E02846402108436060A807234648
:100D300001D5002239E000223FE0E80700D020E79B
:100D40002068011D21600068290501D5067018E79B
:100D5000290701D5068014E7A90703D5F117066016
:100D600041600EE706600CE72846402108436060BA
:100D7000A807234601D5082217E008221DE04849AC
:100D800028460840606016E028464021084360601D
:100D9000A8072346BCD5B9E715E0284640210843FB
:100DA0006060A80707D5234610220120C0430D9993
:100DB000C046C0465AE0234610220120C0430D9988
:100DC000FFF77AFA52E000210C910B46009163285C
:100DD00002D05B2807D043E0E80601D40120A060E0
:100DE000012000903CE062690121099890475E284B
:100DF00005D101200C90014662690998904721694C
:100E0000002906D10B4601AA8F00491CD35108299D
:100E1000FADB002835D0216900290ED1C117C90E8F
:100E200009184A11930001AA9A1849094901411A5F
:100E30000120136888400343136062690121099807
:100E400090475D28E5D10C98002808D0002001AB20
:100E500081005A58401CD2435A500828F8DB01AB95
:100E600001202246C0430D99FFF7CBFA00280ADA89
:100E7000401C06D10B98002803D00020C0430FB0BF
:100E8000F0BD0A98FBE7E90702D10A99491C0A91CB
:100E9000361800200B9074E6CCCCCC0CFFFFFF7F03
:100EA000F1F7FFFF70B58C180578401C6B075B0FDE
:100EB00001D10378401C2A1106D10278401C03E0BE
:100EC00006780E70401C491C5B1EF9D12B0705D417
:100ED0000023521E0DD40B70491CFAE70378401C06
:100EE000CB1A921C03E01D780D70491C5B1C521E2E
:100EF000F9D5A142D8D3002070BD000005480649AD
:100F0000086006488860064848600648C860064889
:100F100008617047251000088C1D00205D10000836
:100F2000D5100008910F0008E90F00087CB50446B1
:100F30000D4621466846FFF78DF909F095FC6420BF
:100F400000F092FD114908688047642000F08CFD94
:100F50002846FFF76BF90646083E0C4832466946BC
:100F6000436828469847C82000F07EFD0748C168BE
:100F700068468847642000F077FD04490869804787
:100F8000642000F071FD09F06FFC7CBD8C1D002019
:100F900010B5C8B004460FA11FA808F083FC0220BA
:100FA00018A90877234600220CA140A807F04CFF9F
:100FB00040A91FA808F024FC0AA0712223A91D90B3
:100FC0006846FFF7EFF81FA80FC800F007FC48B00D
:100FD00010BD0000434653474649530025642C2565
:100FE000730000004F4B000000B5BFB009A11EA860
:100FF00008F058FC032018A9087609A0712222A93C
:101000001D906846FFF7CEF81EA80FC800F0E6FB5B
:101010003FB000BD434653545245414D00000000CF
:101020004F4B000000B5BFB009A11EA808F03AFC64
:10103000032018A9087608A0712222A91D906846ED
:10104000FFF7B0F81EA80FC800F0C8FB3FB000BD06
:10105000434653494E4954004F4B000070B5A8B069
:1010600004460D4612A103A808F01CFC02206946A4
:101070000873002000902346024610A101950290BB
:1010800024A807F0E1FE24A903A808F0B9FB03A8EF
:1010900008F0C4FB0E4B1A4607A113A8013004F058
:1010A00063FB0646142000F0DFFC28B070BD000092
:1010B0004346535246494C450000000025642C220B
:1010C0002573222C25642C25642C25640000000047
:1010D00010270000F0B5A9B006460C46154616A12B
:1010E00004A808F0DFFB02206946087415480021B7
:1010F00023460A4601950091029013A125A807F006
:10110000A3FE25A904A808F07BFB04A808F086FB31
:101110000C4B1A460AA114A8013004F025FB07461F
:10112000142000F0A1FC074B1A460BA1304604F036
:101130001BFB29B0F0BD00004346535746494C45C0
:10114000000000001027000025642C25732C256466
:101150002C25642C256400004F4B000072B6034818
:101160000078401C01490870704700008B03002084
:1011700005480078401E0449087008460078002899
:1011800000D162B6704700008B03002010B50D48F7
:101190000078002805D101200B49087004F0DCF923
:1011A00001E004F023FD07480078002808D1012061
:1011B0000449087000F038FB012801D100F0AAF8BA
:1011C00010BD00008803002089030020FFF7C6FF40
:1011D00000BF00BF00BF00BF00BFBFF34F8F00BF05
:1011E00000BF00BF06480749C86000BF00BF00BF7E
:1011F000BFF34F8F00BF00BF00BF00BF00BFFDE7C0
:101200000400FA0500ED00E00346042B16D008DCCC
:10121000002B0FD0012B0ED0022B0DD0032B12D19F
:101220000BE0202B0BD0212B0AD0222B09D0232B13
:1012300009D107E008E007E006E005E004E003E08C
:1012400002E001E000E000BF00BF00207047002086
:101250007047000010B500220449054805F08BFDD9
:101260000449034805F07DFD002010BD0015002055
:10127000E80700201811002070B505460C460C4800
:10128000008800280AD129460A482268FEF78AFF0A
:101290002088094908800120054908802946074817
:1012A00005F05FFD054805F02EFD002070BD000033
:1012B000940000208C03002096000020E807002006
:1012C000F8B504460D4600260948076985208000C8
:1012D000C059002801D00120F8BD2A462146054802
:1012E00005F049FD034805F0DDFD06463046F3E70D
:1012F000680A0020E807002010B5012149020348D0
:10130000FEF769FF00200249086010BDC81E0020DA
:101310006803002010B50B480078002810D10A4956
:101320000A4804F02DFE7D21C900084804F0DCFEC7
:10133000064804F0E3FE00BF024800780028FBD016
:1013400010BD00008A0300205D4C0008042100202D
:1013500010B5024800F0B0FA10BD0000A007002050
:101360000FB410B59AB01DA80090642101A8009B8D
:101370001C9A07F07DFD0020009001A8FEF756FFA3
:10138000C4B2012202210B4800F00AFD7D231B019B
:10139000224601A9084803F022F8642000F00EF864
:1013A00000220221034800F0FBFC1AB010BC08BC6C
:1013B00004B01847000400502007002010B5044670
:1013C000204600F001F810BD10B50446204600F09C
:1013D0004BFB10BDF8B504460D4617461E46FF20D0
:1013E000F63084420CDB3948844209DC20460B305D
:1013F0004006010E33463A46284608F0E3FD64E015
:1014000032480A3084420CDB001D844209DC001F94
:10141000201A4006010E33463A46284609F0FEFCE3
:1014200053E07D20C00084420CDA06207043284A35
:10143000105A201A4004010C33463A46284603F05D
:101440003FFE42E0234884420CDB2348844209DC0F
:101450002048201A4006010E33463A46284609F035
:1014600015FA32E01D4884420DDB1C48633084428B
:1014700009DC1A48201A4006010E33463A4628462F
:1014800009F048FA21E01448401C84420EDB12485F
:10149000C83084420ADC1048401C201A4006010E65
:1014A00033463A46284608F03FFF0EE00C48844297
:1014B0000BDB0B48C730844207DC0948201A410087
:1014C00033463A46284608F085FFF8BD8102000001
:1014D0009C000020A10F000094110000891300005F
:1014E0007D150000F8B504460D4617461E46FF2040
:1014F000F63084420EDB2C4884420BDC2046FF3859
:10150000F6384004010C33463A46284608F092FD6E
:10151000C0B2F8BD254884420DDB254884420ADC70
:101520002248201A4006010E33463A46284609F062
:10153000A7FAC0B2EDE71E48401C84420FDB1C48EE
:10154000C83084420BDC1A48401C201A4006010EA9
:1015500033463A46284608F069FFC0B2D9E7124838
:101560000A3084420DDB001D84420ADC001F201A71
:101570004004010C33463A46284609F077FCC0B2D5
:10158000C7E77D20C00084420CDA06207043094A78
:10159000105A201A4004010C33463A46284607F0F8
:1015A00071FBB6E70120B4E781020000A10F000043
:1015B000941100009C00002010B504F021F80120D7
:1015C00000F0E2FA022000F0DFFA10BD10B504F0DE
:1015D00017F8042000F0D8FA082000F0D5FA10BD62
:1015E00010B504F00DF8102000F0CEFA202000F025
:1015F000CBFA402000F0C8FA802000F0C5FAFF20A6
:10160000013000F0C1FA0120400200F0BDFA0120D3
:10161000800200F0B9FA0120C00200F0B5FA012002
:10162000000300F0B1FA0120400300F0ADFA012000
:10163000800300F0A9FA0120C00300F0A5FA10BD54
:1016400070470000002039498969FF2201321140AA
:10165000914208D13649496902221143344A516105
:10166000FF210131084331498969012252021140A9
:10167000914208D12E494969012211432C4A5161F6
:101680000121490208432949896901229202114036
:10169000914208D12649496908221143244A5161DF
:1016A000012189020843214989690122D20211409E
:1016B000914208D11E494969042211431C4A5161D3
:1016C0000121C902084319498969012252031140C5
:1016D000914208D11649496910221143144A5161B7
:1016E000012149030843114989690122520411402B
:1016F000914207D10E494969202211430C4A516198
:1017000020210843094989690122120411409142AC
:1017100008D10749496940221143054A5161012115
:101720000904084301498861704700000020024015
:10173000A01D002070B5044600F038FB05460BE004
:10174000601C002808D0002C04D000F02FFB401BA8
:10175000A04201D9032070BD1F488069C007C00F97
:101760000028EDD11C48806902210840022801D1DF
:101770001949886118488069FF2101310840884271
:1017800023D0154880694900084088421DD012487E
:10179000806949000840884217D00F488069490095
:1017A0000840884211D00C4880698900084088426E
:1017B0000BD00948806909010840884205D00648D5
:1017C000806949100840884203D1FFF73BFF0120A0
:1017D000C1E70020BFE70000002002400FB470B551
:1017E000259C002504A808F019F87D231B011A4642
:1017F000214614A8013003F0B7FF054670BC08BCB1
:1018000004B0184710B50446002C00D110BD214685
:101810000448FEF7F7FC002801D00120F6E700207D
:10182000F4E70000C81E00200120704770B5094889
:10183000046945698669A419002C0AD00822064962
:10184000204602F04FFE042203491031284602F0E0
:1018500049FE70BD4000F81F6A00002070B50446C4
:1018600000252520005D022803D00420E063012527
:1018700020E0206800680E21884321680860206805
:10188000006840084000216808601C21606C084026
:1018900001218140206C416001212520015500BFBC
:1018A00000212420015500BFA06B002802D0204653
:1018B000A16B8847284670BD70B50446206C05684A
:1018C000206806681C20616C014004208840284084
:1018D00000281DD004203040002819D0206800685E
:1018E00020210840002805D1206800680421884391
:1018F000216808601C21606C084004218140206C34
:101900004160206B00285AD02046216B884756E062
:101910001C20616C0140022088402840002825D00E
:1019200002203040002821D0206800682021084093
:10193000002808D1206800680A21884321680860CF
:101940000121252001551C21606C084002218140A5
:10195000206C416000BF00212420015500BFE06AD7
:1019600000282CD02046E16A884728E01C20616CC2
:101970000140082088402840002820D0082030401E
:1019800000281CD0206800680E2188432168086068
:101990001C21606C084001218140206C41600120C5
:1019A000E06301212520015500BF002124200155BD
:1019B00000BF606B002802D02046616B884770BD75
:1019C00070B50446002C01D1012070BD244A216865
:1019D000881A1421FEF78CFB8000606420480838C8
:1019E0002064022125200155206805681D48054016
:1019F000E168A06808432169084361690843A16957
:101A00000843E1690843216A0843054320680560EB
:101A100001218903A068884217D011487830806A74
:101A20001C22616C11400F228A4090430C4978318E
:101A300088621C22616C11406068884008497831D6
:101A4000896A08430649783188620020E0630121F1
:101A5000252001550021242001550020B5E7000074
:101A6000080002400F80FFFF70B5044600F09EF9A9
:101A700006462546681C002800D06D1C00BF00F0FB
:101A800095F9801BA842FAD370BD00000348406856
:101A900001210843014948600020704700200240AE
:101AA000F8B504460D461646012700BF1548007CD0
:101AB000012801D10220F8BD01201249087400BF9D
:101AC0001148FFF737FE0746002F14D10D49486132
:101AD000022C01D12E6008E0012C01D12E8004E0FF
:101AE000002C01D12E7000E00127002F03D0064802
:101AF000FFF720FE074600BF00200249087400BF20
:101B00003846D8E7A01D002050C300000F484068A9
:101B1000C007C00F002816D000BFEFF310800146A9
:101B200000BF72B60A48094AD0600A48D06000BFB8
:101B300081F3108800BF10464068C007C00F00281E
:101B400001D0012070470020FCE700000020024087
:101B5000EFCDAB890504030270B504460025002CC7
:101B600005DD02E06410681CC5B2012CFAD1A800A2
:101B700004490858002803D0A900024A5058804759
:101B800070BD00001829002010B5044605484069C2
:101B90002040002804D0034844612046FFF7DCFFC2
:101BA00010BD00000004014070B50346002200246F
:101BB0000020DFE0012696400D6835402C46002CC1
:101BC00077D04D68022D02D04D68122D15D1D50861
:101BD000AE001D462035A8595507EE0E0F25B5401D
:101BE0000646AE4330465607F60E0D69B54028430B
:101BF000D508AD001E46203670514D68012D08D025
:101C00004D68022D05D04D68112D02D04D68122D62
:101C100018D1986856000325B5400646AE433046B5
:101C20005600CD68B5402843986058680125954016
:101C30000646AE43304610264D6835402D09954086
:101C400028435860186856000325B5400646AE4341
:101C500030460D79AD07AD0F5600B54028431860EA
:101C6000D86856000325B5400646AE4330465600B8
:101C70008D68B5402843D860012636074D68354049
:101C8000B54276D13E4D6D6B012635433C4E7563B2
:101C90003C4D9608B600A85995072E0F0F25B54064
:101CA0000646AE43304605252D07AB4202D100253E
:101CB0001AE05EE0344DAB4201D1012514E0334D12
:101CC000AB4201D102250FE0314DAB4201D10325DA
:101CD0000AE0304DAB4201D1042505E02E4DAB4268
:101CE00001D1052500E006259607360FB5402843AB
:101CF000244D9608B600A851284D28680546A543EE
:101D00002846012636044D683540B54202D10546C5
:101D100025432846214D286068680546A543284686
:101D2000012676044D683540B54202D1054625436B
:101D300028461A4D6860A8680546A543284601262E
:101D400036054D683540B54202D105462543284643
:101D5000124DA860E8680546A54328460126760589
:101D60004D683540B54202D10546254328460B4D06
:101D7000E860521C0D68D540002D00D01AE770BDF8
:101D8000001002400800014000040050000800500C
:101D9000000C005000100050001C005000040140D6
:101DA000002A01D0816100E081627047014800682B
:101DB000704700003002002002480068401C0149C2
:101DC000086070473002002010B500240848006801
:101DD0004021084306490860002000F00BF8002865
:101DE00001D0012401E000F01FF8204610BD0000E2
:101DF0000020024070B5044600257D21C900094835
:101E00000068FEF775F9064601F0D8FE002801D0FB
:101E1000012504E000222146501E00F021F828464A
:101E200070BD0000340200200648406B01210843C9
:101E3000044948630846806B0904084301498863E4
:101E4000704700000010024000BFC206D20E012100
:101E50009140024A116000BF7047000000E100E0BD
:101E600070B504460D4616462946204602F0BAFED5
:101E700070BD0246116801239B20800083505820CA
:101E8000405A1843582358525820405A02231843A6
:101E9000582358520020704701460A6801234D20FC
:101EA000C0004350002013235B01CB18187054204E
:101EB000805A01231843542398525420805A0223F5
:101EC00018435423985200207047704770B5054658
:101ED0000C4680202040802805D16007060E284649
:101EE0002830311804E066012846FF3029303118C7
:101EF000002A03D100200873CB8004E0012008737E
:101F00000B81180C4881002070BD70B504460D4649
:101F10006B012146283159184A69272109010859BE
:101F2000294605F0B9FA70BD70B504460D466B013F
:101F30002146FF31293159184A69272109010859D9
:101F4000294605F03FFB70BD70B504460E46802063
:101F50003040802807D17007010E204628300D1828
:101F60000120687007E07007010E2046FF3029301D
:101F70000D18002068707007400F287000BF1120F6
:101F800040012018007A012801D1022070BD0120F3
:101F9000112149016118087200BF2946206806F026
:101FA00027FA00BF0020112149016118087200BF03
:101FB00000BFEBE770B504460E463007000F6168BE
:101FC000884201D9012070BD80203040802807D18F
:101FD0007007010E204628300D180120687007E0B8
:101FE0007007010E2046FF3029300D180020687060
:101FF0000020A8707007400F287000BF112040011A
:102000002018007A012801D10220DCE701201121EB
:1020100049016118087200BF2946206806F044FB98
:1020200000BF0020112149016118087200BF00BFE4
:10203000C9E702464807030E1046FF30293018183A
:10204000C0697047FFB581B005460E461F460020A7
:10205000009080203040802807D17007010E28466C
:1020600028300C180120607007E07007010E284628
:10207000FF3029300C18002060707007400F20706E
:1020800003982061E7706078002801D02078E08113
:10209000022F01D10020207100BF1120400128181B
:1020A000007A012802D1022005B0F0BD01201121E3
:1020B00049016918087200BF2146286805F05EFFD3
:1020C00000BF0020112149016918087200BF009863
:1020D000EAE7FFB581B005460E4617467007010EC8
:1020E0002846FF3029300C1867610498A061002051
:1020F000E06160707007400F20707007400F00288B
:1021000004D12146286806F065FB03E021462868D3
:1021100006F060FB002005B0F0BD70B504460D462A
:102120006807400F6168884201D9012070BD802096
:102130002840802807D16807010E204628300E1855
:102140000120707006E069012046FF3029300E182A
:10215000002070700120B0706807400F307000BF21
:10216000112040012018007A012801D10220DDE76A
:102170000120112149016118087200BF3146206811
:1021800006F0FAFA6807400F002805D1232109015B
:102190006118206806F084FA00BF0020112149016F
:1021A0006118087200BF00BFC0E7FFB581B00546E7
:1021B0000E4617467007010E284628300C18676136
:1021C0000498A0610020E061012060707007400F5A
:1021D00020707007400F002804D12146286806F0BF
:1021E000F9FA03E02146286806F0F4FA002005B069
:1021F000F0BD000010B50446206806F0F9FC01218E
:10220000C9030840884202D1204602F02DFD206813
:1022100006F0EEFC01218902084088420DD12068B9
:10222000403080888843216840318880204600F013
:1022300093F90021204600F0C7F9206806F0D8FC89
:10224000012189030840884206D1206840308088F7
:102250008843216840318880206806F0C9FC01214C
:1022600049030840884206D120684030808888436E
:10227000216840318880206806F0BAFC01210903FA
:10228000084088422BD120684030008858490840D7
:102290002168403108802068403000885449091F77
:1022A0000840216840310880132040012018007840
:1022B000012808D10020132149016118087000216C
:1022C0002046FFF702FE204600F05AF92068403011
:1022D0008088012109038843216840318880206873
:1022E00006F086FC0121C9020840884224D12068FA
:1022F0004030008808210843216840310880206868
:10230000403080880121C90288432168403188809B
:10231000206840300088042108432168403108804B
:10232000206806F065FC012109030840000B002825
:1023300002D1204600F094F9206806F059FC802173
:102340000840802832D12068403080888843216846
:10235000403188801320400120180078002822D1C5
:1023600020684030008804210843216840310880FB
:1023700020684030008808210843216840310880E7
:102380000120132149016118087020684030808ABB
:10239000F021084081089920800001510121204648
:1023A000FFF793FD02E0204600F05AF9206806F09E
:1023B0001FFC012149020840884209D120684030B1
:1023C00080888843216840318880204600F0EEF8FC
:1023D000206806F00DFCFF2101310840884206D13B
:1023E000206840308088884321684031888010BD53
:1023F000FBFF000030B585B00446002C02D101205F
:1024000005B030BD112040012018407A002806D1C7
:102410001121490161180872204600F083F8032059
:102420001121490161184872206806F02DF9002534
:1024300023E001216A01204628301018417069010B
:1024400020462830455469010818C58100216A01D9
:10245000204628301018C1706A0120462830101814
:1024600001616A0120462830101841616A01204646
:10247000283010188161681CC5B26068A842D8D89D
:10248000002523E000216A012046FF302930101882
:10249000417069012046FF302930455400216A010E
:1024A0001018C1706A012046FF30293010180161F0
:1024B0006A012046FF302930101841616A01204628
:1024C000FF30293010188161681CC5B26068A842CD
:1024D000D8D81422214610316846FDF763FE204605
:1024E0000FC806F0C1F8002806D0022011214901CA
:1024F00061184872012083E7002124200155012042
:102500001121490161184872E069012802D1204671
:10251000FFF7C2FC206A012802D12046FFF7A9FC80
:1025200000206DE710B504460949206888420ED1A5
:102530000848806B0121C9050843064988630022C9
:1025400011461F20FFF78CFC1F20FFF77DFC10BDFC
:10255000005C00400010024070B504460125A068F0
:10256000022801D0FFF76CF82721090108592946F4
:1025700005F08DF927210901085905F02EF970BDE4
:1025800010B50446A069002807D007480069062155
:1025900088430549086103F025FB272109010859F3
:1025A00005F052F910BD000000ED00E010B5044642
:1025B00001200449087027210901085905F04FF945
:1025C00010BD00003000002070B504460D4600BF6D
:1025D000112040012018007A012801D1022070BD8D
:1025E0000120112149016118087200BF24200555FE
:1025F0002946206806F020FB00BF00201121490178
:102600006118087200BF00BFE9E710B50446272132
:102610000901085923210901611805F04FF910BD7E
:1026200010B5044600BF112040012018007A01288F
:1026300001D1022010BD0120112149016118087249
:1026400000BF206806F006F8206806F0BDFA00BF5B
:102650000020112149016118087200BF00BFE9E79D
:1026600010B50446022008490870272109010859BD
:1026700005F08CF9A069002805D0044800690621FE
:1026800008430249086110BD3000002000ED00E061
:10269000F8B5044620212068084020287CD1206815
:1026A0000840202800D100BF00279148806B0121FD
:1026B00009070840002805D18D48806B08438C49E4
:1026C000886301278B480068FF21013108400028FA
:1026D00016D188480068084386490860FFF766FB02
:1026E000064606E0FFF762FB801B642801D9032041
:1026F000F8BD80480068FF21013108400028F1D072
:102700007B480568032109050D4060680840A84220
:102710000DD0091160680840884208D174480068EB
:10272000012149040840884201D10120E0E77048B6
:10273000403000690321090408400546002D3DD0C2
:1027400060680840A84239D020212068084020282D
:1027500034D16748403000690321090488430546A5
:102760006348403000690121C90408436049403191
:102770000861084600690121C90488435C49403169
:10278000086108460561801528408915884215D1E1
:10279000FFF70CFB064608E039E0FFF707FB801B5C
:1027A0005549884201D90320A2E7514840300069C9
:1027B000012149020840400A0028EED000BF00BFB6
:1027C000032109046068084088420AD1484800682B
:1027D00009018843032212056168114008434449F6
:1027E000086000BF4248403000690322120461685B
:1027F000114008433E494031086100BF012F05D117
:102800003B48806B890588433949886300BF20783D
:10281000C007C00F002809D035484030C068800884
:102820008000A168084332494031C8600221206815
:102830000840022809D12E484030C0680C21884346
:10284000E16808432A494031C860042120680840F3
:1028500004280AD126484030C068032189028843F1
:102860002169084322494031C86008212068084096
:1028700008280AD11E484030C06803210903884354
:10288000616908431A494031C860FF21013120685D
:10289000084088420AD116484030C0680321090424
:1028A0008843A169084312494031C860402120682B
:1028B0000840402809D10E484030C06809058843C7
:1028C000216A08430A494031C860802120680840D5
:1028D00080280AD106484030C06803218904884313
:1028E000E169084302494031C860002000E7000068
:1028F000001002400070004088130000F8B5044644
:102900000D46002C01D10120F8BD79480068C007B0
:10291000C00FA8420ED27648006840084000284305
:102920007349086008460068C007C00FA84201D07C
:102930000120E9E7022120680840022807D16D48FC
:10294000C068F0218843A16808436A49C8602078BC
:10295000C007C00F00284CD06068022809D1654824
:102960000068012149040840400C002824D10120BE
:10297000CAE76068032809D15E480068012149065A
:102980000840400E002817D10120BDE760680128EB
:1029900008D15848006804210840800800280BD15D
:1029A0000120B1E753480068012149020840400A6C
:1029B000002801D10120A7E74E48C06880088000A8
:1029C000616808434B49C860FFF7F0F90646606844
:1029D00002280FD107E0FFF7E9F9801B464988423A
:1029E00001D9032090E74348C0680C21084008281B
:1029F000F1D134E0606803280FD107E0FFF7D6F982
:102A0000801B3D49884201D903207DE73948C068D1
:102A10000C2108400C28F1D121E0606801280FD179
:102A200007E0FFF7C3F9801B3349884201D903202F
:102A30006AE73048C0680C2108400428F1D10EE054
:102A400007E0FFF7B3F9801B2B49884201D9032027
:102A50005AE72848C0680C2108400028F1D12448D2
:102A60000068C007C00FA8420ED92148006840087E
:102A7000400028431E49086008460068C007C00F90
:102A8000A84201D001203FE7042120680840042823
:102A900008D11848C068072109028843E168084343
:102AA0001449C860082120680840082809D1114845
:102AB000C0680721C90288432169C90008430D493C
:102AC000C86000F049F80B49C968F02211400909B3
:102AD0000A4A515CC8400A4908600020FFF78AF999
:102AE0000746002F01D038460EE700200CE7000013
:102AF000002002400010024088130000C8B2000805
:102B000034020020014800687047000034020020B1
:102B100000B5FFF7F7FF0549C96807221202114007
:102B2000090A034A515CC84000BD00000010024081
:102B3000D8B2000800B5FFF7E5FF0549C9680722CC
:102B4000D2021140C90A034A515CC84000BD0000CE
:102B500000100240D8B20008FEB52E48C7680C200D
:102B60003840002845D0042804D008280CD00C2870
:102B70003ED10BE02748006810210840002801D012
:102B8000254C00E0254C41E0254C3FE00F2080041F
:102B90003840800C23490E5C032080053840800DAE
:102BA000401C01901B48C06801210904084000280E
:102BB00007D01B49714308460199FDF799FA05466C
:102BC00014E01448006810210840002807D012497A
:102BD000714308460199FDF78BFA054606E00F4957
:102BE000714308460199FDF783FA05462C460DE02E
:102BF00000BF08484068072149030840400B009087
:102C00000098401C01218140CC0300BF00BF20463A
:102C1000FEBD00000010024000093D000024F40049
:102C200000127A00E0B20008FEB50446002C01D183
:102C30000120FEBDFA48C7680C210F40C068012181
:102C40000904084001902078C007C00F002872D006
:102C5000082F04D00C2F0FD1019888420CD1F048D6
:102C60000068012149040840400C002863D06068D6
:102C7000002860D10120DCE700BF01210904606861
:102C8000884205D1E64800680843E549086027E026
:102C900005210904606888420ED1E14800680121DD
:102CA00089040843DE4908600846006801210904D8
:102CB0000843DB49086013E0D94800680121090492
:102CC0008843D74908600846006801210904084084
:102CD000009000BFD248006889008843D04908604E
:102CE00000BF6068002813D0FFF760F8054606E0D3
:102CF000FFF75CF8401B642801D9032099E7C84816
:102D00000068012149040840400C0028F0D012E07E
:102D1000FFF74CF8054606E0FFF748F8401B64282B
:102D200001D9032085E7BE48006801214904084015
:102D3000400C0028F0D102212068084002286BD105
:102D4000E66820203040002809D0B54800682021DE
:102D50000843B34908602021304688430646042FC3
:102D600004D00C2F33D10198002830D1AC48006832
:102D7000042108408008002803D0002E01D1012042
:102D800057E7A74840681F210902884321690902C3
:102D90000843A34948600846006809218843304336
:102DA0009F490860FFF7D8FE9D49C968F02211408D
:102DB00009099C4A515CC8409B4908600020FFF704
:102DC00019F80290029800283FD0029831E7002EAF
:102DD00023D0934800680921884330439049086014
:102DE000FEF7E4FF054606E0FEF7E0FF401B022881
:102DF00001D903201DE78A480068042108408008A3
:102E00000028F1D0864840681F21090288432169C3
:102E1000090208438249486017E081480068400879
:102E200040007F490860FEF7C1FF054606E0FEF757
:102E3000BDFF401B022801D90320FAE6784800684C
:102E40000421084080080028F1D1102120680840A2
:102E5000102867D1002F36D1714800684901084019
:102E6000400A002804D0E069002801D10120E0E6F2
:102E70006B484068072149038843616A08436849F1
:102E80004860084640680002000A218C0906084391
:102E900063494860606A400B401C01218140C803BF
:102EA0005F49C968F022114009095E4A515CC84077
:102EB0005D4908600020FEF79DFF029002980028FF
:102EC0004BD00298B5E6E06900282CD05448006841
:102ED000FF210131084352490860FEF767FF0546AC
:102EE00006E0FEF763FF401B022801D90320A0E69D
:102EF0004B480068012149020840400A0028F0D0F0
:102F000047484068072149038843616A08434449A8
:102F10004860084640680002000A218C0906084300
:102F20003F49486019E03E480068FF21013188436D
:102F30003B490860FEF73AFF054606E0FEF736FF1C
:102F4000401B022801D9032073E63548006801219F
:102F500049020840400A0028F0D1082120680840B2
:102F6000082839D1606900281BD02D4840300069FD
:102F7000012108432A4940310861FEF717FF054641
:102F800006E0FEF713FF401B022801D9032050E69C
:102F90002348403000690221084040080028F0D052
:102FA0001AE01F4840300069400840001C49403189
:102FB0000861FEF7FBFE054606E0FEF7F7FE401B44
:102FC000022801D9032034E6154840300069022167
:102FD000084040080028F0D1042120680840042857
:102FE00079D1002000900E48806B890608400028A7
:102FF00006D10B48806B0843094988630120009083
:103000000A480068FF210131084000281ED1074806
:103010000068084305490860FEF7C8FE05460EE053
:1030200000100240C8B200083402002000700040C6
:10303000FEF7BCFE401B642801D90320F9E5B34824
:103040000068FF21013108400028F1D000BFFF21B6
:103050000131A068884205D1AD4800690843AC49F8
:10306000086130E0A06800280DD1A9480069FF215F
:1030700001318843A649086108460069091588435B
:10308000A34908611FE005210902A06888420DD10B
:103090009F4800690121890208439D49086108464B
:1030A0000069891508439A4908610CE0984800694D
:1030B000FF210131884396490861084600690915D6
:1030C00088439349086100BFA068002815D0FEF727
:1030D0006DFE054608E031E0FEF768FE401B8D49B5
:1030E000884201D90320A4E58948006901214902E9
:1030F0000840400A0028EFD013E0FEF757FE0546CF
:1031000007E0FEF753FE401B8249884201D90320A5
:103110008FE57F480069012149020840400A0028E4
:10312000EFD10098012808D179484038806B0121FF
:103130000907884376494039886300BF2021206809
:103140000840202852D1A06900282BD000BF704829
:1031500040388068012108436D494039886008463D
:10316000406B012108436A49403948636A48006A54
:103170000121490308436849086200BFFEF716FEB3
:10318000054606E0FEF712FE401B022801D9032087
:103190004FE55F4840388068022108404008002819
:1031A000F0D023E000BF5A48403880684008400013
:1031B0005749403988605848006A012149038843CB
:1031C0005549086200BFFEF7F1FD054606E0FEF72F
:1031D000EDFD401B022801D903202AE54C48403868
:1031E00080680221084040080028F0D1A06A002829
:1031F0004CD00C2F69D0A06A022848D144484038EE
:103200000068012109068843414940390860FEF7FA
:10321000CDFD054606E0FEF7C9FD401B022801D999
:10322000032006E53A484038006801214906084075
:10323000400E0028EFD1216BE06A0843616B084320
:1032400033494039C968FD2212049143084330498B
:103250004039C860084600680121090608432C4926
:1032600040390860FEF7A2FD054606E0FEF79EFD28
:10327000401B022801D90320DBE4254840380068C0
:10328000012149060840400E0028EFD03CE02048CC
:10329000403800680121090688431D49403908600B
:1032A000FEF784FD054606E0FEF780FD401B022880
:1032B00001D90320BDE416484038006801214906C1
:1032C0000840400E0028EFD11EE0A06A012800D17E
:1032D000AFE40F484038C06801900121090401980B
:1032E0000840E16A88420DD10F2189040198084005
:1032F000216B884206D10321890501980840616B42
:10330000884201D0012094E4002092E40070004043
:103310004010024088130000000001407047014641
:1033200000BF2020405C012801D10220704701220B
:103330002020425400BF02222120425400BFCA2054
:103340000A68506253200A68506200BF08688068AB
:10335000202210430A68906000BFFF200A68506274
:1033600000BF01222120425400BF002220204254ED
:1033700000BF0020DAE7704710B504462068806877
:10338000012109030840000B002811D02068C06803
:1033900009110840000A00280AD02046FFF7EBFF79
:1033A0002068C06880210840124908432168C8602D
:1033B00020688068012149030840400B002811D093
:1033C0002068C06809110840400A00280AD0204639
:1033D000FFF7A4FF2068C068802108400649084321
:1033E0002168C8600120400404494861012121206E
:1033F000015510BD7FFEFFFF7FFDFFFF0004014070
:1034000070B504460E4600BF2020005D012801D1A2
:10341000022070BD01212020015500BF0221212082
:10342000015500BFCA2021684862532021684862C4
:1034300000BFFF20013086422CD1206880683146D1
:10344000884321688860206880683101884321684A
:103450008860FEF7ABFC054615E0FEF7A7FC401BB5
:103460007D21C90088420ED900BFFF202168486233
:1034700000BF03212120015500BF0021202001555C
:1034800000BF0320C5E72068C068C007C00F002840
:10349000E3D02EE02068806801214902884321683A
:1034A000886020688068012149038843216888601A
:1034B000FEF77CFC054615E0FEF778FC401B7D21FD
:1034C000C90088420ED900BFFF202168486200BFB2
:1034D00003212120015500BF00212020015500BFFC
:1034E000032096E72068C0680221084040080028B1
:1034F000E2D000BFFF202168486200BF01212120E7
:10350000015500BF00212020015500BF002080E7A9
:10351000F0B506460C461746306840681249084028
:103520000546FF2000042840000CE0701F20000228
:103530002840000A6070A806800EA0700720400393
:103540002840400B2070002F0BD1E07801F06FFD78
:10355000E070607801F06BFD6070A07801F067FDAD
:10356000A0700020F0BD00003FFFFF00F0B5054651
:103570000C4617462868806A606028680069400425
:10358000400CA060286800681249084006463F20A9
:1035900000043040000C20707F2000023040000A00
:1035A00060707006400EA070012080053040000C55
:1035B000E070002F0BD1207801F039FD2070607889
:1035C00001F035FD6070A07801F031FDA0700020A1
:1035D000F0BD00007F7F7F0010B50446002C01D1B4
:1035E000012010BD2120005D002805D100212020F0
:1035F0000155204600F06EF802212120015500BF40
:10360000CA202168486253202168486200BF2046D2
:1036100001F027FD002809D000BFFF202168486283
:1036200000BF0421212001550120DAE720688068CD
:103630002749084021688860216960680843A169BA
:103640000843216889680843216888602168E06828
:10365000086120680069218909040843216808611C
:103660002068C068802188432168C8602068C06CD9
:10367000800880002168C8646169E06908432168A6
:10368000C96C08432168C86420688068202108400C
:10369000002813D1204600F073FA00280ED000BF96
:1036A000FF202168486200BF04212120015500BF8E
:1036B00000212020015500BF012092E700BFFF201C
:1036C0002168486200BF012121200155002088E7C0
:1036D000BFFF8FFF70470000F7B582B004460D466C
:1036E00000BF2020005D012802D1022005B0F0BDFE
:1036F00001212020015500BF0221212001550498FD
:1037000000282AD12068806840210840002800D085
:1037100002E00020E87000BFE869002800D100E066
:1037200000BF287801F08FFC0704687801F08BFC5B
:1037300000020743A87801F086FC0743E8780004FC
:1037400007432021485D01F07EFC00060743E8693D
:10375000074368690743019721E02068806840219A
:103760000840002800D002E00020E87000BFE869AF
:10377000002800D100E000BF287800046978090221
:103780000843A9780843E978090408432021495DE2
:1037900009060843E9690843696908430190A96972
:1037A00068680843009000BFCA202168486253201F
:1037B0002168486200BFFF210131686A884241D117
:1037C000206880688843216888602068C0688021FC
:1037D00008404D4908432168C860FEF7E7FA0646ED
:1037E00015E0FEF7E3FA801B7D21C90088420ED95F
:1037F00000BFFF202168486200BF0321212001553E
:1038000000BF00212020015500BF03206EE7206883
:10381000C068C007C00F0028E3D001982168C861C4
:1038200000982168486420688068FF2101310843BE
:1038300021688860206880680121090308432168A5
:10384000886043E02068806801214902884321683C
:1038500088602068C068802108402C49084321689E
:10386000C860FEF7A3FA064615E0FEF79FFA801B34
:103870007D21C90088420ED900BFFF20216848621F
:1038800000BF03212120015500BF00212020015548
:1038900000BF03202AE72068C068022108404008D2
:1038A0000028E2D0019821680862009821688864A5
:1038B00020688068012149020843216888602068E7
:1038C0008068012149030843216888601048006826
:1038D0000121490408430E49086008468068012117
:1038E000490408430A49886000BFFF2021684862F4
:1038F00000BF01212120015500BF002120200155DA
:1039000000BF0020F2E600007FFEFFFF7FFDFFFF0B
:1039100000040140F7B504460D4600BF2020005DBD
:10392000012801D10220FEBD01212020015500BF48
:103930000221212001550298002809D16878102120
:103940000840102804D16878EF2108400A306870D8
:103950000298002811D1E87801F075FB0704687817
:1039600001F071FB00020743A87801F06CFB0743EC
:10397000287840033E4606430AE0E8780004697868
:1039800009020843A97808432978490308430646F1
:1039900000BFCA202168486253202168486200BFE6
:1039A000204601F05EFB00280ED000BFFF202168FA
:1039B000486200BF04212120015500BF00212020C2
:1039C000015500BF0120AEE719483040216848602A
:1039D0002068C068802188432168C86020688068AA
:1039E00020210840002813D1204600F0C9F8002803
:1039F0000ED000BFFF202168486200BF04212120B3
:103A0000015500BF00212020015500BF01208AE799
:103A100000BFFF202168486200BF0121212001551D
:103A200000BF00212020015500BF00207BE70000DF
:103A30003FFFFF00F7B504460D4600BF2020005DA4
:103A4000012801D10220FEBD01212020015500BF27
:103A5000022121200155029800281BD1206880688E
:103A600040210840002800D002E00020E87000BF9C
:103A7000287801F0E8FA0704687801F0E4FA000217
:103A80000743A87801F0DFFA0743E87800043E46D0
:103A9000064314E02068806840210840002800D0D8
:103AA00002E00020E87000BF28780004697809026D
:103AB0000843A9780843E97809040843064600BF8B
:103AC000CA202168486253202168486200BF20460E
:103AD00001F0C7FA00280ED000BFFF20216848621D
:103AE00000BF04212120015500BF002120200155E5
:103AF00000BF0120A7E72148304021680860206806
:103B00008068012189048843216888602969E86800
:103B10000843216889680843216888602068C06874
:103B2000802188432168C86020688068202108407F
:103B3000002813D1204600F023F800280ED000BF43
:103B4000FF202168486200BF04212120015500BFE9
:103B500000212020015500BF012074E700BFFF2095
:103B60002168486200BF01212120015500BF0021CA
:103B70002020015500BF002065E700007F7F7F0007
:103B800070B504462068C068A02188432168C860D9
:103B9000FEF70CF9054608E0FEF708F9401B7D2109
:103BA000C900884201D9032070BD2068C068202167
:103BB00008400028F0D00020F6E7704770B50446B2
:103BC0002546681E0949884201D901200CE0681E7B
:103BD000074948610321081F01F004F80020044947
:103BE000886107200861002070BD0000FFFFFF0012
:103BF00000E000E010B5FFF7E0FF10BD30B5024671
:103C000000BF3820805C012801D1022030BD012591
:103C10003820855400BF0225392085541068436838
:103C20001068846870251846A84303460868034353
:103C300080252046A8430446486804431068436032
:103C40001068846001253920855400BF0025382084
:103C5000855400BF0020D9E710B50446002C01D1DF
:103C6000012010BD3920005D002805D10021382039
:103C70000155204600F00CF8022139200155211D84
:103C8000206802F02BF90121392001550020E8E7D6
:103C900010B504461249206888420ED11148806B45
:103CA000102108430F498863002211461120FEF7B6
:103CB000D7F81120FEF7C8F811E00B4920688842B8
:103CC0000DD10848806B20210843064988630022F3
:103CD00011461220FEF7C4F81220FEF7B5F810BD09
:103CE0000010004000100240001400400146086827
:103CF000C068012318430B68D860086880684207D1
:103D0000520F062A05D008680068012318430B6883
:103D1000186000207047704710B50446206800699D
:103D200002210840400800281CD02068C0680840D4
:103D30004008002816D0481F21680861012020761D
:103D4000206880698007800F002803D02046FFF795
:103D5000E2FF05E0204600F09DF8204600F09BF8C9
:103D6000002020762068006904210840800800288F
:103D70001DD02068C06808408008002817D0C843BC
:103D800021680861022020762068806903210902E9
:103D90000840002803D02046FFF7BDFF05E020467D
:103DA00000F078F8204600F076F8002020762068B1
:103DB000006908210840C00800281CD02068C0689D
:103DC0000840C008002816D0C843216808610420B4
:103DD00020762068C0698007800F002803D0204625
:103DE000FFF799FF05E0204600F054F8204600F068
:103DF00052F8002020762068006910210840000950
:103E000000281DD02068C06808400009002817D08D
:103E1000C84321680861082020762068C069032112
:103E200009020840002803D02046FFF774FF05E090
:103E3000204600F02FF8204600F02DF800202076D4
:103E400020680069C007C00F012148404840002891
:103E50000CD02068C068084048404840002805D081
:103E6000C81E21680861204600F016F82068006925
:103E700040210840800900280BD02068C068084015
:103E80008009002805D0C84321680861204600F059
:103E900031F810BD7047704770B504461148844230
:103EA0001FD11148006801210904884203DB00206A
:103EB0000D49086004E00C480068401C0A4908608D
:103EC0000A48FCF7D0F90546294607480068FCF780
:103ED0000FF9002805D0012005490860002002499B
:103EE000086070BD981B00202C000020B61A00202E
:103EF000080000207047704770470000FEB5044678
:103F00002068C56920680668206887682807000F50
:103F10000190019800280ED12020284000280AD0C6
:103F200020203040002806D0206E002802D02046F5
:103F3000216E8847FEBD019800287DD0F807C00F8C
:103F4000002804D1FF20213030400028F5D0E807B8
:103F5000C00F00280BD0FF2001303040002806D0D1
:103F6000012021680862E06F01210843E067022018
:103F7000284000280AD0F807C00F002806D00220E9
:103F800021680862E06F04210843E06704202840AC
:103F900000280AD0F807C00F002806D004202168A6
:103FA0000862E06F02210843E067082028400028EB
:103FB0000ED020203040002803D1F807C00F002881
:103FC00006D0082021680862E06F08210843E067F6
:103FD000E06F002846D020202840002809D020206B
:103FE0003040002805D0206E002802D02046216EE7
:103FF0008847E06F00902068806840210840402892
:1040000004D0082100980840002826D0204602F05D
:10401000F3F92068806840210840402819D12068C1
:104020008068884321688860E06E00280DD02548AC
:10403000E16E8863E06E00E015E0FDF70FFC0028FC
:1040400010D0E06E816B88470CE02046FFF754FFEC
:1040500008E02046FFF750FF04E02046FFF74CFF42
:104060000020E06766E701200005284000280CD00A
:10407000012080053840002807D001200005216874
:1040800008622046FFF737FF54E7802028400028C9
:104090000AD080203040002806D0606E002802D070
:1040A0002046616E884745E740202840002807D019
:1040B00040203040002803D0204602F0AFF939E715
:1040C00000BF37E7E163000810B50446002C01D1BA
:1040D000012010BDA069002800D000E000BF606F83
:1040E000002805D1002170200155204600F02CF851
:1040F000242060672068006840084000216808604C
:10410000204602F007FA012800D1E2E7606A0028A1
:1041100002D0204602F0B4F8206840680921C902A4
:10412000884321684860206880682A218843216884
:1041300088602068006801210843216808602046E3
:1041400002F016F9C5E7000010B586B00446142148
:1041500001A8FCF740F854492068884224D153480C
:10416000806B0121890408435049886300BF0846D9
:10417000C06A022108434D49C8620846C06A02214C
:104180000840009000BF00BF032080020190022081
:10419000029000200390032004900420059001A9C0
:1041A0004348FDF701FD7CE042492068884248D140
:1041B0003E48406B0121890308433C49486300BFE6
:1041C0000846C06A012108433849C8620846C06AE7
:1041D000C007C00F009000BF00BF03204002019045
:1041E00002200290002003900320049004200590F8
:1041F00001A905200007FDF7D7FC2F482F490860CB
:104200000320486000212D488160C1608021016148
:10421000002141618161C1610162FDF7D1FB00288C
:1042200001D0FDF70DFA00BF2448E066846200BFAC
:10423000002202211B20FDF713FE1B20FDF704FEC8
:104240002FE01F49206888422BD11848806B01213C
:10425000490408431549886300BF0846C06A012124
:1042600008431249C8620846C06AC007C00F0090E0
:1042700000BF00BF0C20019002200290002003909C
:10428000032004900420059001A905200007FDF7F4
:104290008BFC002211461C20FDF7E2FD1C20FDF7DF
:1042A000D3FD06B010BD00000048004000100240E1
:1042B000000400500038014030000240A0070020F8
:1042C0000044004010B50346986F20287DD1002996
:1042D00001D0002A01D1012010BD012424039868D7
:1042E000A04208D11869002805D1C807C00F0028CE
:1042F00001D00120F0E700BF7020C05C012801D18F
:104300000220E9E701247020C45400BF59655820F9
:10431000C2525A20C2520020186600BF2403986877
:10432000A0420AD11869002803D1294C5C20C4524C
:1043300024E0FF245C20C45220E0986800280AD1C1
:104340001869002803D1FF245C20C45216E07F24A2
:104350005C20C45212E0012424079868A0420AD1CC
:104360001869002803D17F245C20C45206E03F2452
:104370005C20C45202E000245C20C45200BF002034
:10438000D8672220986718688068012420431C6839
:10439000A060012424039868A04205D11869002870
:1043A00002D10C48186601E00B48186600BF0024D3
:1043B0007020C45400BF18680068FF2421342043D3
:1043C0001C682060002087E7FFE7022084E70000E8
:1043D000FF0100003D640008A96400087047FFB5B4
:1043E00083B004460D461746606F202875D1002D16
:1043F00001D0002F02D1012007B0F0BD0121090337
:10440000A068884208D12069002805D1E807C00FBC
:10441000002801D00120EFE700BF7020005D0128D7
:1044200001D10220E8E701217020015500BF0020E2
:10443000E06721206067FDF7B9FC01905020075329
:104440005220075301210903A068884205D1206941
:10445000002802D10026029502E02E46002002909C
:1044600021E006980090002280212046019B02F066
:1044700051FA002801D00320BEE7002E09D102988E
:104480000088C005C00D216888620298801C0290D7
:1044900003E0307821688862761C5220005B401E61
:1044A00081B2522001535220005B0028D9D10698D6
:1044B0000090002240212046019B02F02BFA0028A8
:1044C00001D0032098E72020606700BF0021702002
:1044D000015500BF00208FE7FFE702208CE77047FF
:1044E00000BFFEE730B50B46002100BF12E0040F0D
:1044F0000A2C04D2040F30344D005C5503E0040F45
:1045000037344D005C55000100254C00641C1D55DE
:104510004C1CE1B29142EADB30BD000000B587B02F
:10452000142102A8FBF757FE00BF2348C06A0121EF
:1045300008432149C8620846C06AC007C00F0190FD
:1045400000BF00BF00BF0846C06A022108431A49E5
:10455000C8620846C06A02210840019000BF00BF3F
:104560000022C3211548FDF71BFC0C2002900220FD
:10457000039000200490032005900420069002A9D7
:1045800005200007FDF710FBC320029001200390D7
:1045900000200490059002A90848FDF705FBFF20C4
:1045A0000130029000200390049002A9052000072A
:1045B000FDF7FAFA07B000BD0010024000040050F9
:1045C00010B51049104805F028FE10490E4805F0B6
:1045D000FBFD0F490C4805F0BBFD0E490A4805F0EC
:1045E0006BFE0D49084805F09BFE0C49064805F096
:1045F00093FD0B49044805F009FE0A49024805F0FD
:104600005FFD10BD13A200085805002059A1000845
:1046100021A1000821A20008C1A20008C9A0000829
:10462000D1A10008C7A0000810B5012280210E48C2
:10463000FDF7B6FB002240210B48FDF7B1FBC82077
:10464000FDF712FA0948006800681021084307497D
:1046500009680860054800680068012108430349AB
:104660000968086010BD000000040050A00600208A
:104670001CB50020009001900E480F4908600F48BB
:10468000486000210C4881600D49C1608021416172
:10469000FFF7E2FA002801D0FCF7D2FF00200090DB
:1046A000019069460448FFF7A9FA002801D0FCF7F9
:1046B000C7FF1CBD00100040981B00207F0C0000AD
:1046C0001027000010B50E480E4908604B20C001AD
:1046D000486000210B488160C16001610C2141618B
:1046E00000218161C16101620020064948620846DB
:1046F000FFF7EAFC002801D0FCF7A2FF10BD000084
:1047000000380140A006002010B516481649086080
:104710004B20C0014860002113488160C1600161E5
:104720000C21416100218161C161016200200E49BB
:1047300048620846FFF7C8FC002801D0FCF780FF5C
:1047400009480068006810210843074909680860A3
:1047500005480068006801210843034909680860AA
:1047600010BD0000004400402007002010B50022CA
:104770000F49104802F046FE002801D0FCF760FF08
:104780000D490C4803F03EF9002801D0FCF758FF12
:104790000A49084802F0DBFA002801D0FCF750FF74
:1047A000044803F017FA002801D0FCF749FF10BDB8
:1047B00034000020E8070020480200208400002088
:1047C00010B50020294908808C24422228490A205B
:1047D00006F006FA002804DA422226492448FBF7AC
:1047E000E1FCA62224490B2006F0FAF9002804DA9D
:1047F000A62222492048FBF7D5FCA2B2002320497B
:10480000092006F006FAA2B21D4801192346092024
:1048100006F0FFF96420FDF727F90121194805F09A
:10482000E7FA1949174805F0E5FA1849154805F05F
:10483000E8FA1749134805F0D8FA1649164806F061
:10484000A5FB1649144806F0A7FB1549124806F0C7
:10485000A1FB1449104806F097FB13490E4806F0D7
:1048600097FB1248FFF742FA10BD00009A000020A3
:10487000F219002018010020341A00205C010020E9
:104880004C1C00200C040020C14B0008E51400085B
:10489000D5130008C95D0008F00400206D5E000813
:1048A000155E0008855D0008D15D0008981B00209A
:1048B00070B5FFB085B025480078002843D00121AD
:1048C000490204A8FBF787FC7B2069460874002492
:1048D00023E00E2060431E4940184078002800D194
:1048E0001AE0002000900190029003900E21614395
:1048F000174A88186A46102105F048F804A8FBF703
:1049000095FC04A9461861001248435E6A4612A14C
:10491000304604F099FA00BF641C142CD9DB04A8BB
:10492000FBF784FC451E002D06D07D2004A94855C8
:1049300004A806F06DFB02E07FB005B070BD00205A
:104940000249087000BF00BFF6E700002E020020F9
:104950004C1C0020641D002025733A2025642C0087
:1049600010B51C48008800282CD01B48407803282C
:1049700016D11948C1781948007842001848815268
:104980001648007841001648405C00021249097937
:10499000401801B21148007842001148815206E0E7
:1049A0000021C9430D48007842000D488152002083
:1049B0000C49088007490880FF2101310648FBF7B0
:1049C0000AFC06E00021C94304480078420004487C
:1049D000815210BD9A000020E81800202D0200200E
:1049E000641D00209800002010B504460122022119
:1049F0000748FDF7D5F9074B082221460648FFF77F
:104A0000EEFC002202210248FDF7CAF910BD0000A9
:104A10000004005010270000200700207CB500246F
:104A20003DE00E206043214940184078002800D125
:104A300034E00020009001900E2060431B49401894
:104A4000017A6846017003214170002181700E20B7
:104A5000604316494018817A6846C170002101718F
:104A600001214171062104F029FF05466846857140
:104A70002912C1710E490C70002608E06846FFF744
:104A8000B3FF6420FCF7F0FFFFF76AFF761C022EED
:104A9000F4DB7D200001FCF7E7FF00BF641C142C51
:104AA000BFDB0120034908707CBD00004C1C0020C6
:104AB0002D0200202E020020FCB50446032C05D058
:104AC000062C03D0102C01D0FF20FCBDFF20F630B7
:104AD000814204DB3348814201DC0920F5E731489B
:104AE0000A30814204DB001D814201DC0C20ECE72E
:104AF0007D20C000814228DA002223E006205043B6
:104B0000294D285A88421BDCD80FC0184010451880
:104B10006D1E06205043244E801900934088C60F16
:104B2000019030184610062050431F4F385A301855
:104B3000854205DA062050433D4640190079C4E716
:104B4000501CC2B20A2AD9DB25E01848814204DB96
:104B50001748814201DC0A20B7E71648814205DB8D
:104B600014486330814201DC0A20AEE71048401C43
:104B7000814205DB0E48C830814201DC0B20A4E7EE
:104B80000D48814205DB0C48C730814201DC0B2017
:104B90009BE7FF2099E70948814201D1542094E71F
:104BA000FE2092E7810200009C000020A10F00007F
:104BB00094110000891300007D150000D10700004A
:104BC00070B505460C46FF20F530FCF7F7FBA1B2A7
:104BD0002846FCF775FBFF20F530FCF7EFFB70BDB6
:104BE0007047000010B5002819DA1A4A03071B0F96
:104BF000083B9B089B00D2588307DC0EFF23A34091
:104C00009A438B071B0E8407E40EA3401A43114BF3
:104C10000407240F083CA408A4001A5118E00E4A07
:104C200003231B02D21883089B00D2588307DC0E93
:104C3000FF23A3409A438B071B0E8407E40EA34077
:104C40001A43054B032424021B198408A4001A519B
:104C500010BD00001CED00E000E100E00120014972
:104C6000087070478A030020FEB50546CCE128682D
:104C700040308088029002980607360F002E70D1CF
:104C8000102102980840002836D100BF2968098801
:104C9000E24A114008460121C90301432A681180F4
:104CA00000BF2C46283428684030008A2178C9008B
:104CB0004018801C0122920229688918405A8005F8
:104CC000800DE061E169606940186061002128465B
:104CD000FDF71BF92420405D0028C7D0A0690028FB
:104CE000C4D12420405D8021084329684031888157
:104CF00000212420415587E12C46FF3429342868BF
:104D0000008801900121C90201980840002829D09B
:104D100028684030008A2178C9004018801D01228F
:104D2000920229688918405A8005800DE061A08BA5
:104D300083B2E28828680090232000012918009897
:104D400003F05AFF00BF29680988B54A1140084698
:104D5000802101432A68118000BF2846FDF755FCD9
:104D600052E17CE00121C903019808400028C2D02B
:104D700000BF29680988AA4A1140084680210143DA
:104D80002A68118000BF28684030008A2178C90055
:104D90004018801D0122920229688918405A800516
:104DA000800DE061E06900280BD0A08B83B2E2881F
:104DB00061692868009003F01FFFE169606940188D
:104DC000606100212846FDF7AFF800BF2968009117
:104DD000296840310A8A00995118009101229202F3
:104DE00000998918891D084600BF2269002A09D147
:104DF00002888C4B1A40028002880123DB031A438D
:104E0000028018E022693E2A0CD200BF22695108B4
:104E1000227CD207D20F002A00D0491C8A06120C2D
:104E2000028008E000BF226951098A020123DB03E6
:104E30001A43028000BF00BF00BF00BF2968098875
:104E4000794A114008460121090348404900484079
:104E500089000143802211432A681180D4E0B10007
:104E60002868405A01900121C90301980840002890
:104E70007ED000BFB2002968895A694A11400846AD
:104E800080210143B3002A68D15200BF7101284636
:104E9000FF3029300C18207B002817D128684030BB
:104EA000008A2178C9004018801D012292022968D9
:104EB0008918405A8705BF0D002F54D0E2886169D8
:104EC00028683B46009003F097FE4CE0217889006B
:104ED0002868405A012189030840002817D0286813
:104EE0004030008A2178C9004018801C01229202BB
:104EF00029688918405A8705BF0D002F1ED02289C6
:104F0000616928683B46009003F076FE16E0286849
:104F10004030008A2178C9004018801D0122920289
:104F200029688918405A8705BF0D002F06D062896D
:104F3000616928683B46009003F05EFE00BF00BF39
:104F4000227892002968895A344A803211400846F2
:104F50000121C9030143C022114323789B002A6821
:104F6000D15200BF00BFE069C019E061606900E094
:104F700012E0C0196061A069002802D02069B8421F
:104F800004D921782846FCF7CFFF05E02178284690
:104F9000A3696269FDF79DF8802101980840002807
:104FA00032D07101284628300C1800BFB2002968A1
:104FB000895A1A4A114008460121C9030143B30026
:104FC0002A68D15200BF28684030008A2178C90081
:104FD0004018801C0122920229688918405A8005D5
:104FE000800DE061E169606940186061A069002896
:104FF00004D121782846FCF788FF05E0217828466F
:10500000A3696269FDF7D1F82868403080880121E2
:10501000C9030840002800D029E6FEBD0F8F00001C
:105020008F0F0000FF8300008FBF00007047014614
:10503000F020084000090A23584302460807000FE1
:105040008018C0B2704702460023114603E05B1C83
:1050500008460A38C1B20A29F9D21807000E0843D7
:10506000704770B504462068C06840210840002899
:1050700015D1401E2168C860FCF798FE054608E07F
:10508000FCF794FE401B7D21C900884201D9032012
:1050900070BD2068C068402108400028F0D0002082
:1050A000F6E7000010B50548FEF766F9FF2101316B
:1050B0000248FEF7A5F900F0BDFF10BDE02000207A
:1050C000FFB599B017461E46199D042E13D1002432
:1050D0000DE060002C49085C6100491948706000CF
:1050E000401C2949085C61006854601CC4B2102C43
:1050F000EFDB1DB0F0BD072E12D100240DE06000E3
:105100002249085C6100491948706000401C1F4931
:10511000085C61006854601CC4B2102CEFDBE8E747
:10512000062171431A4BC9184A88F0B2694605F046
:105130000DFD002805DAFF2239462846FBF744F822
:1051400020E01A98684401463A462846FBF72AF8B8
:10515000082E17D1002410E01A9868446100405CC2
:1051600061004919487069461A9809186000401C86
:10517000085C61006854601CC4B2F90FC919491079
:10518000A142E9DC00BFB4E70C0000201C000020B5
:105190009C0000200FB4F0B589B0182210A903A814
:1051A000FBF700F800240020029010A886794779C8
:1051B0000079019010A885780F9C00894F49081A42
:1051C00080B2029021400298081880B20290E40A4E
:1051D00003E04B48241A681C85B249488442F8D23F
:1051E00006E0E1200001241A0198401C80B20190E1
:1051F000E12000018442F4D202E03C3C781C87B2FA
:105200003C2CFAD2301986B207E00121C90202987B
:10521000401A80B20290701C86B20121C902029825
:105220008842F2DA04E030463C3886B2781C87B215
:105230003C2EF8DA06E038463C3887B20198401C2C
:1052400080B201903C2FF6DA05E00198183880B260
:105250000190681C85B201981828F6DA10A9C9785F
:10526000002908D010A9C878C117890F091889101A
:105270008900411A16D110A84078401E2149085CC7
:10528000A84225DA10A84078401E0A46115C28463C
:10529000FAF744FF8DB26846407B401CC1B26846B5
:1052A000417315E010A84078401E1749085CA842D9
:1052B0000EDA10A84078401E0A46115C2846FAF71C
:1052C0002DFF8DB26846407B401CC1B268464173D9
:1052D0000A490298091A059103A886714771019835
:1052E000C1B2684601748573182203A90E98FAF7B3
:1052F00059FF09B0F0BC08BC04B01847FF07000014
:1053000080510100F5B20008E9B2000870B58CB018
:10531000054600BF0024002D08D1684600F0D8F8EB
:105320001822694606A8FAF73DFF04E0182229462C
:1053300006A8FAF737FF002010E0002807D0014642
:10534000C217920F521892109200821A02D1274966
:10535000641801E026496418411C08B26946C97EF8
:105360008142EADC6946C97E002908D06946C87EC8
:10537000C117890F091889108900411A0ED1002020
:1053800006E01C49095C1C4A51430C19411CC8B277
:105390006946497E491E8142F3DC0DE0002006E0AB
:1053A0001649095C144A51430C19411CC8B269469C
:1053B000497E491E8142F3DC06A8817940793C226E
:1053C000504309186846007FE12212015043091832
:1053D0006846807E084A504308180419E102084ACA
:1053E0000898101A0E1830460CB070BD0085E20106
:1053F0008033E101F5B2000880510100E9B20008F4
:10540000FF070000F1B584B000BF0498FBF74EF928
:1054100004460022094BFBF769F806460022084BB8
:10542000FBF7CCF80191009005F00EFC039102907F
:1054300003990298FBF748F905B0F0BD00007040F1
:1054400000405F40F1B584B000BF0498FBF72EF92F
:1054500004460022094BFBF749F806460022084B98
:10546000FBF7ACF80191009005F0EEFB0391029080
:1054700003990298FBF728F905B0F0BD00405F40A2
:10548000000070400F490968884209D90E4909781F
:10549000012905D100210C4A11700A490968401AF6
:1054A0000849096888420BD9322803D20021074AEB
:1054B000117005E00121054A117002490968401A7E
:1054C00070470000840300207C0300207D0300203F
:1054D00070B586B0054600260024002201A91048B8
:1054E000FEF744F8029E002201A90D48FEF73EF89F
:1054F000029C06E02646002201A90948FEF736F87C
:10550000029CA642F6D1002269460548FEF700F843
:10551000182269462846FAF745FE06B070BD00001D
:10552000E020002070B50026002400250020FFF7B1
:10553000EDFE04460748FFF7E9FE0546AC4203D2FC
:10554000701E401B061900E0661B3046FFF77AFF0D
:1055500070BD0000C820002000B587B02348007847
:10556000002840D1224800690121890408432049CC
:105570000861204820490860002048600F211E482B
:1055800081601E49C160002101618161C161FEF736
:1055900023F800216846C171012141718171062102
:1055A0000171002201A91448FEF7B4F900216846F0
:1055B000017201A8417181710491C1710591069137
:1055C000002202A90C48FEF735FA0B48FDF7A7FEAA
:1055D000002201210220FCF743FC0220FCF734FCEE
:1055E00001200249087007B000BD00007F030020C1
:1055F0004010024000280040E0200020FF0700008B
:1056000010B510484068C007C00F0121484048400D
:10561000002806D00B4800680421084309490860A7
:1056200002E00120084908700848C0680C210840C1
:10563000042804D00548C0680840002801D1FBF7C1
:10564000A5FD10BD007000407C030020001002404A
:1056500070B504462046FFF7D5FE054600F002F877
:1056600070BD000010B5A0B00446FF2101312548EF
:10567000FDF7C6FE032C00D8032404A8FFF728FF7B
:10568000182204A91AA8FAF78DFD18221AA91E4893
:10569000FAF788FD1CA80FC803936B4607C3214681
:1056A00004A81B9B1A9AFFF775FD182204A914A8D9
:1056B000FAF778FDFF2001301390002011900F9031
:1056C0000F2000061090002108A8C17216980B90B8
:1056D00014A8817908A8817214A8417908A8417298
:1056E00010A8017D08A8017210A8817C0172002217
:1056F0000AA90448FDF7F0FF002800D000BF20B041
:1057000010BD0000E0200020C820002070470000ED
:105710000FB430B591B0359C402101A8FAF75BFD7C
:1057200001A9204600F098F901A914A804F068F82E
:10573000022010A9087414A804F070F801A8FAF760
:1057400075FD002808D07D231B011A4605A124A859
:10575000013000F009F8054611B030BC08BC04B0B7
:10576000184700004F4B0000FFB5FFB0FFB08BB0F3
:105770000021FFA8416201620121890207A8FAF70E
:105780002AFD002500210691059100240491039132
:10579000029101910026FFA8806A002803D0FFA88B
:1057A000C06A002804D100207FB07FB00FB0F0BDE8
:1057B000FFA8806AFAF73AFD002807D0FFA8806AA0
:1057C000FAF734FD01218902884201D90020EBE774
:1057D000002091490880FFA8806AFAF727FD054656
:1057E000FFA8806AFAF722FD02460090FFA8816AAE
:1057F00007A8FAF7D7FC012288A107A8FAF71DFD30
:10580000002812D0681EFFA9896A085C0D280CD0F8
:1058100001208002854205D26D1C0D21681E07AA59
:10582000115402E00120C043BEE7FBF765FD0021F3
:10583000FFA84162002700BF00BF79480068C06927
:105840004021084080090028F7D00598002807D09B
:10585000FCF7ACFA0699421AFFA9486B824216D9A6
:10586000FCF7A4FA0690AAB2FFA807A9036B6C483C
:10587000FEF7B5FD0146FFA80162006A002804D0CA
:105880000020C043FFA9486201E001200590FFA865
:10589000C06AFAF7CBFC00280CD0FFA8C06AFBF75F
:1058A000B1FF002806D00120FFA9486200205D4911
:1058B000086023E0FFA8C06AFAF7B8FC002807D107
:1058C00055480088012803DD0120FFA9486215E042
:1058D00055A0FBF797FF002810D00020C043FFA978
:1058E000486250480068401C4E49086008460068FD
:1058F000042803DD00200860FBF768FC1420FBF798
:105900005DFD7D20C000874201DBFBF75FFCFFA847
:10591000406A002805D138467F1C7D21C900884295
:105920008ADB3A46424943A0FBF71AFD7D20C000BE
:10593000874202D1FBF74AFC02E00120444908609B
:10594000FFA8406A012863D1FFA8C06AFAF76EFC7D
:1059500000285DD0FFA8816A3548FAF753FC039010
:105960000398002854D0FFA8806AFAF75FFC01462C
:105970002F4A0398801A0C1800BFFF2C00DB0BE0A5
:105980002B48005D0D2803D02948005D0A2801D16D
:10599000641C00E000E0F0E700BF25490819FFA9FA
:1059A000C96AFAF72FFC02900298002830D02049EB
:1059B00009190298411A0491049E049EA019401EE0
:1059C00001900EE01A490198085C0D2803D0019857
:1059D000085C0A2801D1761E00E005E00198401E0F
:1059E000019001980028EDDC00BF002E10DD10486A
:1059F00001193246FAF7D6FB1648066002461268CD
:105A0000FF23991A0A4A03461B68D018FAF7E3FBEA
:105A1000FFA8406AC8E60000500300207B00000099
:105A2000A0060020700300204552524F5200000093
:105A3000C81E002076616C7565203D2025732C20E2
:105A400074696D6573203D2025640D0A0000000017
:105A5000640300206803002070B504460D46002C46
:105A600011D12748FAF7E2FB002847D0244820301C
:105A700041780278080210430346214A21A12846B2
:105A800003F0E2F93AE0012C0CD11D482230FAF77C
:105A9000CDFB002832D01A4A22321DA1284603F03D
:105AA000D3F92BE0022C0CD115488630FAF7BEFB57
:105AB000002823D0124A863218A1284603F0C4F9E0
:105AC0001CE0032C0CD10E489630FAF7AFFB0028EF
:105AD00014D00B4A963215A1284603F0B5F90DE013
